S01100002E2E2F50726F746575732E73313966
S32D0000C000000000205DC2000011C3000017C300001DC3000023C3000029C3000000000000000000000000000073
S32D0000C028000000002FC3000035C30000000000003BC3000041C30000C1CB0000CDCB0000D9CB0000E5CB000086
S32D0000C050F1CB0000FDCB000009CC000015CC000021CC00002DCC000039CC000045CC000051CC00005DCC000046
S32D0000C07869CC000075CC000081CC00008DCC000099CC0000A5CC0000B1CC0000BDCC0000C9CC0000D5CC00006C
S32D0000C0A0E1CC0000EDCC0000F9CC000005CD000011CD00001DCD000029CD000035CD000041CD00004DCD00008D
S32D0000C0C859CD000065CD000071CD00007DCD000089CD000095CD0000A1CD0000ADCD0000B9CD0000C5CD0000B2
S32D0000C0F0D1CD0000193A0100DDCD0000E9CD0000F5CD000001CE00000DCE000019CE000025CE000031CE00008B
S32D0000C1183DCE000049CE000055CE000061CE00006DCE000079CE000085CE000091CE00009DCE0000A9CE00006F
S32D0000C140B5CE0000C1CE0000CDCE0000D9CE0000F91C0100E5CE0000F1CE0000FDCE000009CF000015CF00006E
S32D0000C16821CF00002DCF000039CF000045CF000051CF00005DCF000069CF000075CF000081CF00008DCF00002D
S32D0000C19099CF0000A5CF0000B1CF000039190100011801009D18010045C90000D9190100BDCF0000C9CF0000DD
S32D0000C1B8D5CF00001055020000000020D0160000105502000000FF1F00000000D0160020D40600000000FF1FC5
S32D0000C1E00000000080B489B000AFF860B9607A60BB68FB61FB68BB6100237B617A697B689A420BD2BA69131DFB
S32D0000C208BB61FB69191DF96112681A607B6904337B61EFE700BF2437BD4680BC704780B485B000AF786039609E
S32D0000C2307B68FB600023BB60BA683B689A4208D2FB681A1DFA6000221A60BB680433BB60F2E700BF1437BD46FE
S32D0000C25880BC704780B586B000AF72B6234B4CF220521A80214B4DF628121A80204B4FF4E9721A801F4B7B615F
S32D0000C2807B691F4A934214D27B691A1D7A611B683B617B691A1D7A611B68FB607B691A1D7A611B68BB60BA68E9
S32D0000C2A8F9683869FFF79AFFE6E77B69134A93420ED27B691A1D7A611B68FB607B691A1D7A611B68BB60B9688B
S32D0000C2D0F868FFF7A8FFECE70B4B7B600B4A7B681A6010F085FE62B600F0F4FB00F0C8F8FEE700BF0E2005404C
S32D0000C2F800200540BCC10000D4C10000E4C1000008ED00E000C0000080B400AFFEE780B400AFFEE780B400AFF4
S32D0000C320FEE780B400AFFEE780B400AFFEE780B400AFFEE780B400AFFEE780B400AFFEE780B400AFFEE780B426
S32D0000C34800AFFEE7FFFFFFFFFFFFFFFFFFFFFFFFFFFFFFFFFFFFFFFFFFFFFFFFFFFFFFFFFFFFFFFFFFFFFFFF57
S32D0000C370FFFFFFFFFFFFFFFFFFFFFFFFFFFFFFFFFFFFFFFFFFFFFFFFFFFFFFFFFFFFFFFFFFFFFFFFFFFFFFFFC7
S32D0000C398FFFFFFFFFFFFFFFFFFFFFFFFFFFFFFFFFFFFFFFFFFFFFFFFFFFFFFFFFFFFFFFFFFFFFFFFFFFFFFFF9F
S32D0000C3C0FFFFFFFFFFFFFFFFFFFFFFFFFFFFFFFFFFFFFFFFFFFFFFFFFFFFFFFFFFFFFFFFFFFFFFFFFFFFFFFF77
S32D0000C3E8FFFFFFFFFFFFFFFFFFFFFFFFFFFFFFFFFFFFFFFFFFFFFFFFFFFFFFFFFFFFFFFFFFFFFFFFFEFFFFFF50
S32D0000C44010B5054C237833B9044B13B10448AFF300800123237010BDD0160020000000008053020008B5034B46
S32D0000C4681BB103490348AFF3008008BD00000000D41600208053020080B586B002AF8C4B8C4A1A608A4B8C4A8F
S32D0000C4905A608C4A8C498D4807F004FCB86000218B4806F064F96FF07F41894806F0B0F98849874806F06EFB60
S32D0000C4B88749854806F06AFB3A463B1D1946824806F016FA034683F00103DBB2002B00D0F2E73A463B1D1946FF
S32D0000C4E07B4806F009FA0346002B00D0F5E70023FB607A4AB968754807F0ECFC784805F0C7FA034618460EF038
S32D0000C508A7FF02460B46CDE90023744AB9686D4807F0DCFC724805F0B7FA034618460EF097FF02460B46CDE9A0
S32D0000C53000236E4AB968654807F0CCFC6C4805F0A7FA034618460EF087FF02460B46CDE90023684AB9685D4816
S32D0000C55807F0BCFCFB68022B33D0FB68022B00F39E80FB68002B03D0FB68012B60D096E05F49554806F00AFBFC
S32D0000C580564AB968514807F0A5FC5C4A5C494A4800F0C2F9564805F07BFA03465949184600F012F90346002B53
S32D0000C5A801D00123FB604C4805F06EFA03465449184600F005F90346002B75D00223FB6072E05049404806F050
S32D0000C5D0E1FA4F4AB9683D4807F07CFC4D4A4849354800F099F93E4805F052FA03464649184600F0E9F8034676
S32D0000C5F883F00103DBB2002B58D03B4805F044FA03463E49184600F0DBF80346002B01D00123FB60324805F0E4
S32D0000C62037FA03463C49184600F0CEF80346002B40D00023FB603DE03849254806F0AAFA374AB968214807F030
S32D0000C64845FC2C4A35491A4800F062F9264805F01BFA03462949184600F0B2F8034683F00103DBB2002B5DD012
S32D0000C6701B4805F00DFA03462349184600F0A4F80346002B01D00223FB60174805F000FA03462149184600F08A
S32D0000C69897F80346002B45D00023FB6042E02049094806F073FA3EE000BF3CE000BF3AE008170020F816002060
S32D0000C6C000170020CC360200D0360200841A0020FC190020DC360200F83602000C370200F41600201437020016
S32D0000C6E8F01600202C370200EC1600204837020064370200000070C100007041D7A310403333F33F6C37020070
S32D0000C71074370200000040C014AE17407C37020084370200000040408C37020000BF1E4805F0AEF90346184616
S32D0000C7380EF08EFE02460B46CDE90023194AB968194807F0C3FB194805F09EF9034618460EF07EFE02460B4696
S32D0000C760CDE90023144AB968114807F0B3FB134805F08EF9034618460EF06EFE02460B46CDE900230E4AB96882
S32D0000C788094807F0A3FB04A1D1E9000105F00EF8E0E600BFAFF300809A9999999999B93FF41600201437020095
S32D0000C7B0841A0020F01600202C370200EC1600204837020000000000B0B584B000AF786039600023FB73786845
S32D0000C7D80EF03EFE04460D4638680EF039FE16A3D3E900230EF0D4FC02460B46204629460FF00CF90346002B3B
S32D0000C80017D078680EF028FE04460D4638680EF023FE0BA3D3E900230EF0C0FC02460B46204629460FF0ECF82B
S32D0000C8280346002B01D00123FB73FB7B18461037BD46B0BDAFF300809A9999999999C93F80B582B000AF7860D1
S32D0000C85039607B68012B20D13B684FF6FF7293421BD108210F4805F003F90B210E4805F0FFF80E210D4805F0AF
S32D0000C878FBF80D4A01210D4800F0AEFB0A4A00210B4800F0A9FB084B01220021094800F01BF800BF0837BD46F0
S32D0000C8A080BD00BFEC160020F0160020F416002000001041F8160020001700200817002080B500AF4FF6FF716E
S32D0000C8C80120FFF7BDFF80BD80B588B000AFF8607B600B46FB721346BB72F97A07F118037A68184600F078FB76
S32D0000C8F0B97A07F110037A68184600F071FBFB6807F118021A60FB6807F110025A60FB6818462037BD4680BDD2
S32D0000C91880B584B000AFF860B9607A60FB681B68B968184600F0C0FBFB685B687968184600F0BAFB00BF10376E
S32D0000C940BD4680BD80B500AF0F4BD3F8A03003F48053002B14BF01230023DBB2002B10D0094BD3F8A030084AC8
S32D0000C96823F48053C2F8A030064807F079FA064B1B68054A23F40053136000BF80BD00BF00C00440841A0020F8
S32D0000C990C0F00F4080B400AF124B4FF480725A63114B5B69104A43F4005353610E4B1B680D4A43F40053136060
S32D0000C9B80A4B0C4A1A630C4BD3F888310A4A43F08063C2F88831084B9B68074A43F08063936000BFBD4680BCC3
S32D0000C9E0704700BF00C00440C0F00F4003010A0000E100E080B400AF334B00225A70324B98221A70304B9B7944
S32D0000CA08DBB203F01003002B14BF01230023DBB2002B00D0F2E72A4B9B79DBB29B08DBB203F00303022B14BF88
S32D0000CA3001230023DBB2002B00D0F0E7224B18221A71214B00225A71204B03F580531A461F4B53641C4B542213
S32D0000CA585A711B4B9B79DBB203F02003002B0CBF01230023DBB2002B00D0F2E7144B9B79DBB203F04003002BC9
S32D0000CA800CBF01230023DBB2002B00D0F2E70E4B1B78DBB20C4A03F03F03DBB213700A4B9B79DBB29B08DBB2DB
S32D0000CAA803F00303032B14BF01230023DBB2002B00D0F0E700231846BD4680BC704700BF004006400070044050
S32D0000CAD00000130180B500AF314B03F580539B6B2F4A43F4785302F580529363FFF752FFFFF780FF2B4B58220D
S32D0000CAF81A602A4B1B684FF47A7202FB03F3284A1360274B1B681A46234B03F580535B6C1B0E03F00F030133E0
S32D0000CB20B2FBF3F31A46214B1A601D4B03F58053DB6B1B4A43F0225302F58052D363184B03F580531B6B164A75
S32D0000CB4843F0006302F580521363174B4FF480721A61642004F000FD134B5B69124A23F010035361104B00228E
S32D0000CB701A600F4B10225A610E4805F09BFC05F06FF805F0CDF80C4804F04CFD0B4807F05DFA4FF4FA6004F01B
S32D0000CB98F7FD00BF80BD00BF0070044048190020441900204C19002000D00340FC19002040190020301D00205B
S32D0000CBC080B500AFFFF7BFFB00BF80BD80B500AFFFF7B9FB00BF80BD80B500AFFFF7B3FB00BF80BD80B500AFC5
S32D0000CBE8FFF7ADFB00BF80BD80B500AFFFF7A7FB00BF80BD80B500AFFFF7A1FB00BF80BD80B500AFFFF79BFB2B
S32D0000CC1000BF80BD80B500AFFFF795FB00BF80BD80B500AFFFF78FFB00BF80BD80B500AFFFF789FB00BF80BDDA
S32D0000CC3880B500AFFFF783FB00BF80BD80B500AFFFF77DFB00BF80BD80B500AFFFF777FB00BF80BD80B500AF00
S32D0000CC60FFF771FB00BF80BD80B500AFFFF76BFB00BF80BD80B500AFFFF765FB00BF80BD80B500AFFFF75FFBA2
S32D0000CC8800BF80BD80B500AFFFF759FB00BF80BD80B500AFFFF753FB00BF80BD80B500AFFFF74DFB00BF80BD16
S32D0000CCB080B500AFFFF747FB00BF80BD80B500AFFFF741FB00BF80BD80B500AFFFF73BFB00BF80BD80B500AF3C
S32D0000CCD8FFF735FB00BF80BD80B500AFFFF72FFB00BF80BD80B500AFFFF729FB00BF80BD80B500AFFFF723FB1A
S32D0000CD0000BF80BD80B500AFFFF71DFB00BF80BD80B500AFFFF717FB00BF80BD80B500AFFFF711FB00BF80BD51
S32D0000CD2880B500AFFFF70BFB00BF80BD80B500AFFFF705FB00BF80BD80B500AFFFF7FFFA00BF80BD80B500AF78
S32D0000CD50FFF7F9FA00BF80BD80B500AFFFF7F3FA00BF80BD80B500AFFFF7EDFA00BF80BD80B500AFFFF7E7FA95
S32D0000CD7800BF80BD80B500AFFFF7E1FA00BF80BD80B500AFFFF7DBFA00BF80BD80B500AFFFF7D5FA00BF80BD90
S32D0000CDA080B500AFFFF7CFFA00BF80BD80B500AFFFF7C9FA00BF80BD80B500AFFFF7C3FA00BF80BD80B500AFB6
S32D0000CDC8FFF7BDFA00BF80BD80B500AFFFF7B7FA00BF80BD80B500AFFFF7B1FA00BF80BD80B500AFFFF7ABFA0D
S32D0000CDF000BF80BD80B500AFFFF7A5FA00BF80BD80B500AFFFF79FFA00BF80BD80B500AFFFF799FA00BF80BDCC
S32D0000CE1880B500AFFFF793FA00BF80BD80B500AFFFF78DFA00BF80BD80B500AFFFF787FA00BF80BD80B500AFF1
S32D0000CE40FFF781FA00BF80BD80B500AFFFF77BFA00BF80BD80B500AFFFF775FA00BF80BD80B500AFFFF76FFA84
S32D0000CE6800BF80BD80B500AFFFF769FA00BF80BD80B500AFFFF763FA00BF80BD80B500AFFFF75DFA00BF80BD07
S32D0000CE9080B500AFFFF757FA00BF80BD80B500AFFFF751FA00BF80BD80B500AFFFF74BFA00BF80BD80B500AF2D
S32D0000CEB8FFF745FA00BF80BD80B500AFFFF73FFA00BF80BD80B500AFFFF739FA00BF80BD80B500AFFFF733FAFC
S32D0000CEE000BF80BD80B500AFFFF72DFA00BF80BD80B500AFFFF727FA00BF80BD80B500AFFFF721FA00BF80BD43
S32D0000CF0880B500AFFFF71BFA00BF80BD80B500AFFFF715FA00BF80BD80B500AFFFF70FFA00BF80BD80B500AF68
S32D0000CF30FFF709FA00BF80BD80B500AFFFF703FA00BF80BD80B500AFFFF7FDF900BF80BD80B500AFFFF7F7F975
S32D0000CF5800BF80BD80B500AFFFF7F1F900BF80BD80B500AFFFF7EBF900BF80BD80B500AFFFF7E5F900BF80BD81
S32D0000CF8080B500AFFFF7DFF900BF80BD80B500AFFFF7D9F900BF80BD80B500AFFFF7D3F900BF80BD80B500AFA7
S32D0000CFA8FFF7CDF900BF80BD80B500AFFFF7C7F900BF80BD80B500AFFFF7C1F900BF80BD80B500AFFFF7BBF9EF
S32D0000CFD000BF80BD80B500AFFFF7B5F900BF80BD80B584B000AFF8600B467A60FB72FB68FA7A1A71FB680022C4
S32D0000CFF85A71174978680EF021FE0346002B02D0134B7B600AE04FF07E5178680EF002FE0346002B02D04FF009
S32D0000D0207E537B6078680EF017FA09A3D3E900230EF06AFA02460B46104619460EF046FD0246FB681A60FB6843
S32D0000D04818461037BD4680BDABAAAAAAAAAA20400000404180B584B000AF786039603B687F2B02DD7F23FB7332
S32D0000D07008E03B6813F1800F02DA8023FB7301E03B68FB737B685B79FA7B9A4209D07B68FA7B5A717B6819791C
S32D0000D098FA7B1E23034804F0FBFA00BF1037BD4680BD00BF40190020B0B584B000AF78603960374938680EF02B
S32D0000D0C0A3FD0346002B02D0334B3B6008E0334938680EF0B7FD0346002B01D02F4B3B6038680EF0B9F9044699
S32D0000D0E80D467B681B6818460EF0B2F94FF00002294B0EF02FFB02460B46204629460EF0FFF902460B4610462A
S32D0000D11019460EF0DBFC03463B604FF0000138680EF086FD0346002B10D038680EF094F917A3D3E900230EF062
S32D0000D138E7F902460B46104619460EF07BFC0346FB6018E038680EF083F94FF00002134B0EF0D6F902460B466B
S32D0000D160104619464FF000020D4B0EF0F7FA02460B46104619460EF061FC0346FB60F9687868FFF76BFF00BFB7
S32D0000D1881037BD46B0BD00BF52B81E85EB51F43F0000C8C20000C842000059400000604080B483B000AF0346BB
S32D0000D1B00A46FB711346BB71BB79002B03D1134B00221A7002E0114B01221A703823FB710E4B1A78FB7913436C
S32D0000D1D8FB710D4B9B78DBB20B4A43F01003DBB29370094B9B78DBB2074A43F02003DBB29370054AFB79137128
S32D0000D20000BF0C37BD4680BC704700BF101700200060064080B483B000AF01237B607B68312B04DC00BF7B6886
S32D0000D22801337B60F7E700BF0C37BD4680BC704780B582B000AF03460A46FB711346BB71134B1B7800211846E3
S32D0000D250FFF7AAFF00F024F8104AFB79137100F01FF80E4ABB79137100F01AF80B4B9B78DBB20A4A23F020031A
S32D0000D278DBB29370074B9B78DBB2064A23F01003DBB29370FFF7C2FF00BF0837BD4680BD11170020006006401D
S32D0000D2A080B483B000AF174B1B78002B24D100237B60154BDB78DBB203F00203002B0CBF01230023DBB2002B0A
S32D0000D2C80DD07B6842F21072934203DD0B4B01221A7004E07B6801337B6000BFE5E7084BDB78DBB2064A43F0F3
S32D0000D2F00203DBB2D37000E000BF0C37BD4680BC704700BF121700200060064080B582B000AF0346FB71FB7976
S32D0000D318184600F05FF800BF0837BD4680BD80B582B000AF03460A46FB711346BB7100F035F8FB795B00DBB2EB
S32D0000D3401846FFF7E3FFBB791846FFF7DFFF00F037F800BF0837BD4680BD80B500AFFF2000F03CF803461846F8
S32D0000D36880BD80B584B000AF0346FB7100F016F8FB795B005BB243F001035BB2DBB21846FFF7C0FFFFF7E5FFF5
S32D0000D3900346FB7300F014F8FB7B18461037BD4680BD000080B400AF044B9B68034A43F48013936000BFBD4660
S32D0000D3B880BC704740F00F4080B400AF044B5B68034A43F48013536000BFBD4680BC704740F00F4080B485B079
S32D0000D3E000AF0346FB710023BB73164BDB6A03F00043012B0CBF01230023DBB2002B03D0FB7B0133FB73F0E7D6
S32D0000D4080E4BDB6A0D4A43F00043D3620B4AFB7953630A4BDB6A03F40033002B0CBF01230023DBB2002B00D04E
S32D0000D430F3E7044B9B6BBB73BB7B18461437BD4680BC704700C00A4080B582B000AF204B03F580531B6B1E4A58
S32D0000D45843F4805302F5805213631C4B4FF480721A651B4B5B691A4A43F480135361FFF7A3FF164B4FF4007288
S32D0000D4805A65144B4FF400729A65124B4FF40072DA65124B124A1A60104B124ADA6000237B607B68092B06DC40
S32D0000D4A8FF20FFF72FFF7B6801337B60F5E704A1D1E9000104F07AF900BF0837BD4680BD9A9999999999B93FB1
S32D0000D4D00070044000A0044040F00F4000C00A40000C00800500003E90B486B000AFF860B9607A60FB68534ACA
S32D0000D4F893420AD1524B03F580535B6B504A43F4806302F58052536345E0FB684D4A93420AD14B4B03F58053C5
S32D0000D5205B6B494A43F4006302F58052536336E0FB68474A93420AD1434B03F580535B6B414A43F4805302F506
S32D0000D5488052536327E0FB68404A93420AD13C4B03F580535B6B3A4A43F4005302F58052536318E0FB683A4A05
S32D0000D57093420AD1344B03F580539B6A324A43F4806302F58052936209E02F4B03F580539B6A2D4A43F40063F6
S32D0000D59802F580529362FB68DB78DBB223F00C03DAB2FB68DA70FB6800229A70BB684FF47A7203FB02F27B6853
S32D0000D5C01B0192FBF3F39CB2FB681B78DBB223F01F03FB75230A9BB2DBB203F01F03DAB2FB7D1343DAB2FB68D3
S32D0000D5E81A70E2B2FB685A70BB684FF4FA4203FB02F27B681B0192FBF3F39AB263019BB2D31A9CB2FB689B7A14
S32D0000D610DBB223F01F03FB75E3B203F01F03DAB2FB7D1343DAB2FB689A72FB68DB78DBB243F00C03DAB2FB6847
S32D0000D638DA7000BF1837BD4690BC704700A006400070044000B0064000C0064000D0064000A00E4080B483B065
S32D0000D66000AF78607B681B79DBB203F02003002B0CBF01230023DBB2002B00D0F2E77B68DB79DBB218460C37F8
S32D0000D688BD4680BC704780B483B000AF78600B46FB707B681B79DBB25BB2DB43DBB2DB09DBB2002B00D0F4E7D1
S32D0000D6B07B68FA78DA7100BF0C37BD4680BC704780B487B000AFF860B9607A60FB687B61BB683B617B685A1EF6
S32D0000D6D87A60002B14BF01230023DBB2002B08D03A69531C3B617B69591C796112781A70ECE700BF1C37BD4698
S32D0000D70080BC704780B487B000AFF860B9607A60FB687B617B685A1E7A60002B14BF01230023DBB2002B06D05C
S32D0000D7287B695A1C7A61BA68D2B21A70EEE700BF1C37BD4680BC704780B489B000AFF860B9607A60FB68FB616B
S32D0000D750BB68BB6100237B617B685A1E7A60002B0FD0FB695A1CFA611B781946BB695A1CBA611B78CB1A7B61FE
S32D0000D7787B69002B01D1012300E00023002B00D0E6E77B6918462437BD4680BC704780B483B000AF7860396099
S32D0000D7A07B681B78002B09D07B681B781A463B68934203D07B6801337B60F1E77B681B7818460C37BD4680BCA0
S32D0000D7C8704780B584B000AF786039607B681B6BFB60FA683B689A4252D07B681B79002B35D07B6858787B68EF
S32D0000D7F003F134010123FA6803F050FD0346002B14BF01230023DBB2002B01D001233CE07B6800221A717B6852
S32D0000D8185A6A7B681B6A1344FA689A4217D27B68DB78FB72FB7A012B11D97B681B6AFA681344FB607B685878DB
S32D0000D8407B6803F134010123FA6803F027FDFB7A013BFB72EAE73B68002B15D07B6858787B6803F1340101238C
S32D0000D8683A6803F033FC0346002B14BF01230023DBB2002B01D0012303E07B683A681A63002318461037BD46E3
S32D0000D89080BD80B584B000AF786000217868FFF794FF0346FB73FB7B002B40F093807B681B78032B7DD17B6843
S32D0000D8B85B79002B79D07B6800221A637B6834334FF4007200211846FFF718FF7B68552283F832227B68AA2215
S32D0000D8E083F833227B68522283F834207B68522283F835207B68612283F836207B68412283F837207B68722237
S32D0000D90883F818227B68722283F819227B68412283F81A227B68612283F81B227B681B69DAB27B6883F81C2265
S32D0000D9307B681B699BB21B0A9BB2DAB27B6883F81D227B681B691B0CDAB27B6883F81E227B681B691B0EDAB2A6
S32D0000D9587B6883F81F227B68DB68DAB27B6883F820227B68DB689BB21B0A9BB2DAB27B6883F821227B68DB6878
S32D0000D9801B0CDAB27B6883F822227B68DB681B0EDAB27B6883F823227B6858787B6803F134017B685A6901231D
S32D0000D9A803F078FC7B6800225A717B685B7800220021184603F03AFD0346002B14BF01230023DBB2002B01D082
S32D0000D9D00123FB73FB7B18461037BD4680BD80B483B000AF786039603B68023B3B607B68DB69023B3A689A4258
S32D0000D9F801D3002308E07B689B781A463B6803FB02F27B68DB6A134418460C37BD4680BC704780B586B000AF07
S32D0000DA20786039603B68012B04D97B68DB693A689A4201D30123B5E07B681B78032B7AD0032B00F3AD80012B21
S32D0000DA4802D0022B4DD0A7E03B683B613B695B083A6913443B617B685A6A3B695B0A134419467868FFF7ADFE4A
S32D0000DA700346002B14BF01230023DBB2002B40F088803B69C3F308037A68134493F83430FB603B6901333B61AE
S32D0000DA987B685A6A3B695B0A134419467868FFF790FE0346002B14BF01230023DBB2002B6DD13B69C3F30803AD
S32D0000DAC07A68134493F834301B021A46FB681343FB603B6803F00103002B02D0FB681B0960E0FB68C3F30B03FA
S32D0000DAE85CE07B685A6A3B681B0A134419467868FFF767FE0346002B14BF01230023DBB2002B46D13B685B0019
S32D0000DB1003F4FF7330337A68134404337B617B6901331B781B021AB27B691B781BB213431BB29BB236E07B688E
S32D0000DB385A6A3B68DB09134419467868FFF741FE0346002B14BF01230023DBB2002B22D13B689B0003F4FE73CA
S32D0000DB6030337A68134404337B617B6903331B781A067B6902331B781B0413437A6901321278120213437A690D
S32D0000DB881278134323F0704308E000BF04E000BF02E000BF00E000BF4FF0FF3318461837BD4680BD80B588B074
S32D0000DBB000AFF860B9607A60BB68012B04D9FB68DB69BA689A4202D30223FB77EEE0FB681B78032B00F0978017
S32D0000DBD8032B00F3DA80012B02D0022B6BD0D4E0BB687B617B695B087A6913447B61FB685A6A7B695B0A134467
S32D0000DC001946F868FFF7E1FD0346FB77FB7F002B40F0C2807B69C3F308033033FA6813440433BB61BB6803F067
S32D0000DC280103002B0DD0BB691B785BB203F00F035AB27B68DBB21B015BB213435BB2DBB201E07B68DBB2BA69F0
S32D0000DC5013707B6901337B61FB6801221A71FB685A6A7B695B0A13441946F868FFF7ADFD0346FB77FB7F002B98
S32D0000DC7840F090807B69C3F308033033FA6813440433BB61BB6803F00103002B03D07B681B09DBB20CE0BB696E
S32D0000DCA01B7823F00F03DAB27B681B0ADBB203F00F03DBB21343DBB2BA69137073E0FB685A6ABB681B0A134449
S32D0000DCC81946F868FFF77DFD0346FB77FB7F002B62D1BB685B0003F4FF733033FA6813440433BB617B68DAB2A7
S32D0000DCF0BB691A707B689BB21B0A9AB2BB690133D2B21A704FE0FB685A6ABB68DB0913441946F868FFF759FD92
S32D0000DD180346FB77FB7F002B40D1BB689B0003F4FE733033FA6813440433BB61BB6903331B781A06BB69023371
S32D0000DD401B781B041343BA690132127812021343BA691278134303F070437A6813437B607B68DAB2BB691A708A
S32D0000DD687B689BB21B0A9AB2BB690133D2B21A707B681A0CBB690233D2B21A707B681A0EBB690333D2B21A70A3
S32D0000DD9009E00223FB7706E000BF04E000BF02E000BF00E000BFFB6801221A71FB7F18462037BD4680BD80B5A8
S32D0000DDB884B000AF786039603B68012B04D97B68DB693A689A4202D30223FB7338E00023FB737B68DB693A68BE
S32D0000DDE09A4231D239687868FFF717FEB860BB68002B26D0BB68012B02D10223FB7323E0BB68B3F1FF3F02D1BE
S32D0000DE080123FB731CE0002239687868FFF7CAFE0346FB73FB7B002B11D17B681B69B3F1FF3F07D07B681B693C
S32D0000DE305A1C7B681A617B6801225A71BB683B60CBE700BF00E000BFFB7B18461037BD4680BD80B586B000AFDC
S32D0000DE58786039603B68002B0DD17B68DB683B613B69002B04D07B68DB693A699A4215D301233B6112E0396839
S32D0000DE807868FFF7CAFDB860BB68012B01D8012364E07B68DB69BA689A4201D2BB685DE03B683B613B697B6118
S32D0000DEA87B6901337B617B68DB697A699A4207D302237B617A693B699A4201D9002349E079697868FFF7A5FDB4
S32D0000DED0B860BB68002B0ED0BB68B3F1FF3F02D0BB68012B01D1BB6838E07A693B699A42DAD1002332E000BFAB
S32D0000DEF86FF0704279697868FFF754FE0346FB73FB7B002B09D13B68002B06D07A6939687868FFF747FE034623
S32D0000DF20FB73FB7B002B10D17B687A69DA607B681B69B3F1FF3F10D07B681B695A1E7B681A617B6801225A71AC
S32D0000DF4807E0FB7B012B02D14FF0FF3300E001237B617B6918461837BD4680BD80B487B000AF786039607B68BF
S32D0000DF705B6A04333B613B685B0A7A6812689278B3FBF2F37B613B691A1D3A611B68FB60FB68002B01D1002337
S32D0000DF9810E07A69FB689A4207D37A69FB68D31A7B613B6904333B61E9E700BF3B691A687B69134418461C3748
S32D0000DFC0BD4680BC704780B584B000AF78600B467B807B687A88DA807B689B68FB60FB68012B05D07B681B68B7
S32D0000DFE8DB69FA689A4201D3022364E0FB68002B08D17B681B681B78032B03D17B681B689B6AFB60FB68002B96
S32D0000E01013D17B68FA68DA607B681B681B897A889A4201D302234AE07B681B689A6A7B881B091A447B681A6127
S32D0000E03835E07B681B689B789BB21B017B817A887B899A421CD37B681B68F9681846FFF7E0FCF860FB68B3F1A0
S32D0000E060FF3F01D101232AE0FB68012B05D97B681B68DB69FA689A4201D302231FE07A887B89D31A7B80DEE754
S32D0000E0887B68FA68DA607B681B68F9681846FFF7A2FC02467B881B091A447B681A617B681B6803F134027B8874
S32D0000E0B003F00F035B011A447B685A61002318461037BD4680BD90B585B000AF786039607B68DB8801333B810D
S32D0000E0D83B89002B03D07B681B69002B01D10423C4E03B8903F00F03002B40F0B0807B681B695A1C7B681A619A
S32D0000E1007B68DB68002B08D17B681B681B893A899A42C0F0A0800423ACE03B891B097A6812689278013A1340BF
S32D0000E128002B40F094807B681A687B68DB6819461046FFF76EFCF860FB68012B01D8022394E0FB68B3F1FF3F1C
S32D0000E15001D101238EE07B681B68DB69FA689A426DD33B68002B01D1042383E07B681A687B68DB6819461046AB
S32D0000E178FFF76BFEF860FB68002B01D1072375E0FB68012B01D1022370E0FB68B3F1FF3F01D101236AE07B68A5
S32D0000E1A01B6800211846FFF710FB0346002B14BF01230023DBB2002B01D001235AE07B681B6834334FF4007257
S32D0000E1C800211846FFF79AFA7B681A687B681C68F9681046FFF7FFFB034623630023FB727B681B689B78FA7A61
S32D0000E1F09A421CD27B681B6801221A717B681B6800211846FFF7E1FA0346002B14BF01230023DBB2002B01D056
S32D0000E21801232BE07B681B681A6B01321A63FB7A0133FB72DCE77B681B68196BFA7A7B681B688A1A1A637B686D
S32D0000E240FA68DA607B681B68F9681846FFF7C7FB02467B681A617B683A89DA807B681B6803F134023B8903F04A
S32D0000E2680F035B011A447B685A61002318461437BD4690BD80B586B000AF786000217868FFF79DFE0346FB75C5
S32D0000E290FB7D002B01D0FB7D3CE07B681A687B681B6919461046FFF790FA0346FB75FB7D002B2BD17B685B6958
S32D0000E2B83B613B691B78FB73FB7B002B02D10423FB7522E03B690B331B7803F00803002B0BD17B689B690B225C
S32D0000E2E019463869FFF72CFA0346002B01D1012300E00023002B0BD100217868FFF7E3FE0346FB75FB7D002B4C
S32D0000E30803D1C6E700BF00E000BFFB7D18461837BD4680BD80B584B000AF786000217868FFF74DFE0346FB73BA
S32D0000E330FB7B002B21D17B681A687B681B6919461046FFF742FA0346FB73FB7B002B13D17B685B691B78BB73D5
S32D0000E358BB7BE52B0DD0BB7B002B0AD001217868FFF7ADFE0346FB73FB7B002B01D1DEE700BFFB7B002B1FD157
S32D0000E3807B681A687B681B6919461046FFF71DFA0346FB73FB7B002B12D17B685B69BB6020220021B868FFF76B
S32D0000E3A8ADF97B689B690B221946B868FFF784F97B681B6801221A71FB7B18461037BD4680BD000080B588B0BF
S32D0000E3D000AF786039603B681B68FB60FB681B782F2B03D0FB681B785C2B03D1FB680133FB60F3E77B689B6957
S32D0000E3F8BB600B222021B868FFF780F90023FB7700233B613B697B610823BB61FA687B6913441B782E2B2FD13B
S32D0000E4207B695A1C7A61FA6813441B78BB77BB7F2E2B0AD17B69022B07D83B695A1C3A61BA681344BA7F1A70CC
S32D0000E448EAE7BB7F2F2B07D0BB7F5C2B04D0BB7F202B01D90623A7E0FA687B691A443B681A60BB7F202B01D8A7
S32D0000E470242200E02022BB680B331A70002397E07B695A1C7A61FA6813441B78BB77BB7F202B58D9BB7F2F2B94
S32D0000E49855D0BB7F5C2B52D0BB7F2E2B03D03A69BB699A420FD3BB69082B02D1BB7F2E2B01D0062378E0082329
S32D0000E4C03B610B23BB61FB7F9B00FB773AE097F91E30002B08DAFB7F43F00303FB77BB7F803B354AD35CBB77C2
S32D0000E4E8BB7F19463348FFF752F90346002B14BF01230023DBB2002B01D0062354E0BB7F402B07D9BB7F5A2BF9
S32D0000E51004D8FB7F43F00203FB770CE0BB7F602B09D9BB7F7A2B06D8FB7F43F00103FB77BB7F203BBB773B69FF
S32D0000E5385A1C3A61BA681344BA7F1A709CE7FA687B691A443B681A60BB7F202B01D8042300E00023BB773B69C6
S32D0000E560002B01D1062323E0BB681B78E52B02D1BB6805221A70BB69082B02D1FB7F9B00FB77FB7F03F00303D3
S32D0000E588012B03D1BB7F43F01003BB77FB7F03F00C03042B03D1BB7F43F00803BB77BB680B33BA7F1A70002343
S32D0000E5B018462037BD4680BDA43702002438020080B584B000AF786039603B681B782F2B03D03B681B785C2B64
S32D0000E5D806D13B6801333B607B6800229A6004E07B681B689A697B689A603B681B781F2B09D800217868FFF74B
S32D0000E600E2FC0346FB737B6800225A6169E03B4619467868FFF7DAFE0346FB73FB7B002B58D17868FFF72AFE41
S32D0000E6280346FB737B689B69DB7ABB73FB7B002B1DD0FB7B042B4BD1BB7B03F02003002B0DD07B6800229A6001
S32D0000E6507B6800225A610023FB73BB7B03F00403002B3BD135E0BB7B03F00403002B35D10523FB7332E0BB7B90
S32D0000E67803F00403002B2FD17B685B69BB60BB680B331B7803F01003002B02D10523FB7323E0BB6815331B78FE
S32D0000E6A01B021AB2BB6814331B781BB213431BB29BB21B04BA681B321278120211B2BA681A32127812B20A4331
S32D0000E6C812B292B21A437B689A609CE700BF04E000BF02E000BF00E000BFFB7B18461037BD4680BD80B582B0FB
S32D0000E6F000AF786039607B6858787B6803F1340101233A6802F0E6FC0346002B14BF01230023DBB2002B01D06C
S32D0000E71803234AE07B6803F2322301331B781B021AB27B6893F832321BB213431BB2214A934201D0022338E096
S32D0000E7407B686A3303331B781A067B686A3302331B781B0413437A686A3201321278120213437A6892F86A20EA
S32D0000E768134323F07F43144A934201D100231CE07B68863303331B781A067B68863302331B781B0413437A68F4
S32D0000E790863201321278120213437A6892F88620134323F07F43064A934201D1002300E0012318460837BD4681
S32D0000E7B880BD00BF55AAFFFF4641540080B592B000AFF860B9601346FB71FB681B68FB62FB6A1B78303B3B64BE
S32D0000E7E03B6C092B0BD8FB6A01331B783A2B06D1FB6A0233FB62FB68FA6A1A6002E0A34B1B783B643B6C002BD9
S32D0000E80801D00B2367E2A04A3B6C52F82330BB62BB68BA6A1A60BB6A002B01D10C235AE2BB6A1B78002B1AD034
S32D0000E830BB6A5B78184602F07FFE034687F8273097F8273003F00103002B0CD1FB79002B07D097F8273003F0A2
S32D0000E8580403002B01D00A233DE200233BE2BB6A00221A703B6CDAB2BB6A5A70BB6A5B78184602F0F1F9034695
S32D0000E88087F8273097F8273003F00103002B01D0032324E2FB79002B07D097F8273003F00403002B01D00A2310
S32D0000E8A819E20023FB63F96BB86AFFF71BFF034687F8473097F84730012B22D1BB6A03F5F9733B623B6A0433CA
S32D0000E8D01B78002B19D03B6A0B331B781A063B6A0A331B781B0413433A6A09321278120213433A6A08321278B8
S32D0000E8F81343FB63F96BB86AFFF7F4FE034687F8473097F84730032B01D10123E3E197F84730002B01D00D2371
S32D0000E920DDE1BB6A93F840301B021AB2BB6A93F83F301BB213431BB2B3F5007F01D00D23CDE1BB6A93F84B30F2
S32D0000E9481B021AB2BB6A93F84A301BB213431BB29BB2BB63BB6B002B12D1BB6A93F85B301A06BB6A93F85A306A
S32D0000E9701B041343BA6A92F8592012021343BA6A92F858201343BB63BB6ABA6B1A62BB6A93F84430FB77BB6A58
S32D0000E998FA7FDA70FB7F012B04D0FB7F022B01D00D2398E1FA7FBB6B02FB03F3BB63BB6A93F84130FB77BB6A8B
S32D0000E9C0FA7F9A70FB7F002B05D0FA7FFB7F013B1340002B01D00D2381E1BB6A93F846301B021AB2BB6A93F85D
S32D0000E9E845301BB213431BB29AB2BB6A1A81BB6A1B8903F00F03002B01D00D236BE1BB6A93F848301B021AB239
S32D0000EA10BB6A93F847301BB213431BB29BB27B637B6B002B12D1BB6A93F857301A06BB6A93F856301B041343A0
S32D0000EA38BA6A92F8552012021343BA6A92F8542013437B63BB6A93F843301B021AB2BB6A93F842301BB213437C
S32D0000EA601BB2BB83BB8B002B01D10D2337E1BA8BBB6B1A44BB6A1B891B091344BB617A6BBB699A4206D20D23DC
S32D0000EA8829E100BF1A170020141700207A6BBB69D31ABA6A9278B3FBF2F37B617B69002B01D10D2317E101233B
S32D0000EAB087F847307B6940F6F572934202D9022387F847307B694FF6F572934202D9032387F847307B699A1C00
S32D0000EAD8BB6ADA61FA6BBB691A44BB6ADA62BA8BFB6B1A44BB6A5A6297F84730032B1ED1BB6A1B89002B01D096
S32D0000EB000D23ECE0BB6A93F863301A06BB6A93F862301B041343BA6A92F8612012021343BA6A92F860201A43AD
S32D0000EB28BB6A9A62BB6ADB699B003B631FE0BB6A1B89002B01D10D23CDE0BB6A5A6ABB6B1A44BB6A9A6297F83D
S32D0000EB504730022B03D1BB6ADB695B000AE0BB6ADA6913465B0013445A08BB6ADB6903F0010313443B63BB6A22
S32D0000EB781A6A3B6B03F2FF135B0A9A4201D20D23A9E0BB6A4FF0FF321A61BB6A0022DA6097F84730032B40F07C
S32D0000EBA08680BB6A00225A71BB6A93F865301B021AB2BB6A93F864301BB213431BB29BB21A46FB6B1A44BB6A37
S32D0000EBC85A61BB6A5878BB6A03F13401BB6A5A69012302F07BFA0346002B39D1BB6A93F833321B021AB2BB6A0D
S32D0000EBF093F832321BB213431BB23B4A93422BD1BB6A93F837301A06BB6A93F836301B041343BA6A92F83520FD
S32D0000EC1812021343BA6A92F834201343314A934216D1BB6A93F81B321A06BB6A93F81A321B041343BA6A92F899
S32D0000EC40192212021343BA6A92F818221343284A934201D1012300E00023002B27D0BB6A93F823321A06BB6A17
S32D0000EC6893F822321B041343BA6A92F8212212021343BA6A92F820221A43BB6ADA60BB6A93F81F321A06BB6ADD
S32D0000EC9093F81E321B041343BA6A92F81D2212021343BA6A92F81C221A43BB6A1A61BB6A97F847201A700F4BC7
S32D0000ECB81B8801339AB20D4B1A800C4B1A88BB6ADA80BB6A00221A63BB6A00221A71BB6A00229A610023184648
S32D0000ECE04837BD4680BD00BF55AAFFFF52526141727241611817002080B582B000AF78600B467B807B68002B28
S32D0000ED0808D07B681B78002B04D07B68DB887A889A4201D0092311E07B685B78184602F007FC034603F0010335
S32D0000ED30002B14BF01230023DBB2002B01D0032300E0002318460837BD4680BD80B485B000AF03463960FB717B
S32D0000ED58FB79002B01D00B2316E0FB790D4A52F82330FB60FB68002B02D0FB6800221A703B68002B02D03B6884
S32D0000ED8000221A70FB7905493A6841F82320002318461437BD4680BC704700BF1417002080B592B000AFF8608F
S32D0000EDA8B9601346FB71FB6800221A60FB7903F01F03FB71FB7923F00103DAB207F11C0107F108031846FFF7E8
S32D0000EDD0F9FC034687F8473007F110037B6397F84730002B09D1BA6807F11C0311461846FFF7E6FB034687F860
S32D0000EDF847303B6B3B6497F84730002B05D13B6C002B02D1062387F84730FB7903F01C03002B00F0B18097F805
S32D0000EE204730002B12D097F84730042B07D107F11C031846FFF772FA034687F84730FB7943F00803FB713B6B59
S32D0000EE483B6412E03B6C0B331B7803F01103002B03D0072387F8473007E0FB7903F00403002B02D0082387F872
S32D0000EE70473097F84730002B40F0A080FB7903F00803002B00F09A800023FB633B6C0E33FA6BD2B21A70FB6B93
S32D0000EE989BB21B0A9AB23B6C0F33D2B21A70FB6B1A0C3B6C1033D2B21A70FB6B1A0E3B6C1133D2B21A703B6CE5
S32D0000EEC00B3300221A703B6C1C3300221A703B6C1D3300221A703B6C1E3300221A703B6C1F3300221A703B6C05
S32D0000EEE815331B781B021AB23B6C14331B781BB213431BB29BB21B043A6C1B321278120211B23A6C1A3212788B
S32D0000EF1012B20A4312B292B21343BB633B6C1A3300221A703B6C1B3300221A703B6C143300221A703B6C15337C
S32D0000EF3800221A70FB6901221A71BB6B002B39D0FB691B6BFB63FB69B96B1846FEF72FFF034687F8473097F874
S32D0000EF604730002B2AD1FB69BA6B013ADA60FB69F96B1846FEF729FC034687F847301DE097F84730002B19D151
S32D0000EF883B6C0B331B7803F01003002B03D0042387F847300EE0FB7903F00203002B09D03B6C0B331B7803F0F9
S32D0000EFB00103002B02D0072387F8473097F84730002B0FD1FB7903F00803002B03D0FB7943F02003FB71FB69F7
S32D0000EFD81A6BFB68DA61FB683A6C1A6297F84730002B42D1FB68FA799A713B6C15331B781B021AB23B6C1433E5
S32D0000F0001B781BB213431BB29BB21B043A6C1B321278120211B23A6C1A32127812B20A4312B292B21A43FB684A
S32D0000F0281A613B6C1F331B781A063B6C1E331B781B0413433A6C1D321278120213433A6C1C3212781A43FB686C
S32D0000F050DA60FB6800229A60FB6800229A61FB6800225A62FA69FB681A60FB69DA88FB689A8097F84730184631
S32D0000F0784837BD4680BD80B58AB000AFF860B9607A603B60BB68BB613B6800221A60FB681A68FB689B8819465F
S32D0000F0A01046FFF729FE0346FB75FB7D002B01D0FB7D7EE1FB689B795BB2002B01DA022377E1FB689B7903F05A
S32D0000F0C80203002B01D107236FE1FB68DA687B681A44FB68DB689A4201D200237B607B68002B00F05081FB6833
S32D0000F0F09B68C3F30803002B40F01381FB689B685B0ADAB2FB681B689B78013BDBB21340BB75BB7D002B49D126
S32D0000F118FB689B68002B10D1FB681B697B627B6A002B1FD1FB681B6800211846FEF78DFE7862FB687A6A1A6112
S32D0000F14014E0FB685B6A002B07D0FB689B681946F868FEF707FF786208E0FB681A68FB685B6919461046FEF7EB
S32D0000F16874FE78627B6A002B00F00C817B6A012B08D1FB689B7963F07F03DAB2FB689A71022312E17B6AB3F1CF
S32D0000F190FF3F08D1FB689B7963F07F03DAB2FB689A71012305E1FB687A6A5A61FB689B7903F04003002B22D01E
S32D0000F1B8FB681B685878FB6803F12801FB689A69012302F067F80346002B14BF01230023DBB2002B08D0FB6897
S32D0000F1E09B7963F07F03DAB2FB689A710123E0E0FB689B7923F04003DAB2FB689A71FB681A68FB685B69194608
S32D0000F2081046FEF7E8FB38613B69002B08D1FB689B7963F07F03DAB2FB689A710223C4E0BB7D3A6913443B618C
S32D0000F2307B685B0AFB61FB69002B49D0BA7DFB691344FA6812689278934206D9FB681B689B781A46BB7DD31A5A
S32D0000F258FB61FB681B685878FB69DBB23A69B96902F018F80346002B14BF01230023DBB2002B08D0FB689B7929
S32D0000F28063F07F03DAB2FB689A71012391E0FB689A693B69D31AFA699A4215D9FB6803F12800FB689A693B694F
S32D0000F2A8D31A5B02BA6913444FF400721946FEF703FAFB689B7923F04003DAB2FB689A71FB695B023B6248E021
S32D0000F2D0FB689B693A699A4220D0FB689A68FB68DB689A420ED2FB681B685878FB6803F1280101233A6901F085
S32D0000F2F8EDFE0346002B01D0012300E00023002B08D0FB689B7963F07F03DAB2FB689A7101234AE0FB683A69F4
S32D0000F3209A61FB689B68C3F30803C3F500733B623A6A7B689A4201D97B683B62FB689B68C3F308032833FA6834
S32D0000F34813443A6AB9691846FEF7B6F9FB689B7943F04003DAB2FB689A71BA693B6A1344BB61FB689A683B6A4C
S32D0000F3701A44FB689A603B681A683B6A1A443B681A607A683B6AD31A7B60ACE600BFFB689A68FB68DB689A42E8
S32D0000F39803D9FB689A68FB68DA60FB689B7943F02003DAB2FB689A71002318462837BD4680BD80B586B000AF68
S32D0000F3C078607B681A687B689B8819461046FFF793FC0346FB75FB7D002B40F0AC807B689B7903F02003002BB2
S32D0000F3E800F0A5807B689B7903F04003002B1BD07B681B6858787B6803F128017B689A69012301F047FF0346DF
S32D0000F410002B14BF01230023DBB2002B01D001238AE07B689B7923F04003DAB27B689A717B681A687B68DB691F
S32D0000F43819461046FEF7C5F90346FB75FB7D002B75D17B681B6A3B613B690B331A783B690B3342F02002D2B26A
S32D0000F4601A707B68DA683B691C33D2B21A707B68DB689BB21B0A9AB23B691D33D2B21A707B68DB681A0C3B69F8
S32D0000F4881E33D2B21A707B68DB681A0E3B691F33D2B21A707B681A693B691A33D2B21A707B681B699BB21B0A67
S32D0000F4B09AB23B691B33D2B21A707B681B691A0C3B691433D2B21A707B681B691B0C9BB21B0A9AB23B69153324
S32D0000F4D8D2B21A700023FB603B691633FA68D2B21A70FB689BB21B0A9AB23B691733D2B21A70FB681A0C3B69D3
S32D0000F5001833D2B21A70FB681A0E3B691933D2B21A707B689B7923F02003DAB27B689A717B681B6801221A7140
S32D0000F5287B681B681846FEF7B0F90346FB75FB7D18461837BD4680BD80B584B000AF78607868FFF736FF0346F1
S32D0000F550FB73FB7B002B02D17B6800221A60FB7B18461037BD4680BD80B590B000AF786039607B681A687B68F4
S32D0000F5789B8819461046FFF7BBFB034687F83F3097F83F30002B02D097F83F3043E27B689B795BB2002B01DA82
S32D0000F5A002233CE27B685B6A002B00F0F8803B68B3F1FF3F66D17B685B6AFB62FB6A1A1DFA621B687B61022382
S32D0000F5C83B637B681B69BB63BB6B002B46D0BB6B3B6100237B633B6B02333B63BB6BFB607B6B01337B637B68F3
S32D0000F5F01B68B96B1846FEF710FAB863BB6B012B08D87B689B7963F07F03DAB27B689A71022304E2BB6BB3F181
S32D0000F618FF3F08D17B689B7963F07F03DAB27B689A710123F7E1FB680133BA6B9A4200D1D4E73A6B7B699A42E2
S32D0000F64009D8FB6A1A1DFA627A6B1A60FB6A1A1DFA623A691A607B681B68DB69BA6B9A4200D2B8E77B685B6A8B
S32D0000F6683A6B1A603A6B7B699A4203D8FB6A00221A60CEE1112387F83F30CAE17B68DB683A689A4202D97B6836
S32D0000F690DB683B607B683A689A603B68002B00F0BC813B68013B19467868FEF75BFC02467B685A617B681A683F
S32D0000F6B87B685B6919461046FEF78DF9B861BB69002B08D17B689B7963F07F03DAB27B689A7102239FE13B687E
S32D0000F6E0013B5B0A7A6812689278013A1340BA691344BB617B689B68C3F30803002B00F08C817B689B69BA69F8
S32D0000F7089A4200F086817B689B7903F04003002B22D07B681B6858787B6803F128017B689A69012301F0B6FDD2
S32D0000F7300346002B14BF01230023DBB2002B08D07B689B7963F07F03DAB27B689A71012365E17B689B7923F0D3
S32D0000F7584003DAB27B689A717B681B6858787B6803F128010123BA6901F0B0FC0346002B14BF01230023DBB291
S32D0000F780002B08D07B689B7963F07F03DAB27B689A71012343E17B68BA699A613DE17B68DB683A689A4208D926
S32D0000F7A87B689B7903F00203002B02D17B68DB683B607B689B683B6200237B627B687A6A9A603B68002B00F083
S32D0000F7D0C1807B681B689B785B02FB613B6A002B1BD03B685A1EFB69B2FBF3F23B6A591EFB69B1FBF3F39A42DE
S32D0000F7F80FD33B6A5A1EFB695B421A407B689A607B689B683A68D31A3B607B685B69BB622BE07B681B69BB6249
S32D0000F820BB6A002B22D17B681B6800211846FEF710FBB862BB6A012B08D17B689B7963F07F03DAB27B689A7108
S32D0000F8480223E8E0BB6AB3F1FF3F08D17B689B7963F07F03DAB27B689A710123DBE07B68BA6A1A617B68BA6A17
S32D0000F8705A61BB6A002B6DD03A68FB699A4246D97B689B7903F00203002B0CD07B681B68B96A1846FEF7DDFA78
S32D0000F898B862BB6A002B09D1FB693B6033E07B681B68B96A1846FEF7B4F8B862BB6AB3F1FF3F08D17B689B7973
S32D0000F8C063F07F03DAB27B689A710123A7E0BB6A012B05D97B681B68DB69BA6A9A4208D37B689B7963F07F03A0
S32D0000F8E8DAB27B689A71022395E07B68BA6A5A617B689A68FB691A447B689A603A68FB69D31A3B60B4E77B688C
S32D0000F9109A683B681A447B689A603B68C3F30803002B17D07B681B68B96A1846FEF757F878627B6A002B08D185
S32D0000F9387B689B7963F07F03DAB27B689A71022369E03B685B0A7A6A13447B627B689B68C3F30803002B4BD0E0
S32D0000F9607B689B697A6A9A4246D07B689B7903F04003002B22D07B681B6858787B6803F128017B689A69012332
S32D0000F98801F088FC0346002B14BF01230023DBB2002B08D07B689B7963F07F03DAB27B689A71012337E07B685A
S32D0000F9B09B7923F04003DAB27B689A717B681B6858787B6803F1280101237A6A01F082FB0346002B14BF01232E
S32D0000F9D80023DBB2002B08D07B689B7963F07F03DAB27B689A71012315E07B687A6A9A617B689A687B68DB6822
S32D0000FA009A420AD97B689A687B68DA607B689B7943F02003DAB27B689A7197F83F3018464037BD4680BD80B508
S32D0000FA2886B000AF03463960FB71FB793B7301237B6107F1100307F10C017A693868FFF71AFB3B697A699A425A
S32D0000FA5001D1012301E04FF0FF3318461837BD4680BD80B584B000AF786039600023FB607B681B78002B18D0C3
S32D0000FA787B681B7839681846FFF7D1FF0346B3F1FF3F0CBF01230023DBB2002B02D04FF0FF3307E07B680133EF
S32D0000FAA07B60FB680133FB60E2E7FB6818461037BD4680BD80B485B000AF786039600123FB600023BB600023F1
S32D0000FAC8BB60BA683B689A4208DAFB687A6802FB03F3FB60BB680133BB60F2E7FB6818461437BD4680BC704792
S32D0000FAF0B0B59AB000AF78613961FA600023BB64BB6C7B647B6CB3F1FF3F00F0F5823B695A1C3A611B7887F87E
S32D0000FB184F3097F84F30002B00F0E78297F84F30252B0ED097F84F3079691846FFF777FF78647B6CB3F1FF3F13
S32D0000FB4000F0CD8201237B64C9E2002387F867300023BB653B695A1C3A611B7887F84F3097F84F30302B09D1A5
S32D0000FB68012387F867303B695A1C3A611B7887F84F300CE097F84F302D2B08D1022387F867303B695A1C3A61D4
S32D0000FB901B7887F84F3097F84F302E2B05D13B695A1C3A611B7887F84F3097F84F302F2B15D997F84F30392B6B
S32D0000FBB811D8BA6D13469B0013445B001A4697F84F301344303BBB653B695A1C3A611B7887F84F30E5E797F878
S32D0000FBE04F306C2B03D097F84F304C2B0BD197F8673043F0040387F867303B695A1C3A611B7887F84F3097F862
S32D0000FC084F30002B00F0738297F84F3087F84E3097F84E30602B08D997F84E307A2B04D897F84E30203B87F846
S32D0000FC304E3097F84E30423B162B00F2788101A252F823F00FFF0000F9FE00001FFF00002FFF000049FD0000DB
S32D0000FC582FFF00002FFF00002FFF00002FFF00002FFF00002FFF00002FFF00002FFF000017FF00002FFF0000CA
S32D0000FC802FFF00002FFF0000A1FC00002FFF00001FFF00002FFF00002FFF000027FF0000FB681A1DFA601B6818
S32D0000FCA8FB620023FB65FA6AFB6D13441B78002B03D0FB6D0133FB65F5E70023BB6497F8673003F00203002B37
S32D0000FCD007D1FB6D5A1CFA65BA6D9A4201D9012300E00023002B09D079692020FFF79BFE78647B6CBA6C1344F8
S32D0000FCF8BB64E4E77969F86AFFF7AFFE78647B6CBA6C1344BB64FB6D5A1CFA65BA6D9A428CBF01230023DBB24F
S32D0000FD20002B09D079692020FFF77DFE78647B6CBA6C1344BB64EAE77B6CB3F1FF3F00F0D081BB6C7B64CCE131
S32D0000FD48FB68073323F0070303F10802FA60D3E90023C7E90E23D7E90E23C7E90C2300237B654FF000024FF068
S32D0000FD700003D7E90E010BF039FE0346002B18D079692D20FFF74FFE78647B6CBA6C1344BB64BC6BFB6B83F034
S32D0000FD980045C7E90E453B6B3B607B6B83F000437B60D7E90023C7E90C23D7E90C010BF041FE0346002B0ED022
S32D0000FDC04FF00002AB4BD7E90C010BF0C7FC02460B46C7E90C237B6D01337B65E9E77B6D013BFB65FB6DB3F17F
S32D0000FDE8FF3F35D0FB6D19460A20FFF75FFE034618460BF01BFB02460B46D7E90E010BF0A9FC02460B461046B7
S32D0000FE1019460BF013FE0346BB62BA6A964B83FB02139910D317C91A0B469B000B445B00D31ABB62BB6A3033BD
S32D0000FE38BB62BB6ADBB279691846FFF7F0FD78647B6CBA6C1344BB64FB6D013BFB65C5E779692E20FFF7E3FD95
S32D0000FE6078647B6CBA6C1344BB64BB6D002B01D10323BB6501233B663A6EBB6D9A4233D83B6E19460A20FFF706
S32D0000FE8815FE034618460BF0D1FAD7E90E230BF037FB02460B46104619460BF0CBFD0346BB62BA6A724B83FBD8
S32D0000FEB002139910D317C91A0B469B000B445B00D31ABB62BB6A3033BB62BB6ADBB279691846FFF7A8FD7864EB
S32D0000FED87B6CBA6C1344BB643B6E01333B66C7E77B6CB3F1FF3F00F0FA80BB6C7B64F6E0FB681A1DFA601B68C7
S32D0000FF00DBB279691846FFF78EFD7864ECE0022387F8663013E0082387F866300FE00A2387F866300BE0102321
S32D0000FF2887F8663007E097F84F3079691846FFF776FD7864D4E097F8673003F00403002B04D0FB681A1DFA6055
S32D0000FF501B680CE097F84E30442B04D1FB681A1DFA601B6803E0FB681A1DFA601B683B6597F84E30442B0BD1FA
S32D0000FF783B6D002B08DA3B6D5B423B6597F8673043F0080387F8673000233B6697F866203B6DB3FBF2F101FB39
S32D0000FFA002F29B1A87F84E3097F866303A6DB2FBF3F33B6597F84E30092B0BD997F84F30782B01D1272200E0BD
S32D0000FFC8072297F84E30134487F84E303B6E5A1C3A6697F84E203032D2B2603307F108010B4403F8502C3B6DDD
S32D0000FFF0002B03D03B6E0F2B00D8CBE797F8673003F00803002B09D03B6E5A1C3A66603307F1080213442D2256
S32D0001001803F8502C3B6EFB6597F8673003F00103002B01D0302300E0202387F84E300023BB6497F8673003F052
S32D000100400203002B07D1FB6D5A1CFA65BA6D9A4201D9012300E00023002B0FD097F84E3079691846FFF7DFFC20
S32D0001006878647B6CBA6C1344BB64E2E700002440676666663B6E013B3B6607F118023B6E13441B7879691846D9
S32D00010090FFF7C9FC78647B6CBA6C1344BB643B6E002B00D0EAE7FB6D5A1CFA65BA6D9A428CBF01230023DBB253
S32D000100B8002B09D079692020FFF7B1FC78647B6CBA6C1344BB64EAE77B6CB3F1FF3F07D0BB6C7B6404E000BFD7
S32D000100E002E000BF00E000BFBA6C7B6C1344BB6408E500BF00E000BF7B6CB3F1FF3F01D17B6C00E0BB6C1846FC
S32D000101086837BD46B0BD00BF80B588B000AF7860396080233B610F23FB604FF0FF337B610223FB61FB69B3F5C7
S32D00010130807F23D80123BB61BB69102B1AD8FB69BA6902FB03F33A6803FB02F27B68D31ABB60BB68002B09DBEA
S32D00010158BB687A699A4205D9BB687B61FB693B61BB69FB60BB690133BB61E1E7FB695B00FB61D7E71D4BDB6A78
S32D000101801C4A23F00803D3621A4BDB6A23F47F2323F47F63BB613B695B081B029AB2FB68013B1B01DBB21A430A
S32D000101A8BB691343114A43F46023D3620F4B5B6A03F00803002B0CBF01230023DBB2002B03D00A2001F0DCFA8E
S32D000101D0F0E7084BDB6A074A43F00803D362054B1B6B044A43F48013136300BF2037BD4680BD00BF00100B40F9
S32D000101F880B582B000AF786039607B6800221A60414B424ADA62404BDB6A03F08073002B14BF01230023DBB2F6
S32D00010220002B00D0F3E73A4B0022C3F8C020384B4FF481325A60364B28229A62344B4FF001125A643B689B6869
S32D0001024833491846FFF760FF2F4B5B6A03F00303002B14BF01230023DBB2002B00D0F3E72C4B40F243421A60D1
S32D000102702A4B40F243425A60284B4FF488629A60264B40F24342DA60244B40F243421A61224B40F243425A61FD
S32D00010298214B03F580531B6B1F4A43F4003302F580521363184B4FF6FF721A63164B1B4A5A63154BDB6A144A4C
S32D000102C043F00063D362124BDB6A03F00063002B14BF01230023DBB2002B00D0F3E70C4B5B6A03F48033002BB4
S32D000102E814BF01230023DBB2002B02D07B6801221A60054B1B6B044A43F080031363002318460837BD4680BD73
S32D0001031000100B400080000160CC050000D0044000700440B3007F0080B400AF064B5A6A40F207331340002BD5
S32D0001033814BF01230023DBB21846BD4680BC704700100B4080B485B000AF7860074B1B6B7A681340FB60FB6885
S32D00010360002B00D1F6E7FB6818461437BD4680BC704700BF00100B4080B584B000AF78607B681B7803F03F03DE
S32D00010388764A52F82330FB60FB68002B05D17B681B78002B01D00123DCE0714B1B6B704A43F0800313636E4BF7
S32D000103B05B6A03F00103002B14BF01230023DBB2002B00D0F3E7684A7B685B689360FB6823F44003FB607B6875
S32D000103D85B789B0503F44003FA681343FB607B685B78022B03D1FB6843F40013FB607B685B78042B16D1FB6848
S32D0001040003F44033B3F5003F08D1FB6823F44033FB60FB6843F44033FB6007E0FB6823F44033FB60FB6843F42A
S32D000104280033FB604E4B5B684D4A9BB253607B68DB68002B2AD0FB6803F44033B3F5403F03D0FB6843F4001365
S32D00010450FB607B681B7A002B03D0FB6843F01003FB607B68DB68012B03D9FB6843F02003FB607B68DB68B3F19C
S32D00010478FF3F0BD03A4B5A687B68DB681B04384913434B60FB6843F00203FB60344B00221A60334AFB68D3600A
S32D000104A03248FFF753FF0346012B14BF01230023DBB2002B09D02C4B1B6B2B4A43F4702343F00103136301233E
S32D000104C848E0274B1B6B03F08003002B14BF01230023DBB2002B07D0214B1B6B204A43F001131363012335E049
S32D000104F01D4B1B6B03F48033002B14BF01230023DBB2002B08D0184B1B6B174A43F0011313634FF0FF3321E0F7
S32D00010518FB6803F44033002B15D0114B1A697B681A61FB6803F44033B3F5803F0BD10C4B5A697B685A610A4B7D
S32D000105409A697B689A61084BDA697B68DA61064B1B6B054A43F001031363002318461037BD4680BD40380200A2
S32D0001056800100B4001000E0080B592B000AF7860396000237B643B68BB63994B7B637B6B002B02D140F60123A0
S32D000105905FE3964B3B633B6B002B02D140F60B2357E33B6B1B68FB62FB6A002B02D140F60B234EE37B6841F2A5
S32D000105B80932934200F23F837B68B3F5985F08D87B68032B00F01A837B68092B00F0098331E37B68A3F5985343
S32D000105E0013B082B00F22B8301A252F823F000BF15060100010901005D0B010017090100550901007B0A010088
S32D00010608C30A0100050A01001F0A01007649786BFFF7EEFD78647B6C002B40F01083002387F84330002387F8D0
S32D000106302B30002387F82A30002387F82930002387F84230002387F8283000233B7200237B720023FB600023BA
S32D000106583B7400237B6107F108031846FFF788FE0346002B14BF01230023DBB2002B02D001237B64E8E240F2D1
S32D000106804C4001F081F808233B7200237B724FF4D573FB6000233B7400237B6107F108031846FFF769FEF8639D
S32D000106A8FB6B002B09D1BA69FB689A4202D001237B64C9E2012387F84230012387F8283097F82830002B00F0C4
S32D000106D0A58037233B7200237B720023FB6000233B7400237B6107F108031846FFF744FEF863FB6B002B02D019
S32D000106F801237B64A8E269233B7200237B720023FB6000233B7400237B6107F108031846FFF72EFE0346002BB7
S32D0001072014BF01230023DBB2002B02D001237B648EE2BB6903F44013002B6FD00023FB630A2001F021F8FB6BA0
S32D000107480133FB6337233B7200237B720023FB6000233B7400237B6107F108031846FFF707FE0346002B14BFE7
S32D0001077001230023DBB2002B02D001237B6428E069233B7200237B7297F84230002B02D0184BFB6002E04FF454
S32D000107984013FB6000233B7400237B6107F108031846FFF7E5FD0346002B14BF01230023DBB2002B02D001233E
S32D000107C07B6406E0BB69002B03DBFB6B632B00D8B6E77B6C002B40F03882FB6B632B0BD9002387F8423019E0CE
S32D000107E834170020381900203438020000003040012387F8433097F84230002B0AD0002387F84230BB6903F0E1
S32D000108108043002B02D0012387F8423097F82A30002B02D07B6B07221A6097F82930002B02D07B6B08221A6006
S32D0001083897F82B30002B02D07B6B04221A6097F84330002B09D07B6B02221A6097F84230002B02D07B6B032291
S32D000108601A6097F82B30002B0DD097F84330002B09D07B6B05221A6097F84230002B02D07B6B06221A60924B0D
S32D0001088800221A60904B00225A608F4B00229A608D4B0022DA608C4B00221A618A4B00225A61FB6A9A68FB6AD2
S32D000108B05B6819461046FFF72BFC854B40F243421A60834B40F243425A60814B4FF488629A607F4B40F24342D0
S32D000108D8DA607D4B40F243421A617B4B40F243425A617A4B03F580531B6B784A43F4003302F580521363A7E17C
S32D00010900B86BFFF739FDF863FB6B002B00F09F8102237B649BE1BB6B002B02D10C237B6496E16D4BDB6A1B0A32
S32D000109285B0003F4FF73FB63694BDB6A1B0903F00F035A1CFB6B02FB03F3FB63FB6A9A68FB6BB2FBF3F2BB6BAA
S32D000109501A607DE1BB6B002B02D10C237B6477E1BB6B1B68002B02D10C237B6470E1FFF7DBFC0346002B0CBF04
S32D0001097801230023DBB2002B3CD0534B00221A60514B00225A60504B00229A604E4B0022DA604D4B00221A61B2
S32D000109A04B4B00225A61FB6A9A68BB6B1B6819461046FFF7ADFB464B40F243421A60444B40F243425A60424B03
S32D000109C84FF488629A60404B40F24342DA603E4B40F243421A613C4B40F243425A613B4B03F580531B6B394A4F
S32D000109F043F4003302F58052136329E140F60A237B6425E1BB6B002B02D10C237B641FE1314B5B68C3F30C02A8
S32D00010A18BB6B1A6018E1BB6B002B02D10C237B6412E1FFF77DFC0346002B0CBF01230023DBB2002B19D0BB6B35
S32D00010A401B68B3F5805F02D30C237B6400E1224B5B68214A23F4FF5323F01F0353601E4B5A68BB6B1B68C3F343
S32D00010A680C031B4913434B60EEE040F60A237B64EAE0BB6B002B02D10C237B64E4E0144B9B6A5B0803F003035B
S32D00010A90FB63FB6B002B03D1BB6B00221A60D7E0FB6B012B03D1BB6B01221A60D0E0FB6B102B03D1BB6B022263
S32D00010AB81A60C9E005237B64C6E0BB6B002B09D10C237B64C0E000BF00D004400070044000100B40FFF724FC6E
S32D00010AE00346002B0CBF01230023DBB2002B31D0BB6B1B68002B0AD1584B9B6A574A23F006039362554B554A60
S32D00010B089B6A9362A0E0BB6B1B68012B0CD1514B9B6A504A23F0060393624E4B9B6A4D4A43F0020393628FE075
S32D00010B30BB6B1B68022B0AD1484B9B6A474A23F006039362454B454A9B6A936280E005237B647DE040F60A236B
S32D00010B587B6479E0BB6B002B02D10C237B6473E03C4BDB6A3B4A43F00063D362394BDB6A03F00063002B14BF78
S32D00010B8001230023DBB2002B00D0F3E7334B1B6B03F08003002B14BF01230023DBB2002B08D02E4B1B6B2D4AD8
S32D00010BA843F0800313637B6B00221A60294B5B6A03F48033002B14BF01230023DBB2002B07D07B6B1B68002B25
S32D00010BD006D17B6B01221A6002E07B6B00221A607B6B1A68BB6B1A6032E0BB6B1C221A60BB6B043304221A6043
S32D00010BF8BB6B08334FF41E721A6025E00220FFF7A1FB144B1B6B03F4E003002B14BF01230023DBB2002B07D0D4
S32D00010C200E4B1B6B0D4A43F4E003136304237B640A4B1B6B094A43F03203136308E040F609237B6404E000BF01
S32D00010C4802E000BF00E000BF7B6C18464837BD4680BD00BF00100B4080B590B000AF0346FB71A64BFB63A64B06
S32D00010C70BB63BB6BA54A1A60FB79002B01D00123A9E1A34B1B78DBB203F00203002B14BF01230023DBB2002B87
S32D00010C9803D09D4B1B78DBB299E19B4B1B78DBB203F00303002B0CBF01230023DBB2002B01D000238BE1BB6B5E
S32D00010CC0002B03D0BB6B1B68002B01D1002382E1FB6B904A1A60FB6B01225A60BB6B00225A60BB6B00229A609A
S32D00010CE8BB6B00221A61BB6B00221A73BB6B00225A73874B03F580531B6B854A43F4003302F580521363002174
S32D00010D1041F20130FFF72CFC0346002B14BF01230023DBB2002B01D0002354E10023BB6207F12803194641F2CE
S32D00010D380330FFF719FC0346002B14BF01230023DBB2002B01D0002341E1BB6A022B08D0BB6A032B05D0BB6A7B
S32D00010D60052B02D0BB6A062B09D1BB6A032B02D0BB6A062B05D1BB6B01221A7301E0002329E100BF02233B726C
S32D00010D8800237B720023FB6000233B7400237B6107F10803194641F20230FFF7E5FB0346002B14BF01230023B2
S32D00010DB0DBB2002B01D000230DE103233B7200237B720023FB6000233B7400237B6107F10803194641F2023081
S32D00010DD8FFF7CAFB0346002B14BF01230023DBB2002B01D00023F2E0BB691B0C1B04BA6B136109233B72002326
S32D00010E007B72BB6B1B69FB6000233B7400237B6107F10803194641F20230FFF7A9FB0346002B14BF0123002311
S32D00010E28DBB2002B01D00023D1E07B6A03F44003002B1ED13B6A1B0A03F00F033B633B6A03F003037B637B6B36
S32D00010E509A02FB699B0D13437B63FB69DB0903F00703FB627B6B5A1CFB6A02339A403B6B093B9A40BB6B9A6041
S32D00010E780CE0BB6B01225A73FB691B0AC3F315037B637B6B01339A02BB6B9A6007233B7200237B72BB6B1B69AD
S32D00010EA0FB6000233B7400237B6107F10803194641F20230FFF75CFB0346002B14BF01230023DBB2002B01D0CC
S32D00010EC8002384E010233B7200237B724FF40073FB6000233B7400237B6107F10803194641F20230FFF740FBAA
S32D00010EF00346002B14BF01230023DBB2002B0DD0002368E0381900201C1700203017002000000020343802008C
S32D00010F1800700440BB6B1B681B68012B49D137233B7200237B72BB6B1B69FB6000233B7400237B6107F1080394
S32D00010F40194641F20230FFF713FB0346002B14BF01230023DBB2002B01D000233BE046233B7200237B7202231A
S32D00010F68FB6000233B7400237B6107F10803194641F20230FFF7F8FA0346002B14BF01230023DBB2002B01D068
S32D00010F90002320E00123BB6207F12803194641F20730FFF7E5FA0346002B14BF01230023DBB2002B01D00023D3
S32D00010FB80DE0094B1B78DBB223F00103DAB2064B1A70054B1B78DBB203F00303DBB218464037BD4680BD00BF61
S32D00010FE00000002080B489B000AF786039607B687B61364B3B613B69002B01D100235FE03B691B68022B0BD027
S32D000110083B691B68032B07D03B691B68072B03D03B691B68082B0BD12B4B5B6A03F00403002B14BF01230023B1
S32D00011030DBB2002B00D0F3E73B68FB61FB69002B3DD0FB69B3F5007F28BF4FF40073FB60FB6803339B08BB61B9
S32D00011058BB69002B2AD01C4B1B6B03F4E003002B14BF01230023DBB2002B09D0164B1B6B154A43F4E00343F0F0
S32D000110802003136300231BE0114B5B6A03F40063002B0CBF01230023DBB2002B00D0F3E70B497B691A1D7A6126
S32D000110A80A6A1A60BB69013BBB61D1E7FA69FB68D31AFB61BEE7012318462437BD4680BC704700BF3417002046
S32D000110D000100B4080B58EB000AFB9607A601A460346FB731346BB73414B7B63FB7B002B02D1BB7B002B01D1D2
S32D000110F8042375E03D4B1B78DBB203F00103002B14BF01230023DBB2002B01D0032367E0BB68002B01D1002330
S32D0001112062E07B6B1B7B002B02D17B685B027B60BB7B012B28D111233B7500237B757B68BB6101233B77BB7B6C
S32D000111483B6207F11403194641F20230FFF70CFA0346002B0CBF01230023DBB2002B38D04FF40071B868FFF7FC
S32D0001117039FF0346002B14BF01230023DBB2002B2BD00023BB7328E012233B7500237B757B68BB6101233B77B1
S32D00011198BB7B3B6207F11403194641F20230FFF7E3F90346002B0CBF01230023DBB2002B0FD0BB7B5B021946A1
S32D000111C0B868FFF70FFF0346002B14BF01230023DBB2002B01D00023BB73BB7B002B01D0012300E0002300BF5C
S32D000111E818463837BD4680BD1C1700200000002080B487B000AF786039607B68FB603B687B617B69002B3DD0F4
S32D000112107B69B3F5007F28BF4FF400733B617A693B69D31A7B613B6903339B083B613B69002BEAD0184B1B6B90
S32D0001123803F4E003002B14BF01230023DBB2002B0AD0134B1B6B124A43F4E00343F0100313634FF0FF3316E059
S32D000112600D4B5B6A03F48063002B0CBF01230023DBB2002B00D0F3E7FB681A1DFA60064A1B6813623B69013BAD
S32D000112883B61D0E7012318461C37BD4680BC704700100B4080B58EB000AFB9607A601A460346FB731346BB730B
S32D000112B05D4B7B63FB7B002B02D1BB7B002B01D10423ADE0594B1B78DBB203F00103002B14BF01230023DBB2A1
S32D000112D8002B01D003239FE0524B1B78DBB203F00403002B14BF01230023DBB2002B01D0022391E0BB68002BDD
S32D0001130001D100238CE07B6B1B7B002B02D17B685B027B60BB7B012B28D118233B7500237B757B68BB6100234D
S32D000113283B77BB7B3B6207F11403194641F20230FFF71AF90346002B0CBF01230023DBB2002B38D04FF400713B
S32D00011350B868FFF751FF0346002B14BF01230023DBB2002B2BD00023BB7328E019233B7500237B757B68BB6170
S32D0001137800233B77BB7B3B6207F11403194641F20230FFF7F1F80346002B0CBF01230023DBB2002B0FD0BB7B99
S32D000113A05B021946B868FFF727FF0346002B14BF01230023DBB2002B01D00023BB730D233B7500237B757B6BE5
S32D000113C81B69BB6100233B7700233B6207F11403194641F20230FFF7C7F80346002B14BF01230023DBB2002BF3
S32D000113F001D0012314E07A6A0D4B1340002B01D001230DE07B6A03F4F853B3F5106F00D0D5E7BB7B002B01D03D
S32D00011418012300E0002300BF18463837BD4680BD1C170020000000200880D9FF80B58CB000AF03463A60FB7170
S32D000114400B46BB713A4BBB62FB79002B01D0042369E0012387F82F30364B1B78DBB203F00103002B14BF0123C2
S32D000114680023DBB2002B01D0032358E0BB79032B50D801A252F823F09114010099140100A9140100B9140100E1
S32D00011490002387F82F3044E0BB6A9A683B681A60002387F82F303CE03B684FF400721A80002387F82F3034E0A0
S32D000114B809233B7200237B72BB6A1B69FB6000233B7400237B6107F10803194641F20230FFF74AF80346002BD4
S32D000114E014BF01230023DBB2002B01D001231AE07B6A03F44003002B0CD13B6A9B0C03F07F035A1C7B6A1B0AB4
S32D0001150803F00303013B9A403B681A60002387F82F3002E0042387F82F3097F82F3018463037BD4680BD00BFEE
S32D000115301C1700200000002080B483B000AF0346FB71FB79002B01D0012302E0034B1B78DBB218460C37BD46C6
S32D0001155880BC70470000002080B483B000AF7860164B03F580539B6B144A43F0010302F580529363124A7B689E
S32D000115809360114B05225A600F4B1B680E4A43F0010313600C4B1B6803F08003002B0CBF01230023DBB2002BE8
S32D000115A800D0F3E7064B1B68054A23F00103136000BF0C37BD4680BC704700BF007004400000044080B582B0A7
S32D000115D000AF786039607B68012B07D13B684FF6FF72934202D1034800F00EF800BF0837BD4680BD40190020EC
S32D000115F880B500AF4FF6FF710120FFF7E3FF80BD80B483B000AF78607B6800221A707B6818460C37BD4680BCB5
S32D000116207047000080B582B000AF78607B681B7883F00103DBB2002B21D0134B03F580531A464FF4006393623C
S32D00011648104B4FF440721A620E4B4FF440725A620D4B1B68DA0F13445B104FF4614219460A48FBF73DFF6420CE
S32D0001167000F08AF87B6801221A70012300E0002318460837BD4680BD0070044000D004404419002000B00E4002
S32D0001169880B582B000AF7860084611461A460346FB700B46BB7013467B707F210E48FBF7EAFF08210C48FBF77C
S32D000116C0E6FFFB7819460A48FBF7E1FFBB7819460748FBF7DCFF7B7819460548FBF7D7FFFF210348FBF7D3FFDC
S32D000116E800BF0837BD4680BD00B00E4080B487B000AFF860B9607A60FB681F4AA2FB03239B09BA6813447B61AA
S32D00011710FB681B4AA2FB031292094FF47A7101FB02F29B1AFB60FB68DB03154AA2FB03239B097A6813443B618B
S32D000117383B69DB0B7A6913447B613B69C3F30E033B610E4B1B687A699A4209D80B4B1B687A699A4206D1094B9C
S32D000117605B683A699A4201D9012300E00023002B00D0EAE700BF1C37BD4680BC704700BFD34D621000D00340DF
S32D0001178880B584B000AF7860074B1B68FB60064B5B68BB607B68BA68F9681846FFF7A6FF00BF1037BD4680BD3E
S32D000117B000D0034080B584B000AFC7E900010E4B1B68FB600C4B5B68BB604FF000020B4BD7E9000109F098FEDB
S32D000117D802460B46104619460AF054F90346BA68F9681846FFF782FF00BF1037BD4680BD00D0034000408F4044
S32D00011800B0B48BB000AF224B3C1D1D460FCD0FC495E80F0084E80F0000237B627B6A072B30DC1C4BD3F8A02077
S32D000118287B6A9B0028333B4453F8243C012101FA03F31340002B14BF01230023DBB2002B18D0134A7B6A52F8B5
S32D0001185023305A1C10497B6A41F823200D4BD3F8A0207B6A9B0028333B4453F8243C012101FA03F30749134048
S32D00011878C1F8A0307B6A01337B62CBE700BF2C37BD46B0BC704700BFE839020000A0044070190020B0B489B0BC
S32D000118A000AF224B3C1D1D460FCD0FC495E8030084E803000023FB61FB69052B30DC1C4BD3F8A020FB699B0093
S32D000118C820333B4453F81C3C012101FA03F31340002B14BF01230023DBB2002B18D0FB690833124A52F82320A9
S32D000118F00132104941F823200D4BD3F8A020FB699B0020333B4453F81C3C012101FA03F307491340C1F8A0302B
S32D00011918FB690133FB61CBE700BF2437BD46B0BC704700BF083A020000B0044070190020B0B48DB000AF234B5C
S32D000119403C461D460FCD0FC40FCD0FC495E8070084E807000023FB62FB6A0A2B30DC1C4BD3F8A020FB6A9B0026
S32D0001196830333B4453F8303C012101FA03F31340002B14BF01230023DBB2002B18D0FB6A0E33124A52F82320DD
S32D000119900132104941F823200D4BD3F8A020FB6A9B0030333B4453F8303C012101FA03F307491340C1F8A03065
S32D000119B8FB6A0133FB62CBE700BF3437BD46B0BC704700BF203A02000090044070190020B0B487B000AF214BBA
S32D000119E03C461D460FCD0FC42B68236000237B617B69042B30DC1C4BD3F8A0207B699B0018333B4453F8183C36
S32D00011A08012101FA03F31340002B14BF01230023DBB2002B18D07B691933124A52F823200132104941F8232043
S32D00011A300D4BD3F8A0207B699B0018333B4453F8183C012101FA03F307491340C1F8A0307B6901337B61CBE7D7
S32D00011A5800BF1C37BD46B0BC704700BF4C3A020000D004407019002080B483B000AF78600B46FB707B68FA7824
S32D00011A801A707B6818460C37BD4680BC7047000080B586B000AF78607B681B781A463E4B53F822303B617B68C6
S32D00011AA81B781A463B4B9B5CFB733B69DBB203F01F03DAB2384B1A723B69DBB203F01F03DAB2354B5A72354BB2
S32D00011AD01022C3F88820FB7B002B13D13049324800F05AFA304B1B6803F08003802B14BF01230023DBB2002BA5
S32D00011AF800D0F3E72A4B1B697B6112E02649294800F046FA274B1B6803F08003802B14BF01230023DBB2002B56
S32D00011B2000D0F3E7214B1B697B611E4BD3F888311C4A43F01003C2F888311A4B9B68194A43F0100393607B692C
S32D00011B489BB2184609F062FC0DA3D3E9002309F0D7FC02460B46104619460BA3D3E9002309F0F8FD02460B46AF
S32D00011B701046194609F0AAFF0346BB60BB6818461837BD4680BD00BFA4703D0AD7A30A4000000000E0FFEF408F
S32D00011B9864390200403902005019002000E100E000B0034000B00B4080B586B000AF78607B681B781A46234B96
S32D00011BC053F822303B617B681B781A46204B9B5CFB733B69DBB203F01F03DAB21D4B1A723B69DBB203F01F030B
S32D00011BE8DAB21A4B5A72FB7B002B13D11749184800F0CEF9164B1B6803F08003802B14BF01230023DBB2002B3E
S32D00011C1000D0F3E7104B1B697B6112E00D490F4800F0BAF90D4B1B6803F08003802B14BF01230023DBB2002B30
S32D00011C3800D0F3E7074B1B697B617B6918461837BD4680BD64390200403902006019002000B0034000B00B40AF
S32D00011C6098B500AF204B5C221A701F4B10225A701D4B41F234225A801B4B45F278629A80194B10229A71184B20
S32D00011C880722DA71164B4FF4C022DA60144B1F221A72134B1F225A721149124800F078F90F49114800F074F93F
S32D00011CB00F4800F0D2F80D4800F0CFF80A490C4800F06AF90849094800F066F9094A064B14460FCB84E80F00AA
S32D00011CD8064B5C221A70054B0422DA7100BF98BD5019002000B0034000B00B406019002080B500AF064B1B68E7
S32D00011D000133054A136000F03DF8044B0122C3F80C2100BF80BD00BFF41900200070034080B500AF0C4B012246
S32D00011D281A600C4800F01AF8094B0322C3F80821094BD3F88831084A43F01003C2F88831054B9B68044A43F0A8
S32D00011D501003936000BF80BD00700340A086010000E100E080B483B000AF7860044A7B68C2F8003100BF0C37BB
S32D00011D78BD4680BC704700BF0070034080B584B000AF174B1B68FB60FB68002B24D0FB685B78FB71FB689B68F2
S32D00011DA0184600F023F80346BB71BB79002B13D0FB685B68012B0FDDFB689B681B69BB60BB68002B08D0BB6868
S32D00011DC85B685A1CBB685A60BB681B69BB60F3E7FB68DB68FB60D7E700BF1037BD4680BDF019002080B584B0A3
S32D00011DF000AF78607868FFF7DBFEF8607B689B695B78FB72FB7A002B0FD17B68DB68FA689A420ADD7B689B695D
S32D00011E1801225A707B685B685A1C7B685A60012313E0FB7A012B0FD17B689B68FA689A420ADA7B689B6900224C
S32D00011E405A707B685B685A1C7B685A60012300E0002318461037BD4680BD80B485B000AF78607B681B6A23F079
S32D00011E6840027B681A627B685B6A23F00B027B685A627B685B6A43F007027B685A627B685B6A43F080027B6880
S32D00011E905A627B681B6803F08003002B0CBF01230023DBB2002B00D0F3E77B685B6A03F04003402B0CBF0123B4
S32D00011EB80023DBB2002B01D0012364E00023FB817B68DB6CFB817B689B6C9AB2FB891344FB817B685B6C9AB21F
S32D00011EE0FB891344FB817B681B6C9AB2FB891344FB817B68DB6B9AB2FB891344FB817B689B6B9AB2FB89134493
S32D00011F08FB81FB895B08FB81FB896FEA43436FEA5343FB81FA897B68DA620023FB817B68DB6EFB817B689B6E28
S32D00011F309AB2FB891344FB817B685B6E9AB2FB891344FB817B681B6E9AB2FB891344FB817B68DB6D9AB2FB8986
S32D00011F581344FB817B689B6D9AB2FB891344FB81FB895B08FB81FB896FEA43436FEA5343FB81FA897B681A63E5
S32D00011F807B685B6A23F080027B685A62002318461437BD4680BC704780B483B000AF786039603B681B781A4677
S32D00011FA87B689A603B685B781A467B68DA603B685B881A467B689A613B689B881A467B68DA613B689B791A461B
S32D00011FD07B681A623B68DB791A467B685A623B68DA687B681A653B681B7A1A467B681A603B685B7A1A467B6896
S32D00011FF85A6000BF0C37BD4680BC704780B483B000AF78607B6818460C37BD4680BC704780B582B000AF7860B2
S32D0001202039607B68012B07D13B684FF6FF72934202D10348FFF7E6FF00BF0837BD4680BDF819002080B500AF97
S32D000120484FF6FF710120FFF7E3FF80BD80B582B000AF7860B84B4FF48072DA60B74B4FF480729A64B54B4FF4A6
S32D0001207080721A64B34B4FF480725A64B14B4FF48072DA60B04B5B69AF4A43F008035361AE4B5B69AD4A43F4E0
S32D0001209880235361AB4B5B69AA4A43F480335361A84B5B69A74A43F400335361A54B1B68A44A43F0080313609E
S32D000120C0A24B5B69A14A43F0080353619E4B1B689D4A43F0080313609A4B4FF480725A62984B4FF480721A62F5
S32D000120E8954B4FF480721A61934B4FF480725A61914B4FF480729A618F4B4FF48072DA618D4B4FF480721A638B
S32D000121108B4B4FF480725A63894B4FF480729A63874B4FF48072DA63854B4FF480721A64834B4FF480725A644A
S32D00012138814B4FF480729A647F4B4FF48072DA64814B4FF480721A607F4B4FF480729A607D4B4FF48072DA6091
S32D000121607B4B4FF480721A61784B5B69774A43F440735361744B5B69734A43F47F2343F0F0035361734B5B697F
S32D00012188724A43F01D035361E221786800F012FD1D21786800F0B4FD0221786800F0B0FD0421786800F0ACFD86
S32D000121B0E021786800F002FD0121786800F0A4FD6420FFF7E1FAE021786800F0F7FC0321786800F099FD0121D8
S32D000121D8786800F0EFFC0120FFF7D2FAE621786800F0E8FC0121786800F08AFDA021786800F086FDFF217868F2
S32D0001220000F082FDB021786800F0D8FC1C21786800F07AFD0F21786800F076FD0121786800F072FD3F21786833
S32D0001222800F06EFD0021786800F06AFDEF21786800F066FD0021786800F062FDB421786800F0B8FC01217868E6
S32D0001225000F05AFD9921786800F056FD0021786800F052FD4521786800F04EFD0221786800F04AFD002178683F
S32D0001227800F046FD0021786800F042FD0021786800F03EFDB621786800F094FC0121786800F036FD0921786842
S32D000122A000F032FD0021786800F02EFD0E21786800F02AFD0221786800F026FD0021786800F022FD0021786887
S32D000122C800F01EFDBA21786800F074FC0F21786800F016FD6420FFF753FA3A21786800F069FC6021786800F006
S32D000122F00BFD2A21786800F061FC0021786800F003FD0021786800F0FFFC0121786800F0FBFC3F21786800F049
S32D00012318F7FC2B21786800F04DFC0021786800F0EFFC0021786800F0EBFC0021786800F0E7FCEF2178680BE0DB
S32D0001234000B0044000A0044080F00F4040F00F4000C00440C0F00F4000F0D6FC3621786800F02CFC0021786843
S32D0001236800F0CEFCF021786800F024FC0421786800F0C6FCB821786800F01CFC0F21786800F0BEFC0121786857
S32D0001239000F0BAFC314B1B68304A43F0080313606420FFF7F1F93621786800F007FC0021786800F0A9FCF02119
S32D000123B8786800F0FFFB0421786800F0A1FC0121786800F0BCF91E226F21786800F082F8AF225621786800F0C1
S32D000123E0DBF80021786800F0FFF9012301221C49786800F020FA2921786800F0DFFB6420FFF7C2F9BE21786894
S32D0001240800F0D8FB0E21786800F07AFCF021786800F076FC0121786800F072FC0021786800F06EFC002178685E
S32D0001243000F06AFC0F21786800F066FC786800F01DFA0121786800F0CFF90021786800F0A4F900BF0837BD4695
S32D0001245880BD00BF40F00F40603A020080B582B000AF78607B680022DA617B6801221A627B680E225A607B68DE
S32D000124801A229A607B6800225A617B6800229A617B684FF4A072DA607B68F0221A617B6800221A70786801F0F5
S32D000124A857F87B6818460837BD4680BD80B582B000AF7860064B1B78002B05D1044B01221A707868FFF7C2FD92
S32D000124D000BF0837BD4680BD401A002080B58AB002AFF860B9607A607E23009362237A68B968F86800F090FD21
S32D000124F840F24E733B610023FB61FA693B699A4240DA0023BB61214AFB6913441B781A46BB69934232DAFB69E9
S32D0001252001331C4AD35C002B06D1FF23FB75FF23BB75FF237B7512E0FB690133154AD35C012B06D1D423FB7549
S32D000125480023BB7526237B7505E0B523FB75BA23BB75B0237B757B7DBA7DF97DF86800F0C9F80246FB68DA613F
S32D00012570F86800F0F1FFF86800F02AFFBB690133BB61C4E7FB690233FB61BAE700BF2037BD4680BD0400002054
S32D0001259880B58AB002AFF860B9607A602723009395237A68B968F86800F032FD40F2E6333B610023FB61FA69C9
S32D000125C03B699A4240DA0023BB61214AFB6913441B781A46BB69934232DAFB6901331C4AD35C002B06D1FF23A4
S32D000125E8FB75FF23BB75FF237B7512E0FB690133154AD35C012B06D10023FB750023BB7500237B7505E0D42300
S32D00012610FB750023BB7526237B757B7DBA7DF97DF86800F06BF80246FB68DA61F86800F093FFF86800F0CCFE65
S32D00012638BB690133BB61C4E7FB690233FB61BAE700BF2037BD4680BD5407002080B485B000AF78600B46FB7041
S32D00012660FB78062B29D801A252F823F09126010089260100972601009F260100A7260100AD260100B52601003C
S32D000126886FF07F43FB6014E00023FB6011E04FF47F03FB600DE04FF47F43FB6009E0FF23FB6006E04FF419032C
S32D000126B0FB6002E0044BFB6000BFFB6818461437BD4680BC704700BF9999990080B584B000AF786039603B689D
S32D000126D81B0CFB733B681B0ABB733B687B737B7BBA7BF97B786800F005F8034618461037BD4680BD80B487B0B2
S32D0001270000AF7860084611461A460346FB700B46BB7013467B70FB789B08DBB27B61BB789B08DBB23B617B7839
S32D000127289B08DBB2FB607B691A033B699B011A43FB68134318461C37BD4680BC704780B582B000AF78600B46BA
S32D00012750FB70FB7819467868FFF77CFF03461946786800F004F800BF0837BD4680BD80B582B000AF7860396093
S32D0001277839687868FFF7A6FF02467B681A62786800F0E6FE786800F053FB00BF0837BD4680BD80B582B000AF49
S32D000127A078600B46FB70FB7819467868FFF752FF03461946786800F004F800BF0837BD4680BD80B582B000AFB5
S32D000127C87860396039687868FFF77CFF02467B681A62786800F0BCFE00BF0837BD4680BD80B582B000AF786022
S32D000127F00B46FB70FB7819467868FFF72BFF03461946786800F004F800BF0837BD4680BD80B582B000AF78608C
S32D00012818396039687868FFF755FF02467B68DA61786800F095FE00BF0837BD4680BD80B586B000AFF860B9609B
S32D000128407A603B6000237B617B69BA6813441B78002B0FD07B69BA6813441B783A687968F86800F073FC7B68E6
S32D000128680C337B607B6901337B61E9E700BF1837BD4680BD80B582B000AF7860FAF7E0FD67210120FAF74BFD77
S32D0001289000210220FAF747FDA0210320FAF743FD50210420FAF73FFD20210520FAF73BFD20210620FAF737FDAF
S32D000128B877210720FAF733FD00210820FAF72FFD00210920FAF72BFD00210A20FAF727FD04210B20FAF723FD87
S32D000128E07B684FF0FF32DA637B684FF0FF321A6400BF0837BD4680BD80B586B000AFF860B9607A600020FAF7B4
S32D0001290830FD0346FB75FB7D03F00203002B00F0CE80FAF743FDE020FAF7F4FC0220FEF72FFFFAF749FD012032
S32D00012930FEF72AFFFAF736FDA520FAF7E7FC0120FEF722FFFAF709FD03469BB21B02BB82FAF703FD03469AB2F9
