S01100002E2E2F50726F746575732E73313966
S32D0000C000000000205DC2000011C3000017C300001DC3000023C3000029C3000000000000000000000000000073
S32D0000C028000000002FC3000035C30000000000003BC3000041C30000D5D20000E1D20000EDD20000F9D200001A
S32D0000C05005D3000011D300001DD3000029D3000035D3000041D300004DD3000059D3000065D3000071D3000036
S32D0000C0787DD3000089D3000095D30000A1D30000ADD30000B9D30000C5D30000D1D30000DDD30000E9D300005E
S32D0000C0A0F5D3000001D400000DD4000019D4000025D4000031D400003DD4000049D4000055D4000061D400007D
S32D0000C0C86DD4000079D4000085D4000091D400009DD40000A9D40000B5D40000C1D40000CDD40000D9D40000A4
S32D0000C0F0E5D4000009190100F1D40000FDD4000009D5000015D5000021D500002DD5000039D5000045D50000C8
S32D0000C11851D500005DD5000069D5000075D5000081D500008DD5000099D50000A5D50000B1D50000BDD5000061
S32D0000C140C9D50000D5D50000E1D50000EDD5000079FA0000F9D5000005D6000011D600001DD6000029D600001C
S32D0000C16835D6000041D600004DD6000059D6000065D6000071D600007DD6000089D6000095D60000A1D600001F
S32D0000C190ADD60000B9D60000C5D60000B9F6000081F500001DF6000059D0000059F70000D1D60000DDD60000C9
S32D0000C1B8E9D600000034020000000020D8160000003402000000FF1F00000000D8160020A80400000000FF1F2A
S32D0000C1E00000000080B489B000AFF860B9607A60BB68FB61FB68BB6100237B617A697B689A420BD2BA69131DFB
S32D0000C208BB61FB69191DF96112681A607B6904337B61EFE700BF2437BD4680BC704780B485B000AF786039609E
S32D0000C2307B68FB600023BB60BA683B689A4208D2FB681A1DFA6000221A60BB680433BB60F2E700BF1437BD46FE
S32D0000C25880BC704780B586B000AF72B6234B4CF220521A80214B4DF628121A80204B4FF4E9721A801F4B7B615F
S32D0000C2807B691F4A934214D27B691A1D7A611B683B617B691A1D7A611B68FB607B691A1D7A611B68BB60BA68E9
S32D0000C2A8F9683869FFF79AFFE6E77B69134A93420ED27B691A1D7A611B68FB607B691A1D7A611B68BB60B9688B
S32D0000C2D0F868FFF7A8FFECE70B4B7B600B4A7B681A600EF0F7FE62B600F07EFF00F0C8F8FEE700BF0E2005404E
S32D0000C2F800200540BCC10000D4C10000E4C1000008ED00E000C0000080B400AFFEE780B400AFFEE780B400AFF4
S32D0000C320FEE780B400AFFEE780B400AFFEE780B400AFFEE780B400AFFEE780B400AFFEE780B400AFFEE780B426
S32D0000C34800AFFEE7FFFFFFFFFFFFFFFFFFFFFFFFFFFFFFFFFFFFFFFFFFFFFFFFFFFFFFFFFFFFFFFFFFFFFFFF57
S32D0000C370FFFFFFFFFFFFFFFFFFFFFFFFFFFFFFFFFFFFFFFFFFFFFFFFFFFFFFFFFFFFFFFFFFFFFFFFFFFFFFFFC7
S32D0000C398FFFFFFFFFFFFFFFFFFFFFFFFFFFFFFFFFFFFFFFFFFFFFFFFFFFFFFFFFFFFFFFFFFFFFFFFFFFFFFFF9F
S32D0000C3C0FFFFFFFFFFFFFFFFFFFFFFFFFFFFFFFFFFFFFFFFFFFFFFFFFFFFFFFFFFFFFFFFFFFFFFFFFFFFFFFF77
S32D0000C3E8FFFFFFFFFFFFFFFFFFFFFFFFFFFFFFFFFFFFFFFFFFFFFFFFFFFFFFFFFFFFFFFFFFFFFFFFFEFFFFFF50
S32D0000C44010B5054C237833B9044B13B10448AFF300800123237010BDD8160020000000007032020008B5034B6F
S32D0000C4681BB103490348AFF3008008BD00000000DC1600207032020080B596B000AF07F14403994A00211846DB
S32D0000C49001F032F907F13C03954A0221184601F02BF9944A07F144035360924A07F13C039360012201218F48C4
S32D0000C4B800F0BAFD07F138030021184603F094F98B4A07F13803D3608A4A8B49884800F07BFC8A49864800F0D2
S32D0000C4E00FFD07F11C031821184603F00BFB3B460321184603F006FB834A07F11C03D360814A3B465361814AA2
S32D0000C50881497F4800F05FFB804804F064F980497E4804F0A1FA7D4804F05DF97D497B4804F013FA724800F0B0
S32D0000C53060FC03461946774804F0A5FA7849754804F08EFA68A1D1E9000102F0F3FF6A4800F05DFC034683F02E
S32D0000C5580103DBB2002B00D0DDE76C4804F03BF96C496A4804F0F1F9614800F03EFC03461946664804F083FAAA
S32D0000C5806849644804F06CFA4FF000004FF0804102F0D0FF644A6549564800F005FD4FF00000634902F0C6FF48
S32D0000C5A8524800F02FFD002387F84F3001220121534800F066FB5B4A59494C4800F0F0FC5A4803F021F90346AE
S32D0000C5D0594A5A49184600F059FA034687F84F304C4804F0FCF856494A4804F0B2F9554803F00EF90346194684
S32D0000C5F8464804F044FA5249444804F0A6F94B4803F002F903461946404804F038FA4D493E4804F09AF94C488D
S32D0000C62003F0F6F8034619463A4804F02CFA2EA1D1E9000102F07EFF97F84F30002B00D1C2E7002387F84E30FB
S32D0000C6483A4803F0E1F80346394A3A49184600F019FA034687F84F30384803F0D5F80346334A2949184600F0B9
S32D0000C6700DFA034687F84E30264804F0B0F83049244804F066F92F4803F0C2F803461946204804F0F8F92C497F
S32D0000C6981E4804F05AF9254803F0B6F8034619461A4804F0ECF92749184804F04EF9264803F0AAF80346194620
S32D0000C6C0144804F0E0F908A1D1E9000102F032FF97F84F3083F00103DBB2002B3AD197F84E30002B36D1AFE77F
S32D0000C6E89A9999999999C93F00001041F4160020001700206666663F9A99993ECDCC4C3E1017002066661640CC
S32D0000C7109A99193E141A0020C8170200D8170200E4170200F4170200000070410000A0410000144030170020FA
S32D0000C738CDCCCC3DF6285C3F001802002C1700200818020014180200341700204FF0FF337B6500233B657B6D44
S32D0000C760012B00F0E6807B6D012B00F378817B6DB3F1FF3F70D07B6D002B40F07081A44804F02DF8A349A24810
S32D0000C78804F0E3F8A24803F03FF8034619469E4804F075F99F499C4804F0D7F89E4803F033F803461946984895
S32D0000C7B004F069F99B49964804F0CBF89A4803F027F803461946924804F05DF900233B6501220121954800F0F7
S32D0000C7D858FA9549954800F0B2FB8D4803F014F80346934A9349184600F04CF90346002B05D04FF0FF337B6586
S32D0000C8003B6D01333B65884803F002F803468A4A8B49184600F03AF90346002B04D001237B653B6D01333B6597
S32D0000C8283B6D022B0DD17C4802F0EEFF0346804A8249184600F026F90346002B01D0012300E00023002B00F0BA
S32D0000C850DD8003233B65D9E06D4803F0C0FF6D496B4804F076F86C4802F0D2FF03461946674804F008F9694937
S32D0000C878654804F06AF8684802F0C6FF03461946614804F0FCF865495F4804F05EF8644802F0BAFF0346194651
S32D0000C8A05B4804F0F0F800233B65012200215F4800F0EBF9644A65495E4800F075FB584802F0A6FF03465C4AE1
S32D0000C8C85E49184600F0DEF80346002B04D000237B653B6D01333B65514802F095FF0346534A5549184600F0BF
S32D0000C8F0CDF80346002B04D001237B653B6D01333B653B6D022B0DD1434802F081FF0346494A4A49184600F020
S32D0000C918B9F80346002B01D0012300E00023002B00F0968003233B6592E0374803F053FF3649354804F009F8B6
S32D0000C940354802F065FF03461946314804F09BF832492F4803F0FDFF314802F059FF034619462B4804F08FF814
S32D0000C9682E49294803F0F1FF2D4802F04DFF03461946254804F083F800233B6500220121284800F07EF9304A47
S32D0000C9903049284800F008FB1F4802F039FF0346254A2649184600F071F80346002B05D04FF0FF337B653B6DEC
S32D0000C9B801333B65184802F027FF03461C4A1F49184600F05FF80346002B04D000237B653B6D01333B653B6DDA
S32D0000C9E0022B0DD1104802F013FF0346124A1449184600F04BF80346002B01D0012300E00023002B2AD0032378
S32D0000CA083B6527E000BF26E0141A0020001802002C170020081802003017002014180200341700201017002060
S32D0000CA3000007041F4160020CDCCCC3D9A99193E3333D33FF6285C3F000020410000F0C1000020C10000A041CC
S32D0000CA5800BF00E000BF3B6D022B00DC7BE6084800F0D0FA3B46184603F038F907F11C03184603F033F900237C
S32D0000CA8018465837BD4680BDF416002080B586B000AFF860B9607A600023FB757968B8680CF050FE0346194646
S32D0000CAA8F8680DF007F90346002B0DD07968B8680CF046FE03461946F8680DF0F1F80346002B01D00123FB75AA
S32D0000CAD0FB7D18461837BD4680BD000080B582B000AF786039607B68012B1ED13B684FF6FF72934219D10F48DF
S32D0000CAF800F00FFA0E4800F04FF90E4800F02EF80D4A0E490B4805F09DF80E210C4802F06BFE0B210B4802F043
S32D0000CB2067FE08210A4802F063FE00BF0837BD4680BD00BFF4160020001700201017002000000020AFCB000075
S32D0000CB482C170020301700203417002080B500AF4FF6FF710120FFF7BDFF80BD80B483B000AF78607B680022EE
S32D0000CB701A727B6800225A727B6800221A607B6800225A607B680022DA607B6800225A617B6800221A617B689A
S32D0000CB9800229A617B6800229A727B6818460C37BD4680BC704780B483B000AF78607B680022DA607B68002295
S32D0000CBC05A617B6818460C37BD4680BC704780B584B000AFF860B9607A60FB68DB687A68B968184603F038F885
S32D0000CBE8FB685B697A68B968184603F031F8FB689B7A002B0DD0FB681B697A68B968184603F026F8FB689B693B
S32D0000CC107A68B968184603F01FF800BF1037BD4680BD80B584B000AF786007F1080207F10C031946786800F01D
S32D0000CC384DF87B681A68FB681A447B681A607B685A68BB681A447B685A607B68DB68184603F014F97B685B6918
S32D0000CC60184603F00FF97B689B7A002B09D07B681B69184603F006F97B689B69184603F001F900BF1037BD465F
S32D0000CC8880BD80B582B000AF78600B46FB701346BB707B681B7AFA789A4204D07B685B7ABA789A4202D1786800
S32D0000CCB0FFF7B7FFFB7883F00103DAB27B681A72BB7883F00103DAB27B685A7200BF0837BD4680BD80B586B037
S32D0000CCD800AFF860B9607A60FB68DB68184603F0C2F87861FB685B69184603F0BCF83861FB689B7A002B11D061
S32D0000CD00FB681B69184603F0B2F802467B6913447B61FB689B69184603F0A9F802463B6913443B61FB681B7A94
S32D0000CD28002B04D07B695A42BB681A6002E0BB687A691A60FB685B7A002B04D03B695A427B681A6002E07B68C6
S32D0000CD503A691A6000BF1837BD4680BD80B586B000AFF8607A603B600B46FB72FB687A681A60FB683A685A6027
S32D0000CD78FB683A6A9A60FA7A07F114031146184602F032FDFB6807F11402DA60FB6818461837BD4680BD000038
S32D0000CDA080B588B002AF786007F10800054B0093054B064A0021FFF7D1FF7B6818461837BD4680BDCDCC4C3D13
S32D0000CDC8D7A3703F3D0A973E80B485B000AFF860B9607A60FB68BA681A60FB687A685A6000BF1437BD4680BC4E
S32D0000CDF0704780B582B000AF78607B68DB68184602F006FD034618460837BD4680BD80B586B000AF78600023BC
S32D0000CE18BB7400237B617868FFF7E7FFF8607B681A687B689B68194610460CF087FC03461946F8680CF02AFFFE
S32D0000CE400346002B0FD17B681A687B689B68194610460CF079FC03461946F8680CF038FF0346002B01D001235B
S32D0000CE6800E00023FB74FB7C83F00103DBB2002B2FD17B69B3F57A7F2BDC7B6901337B617868FFF7B2FFF86025
S32D0000CE907B681A687B689B68194610460CF052FC03461946F8680CF0F5FE0346002B0FD17B681A687B689B6894
S32D0000CEB8194610460CF044FC03461946F8680CF003FF0346002B01D0012300E00023FB74C9E7FB7C83F00103DC
S32D0000CEE0DBB2002B05D07B69B3F57A7F01DC012300E00023BB74BB7C18461837BD4680BD80B483B000AF7860CD
S32D0000CF0839607B683A689A6000BF0C37BD4680BC704780B483B000AF78607B6800225A607B6800229A607B685C
S32D0000CF3001221A707B6801225A707B6818460C37BD4680BC704780B582B000AF786039607B681B78002B06D0DE
S32D0000CF587B685B683968184600F04AFC08E07B685A683B6883F000431946104600F040FC7B685B78002B06D052
S32D0000CF807B689B683968184600F036FC08E07B689A683B6883F000431946104600F02CFC00BF0837BD4680BD4B
S32D0000CFA880B584B000AFF860B9607A60FB681B78002B06D0FB685B68B968184600F018FC08E0FB685A68BB6828
S32D0000CFD083F000431946104600F00EFCFB685B78002B06D0FB689B687968184600F004FC08E0FB689A687B68D2
S32D0000CFF883F000431946104600F0FAFB00BF1037BD4680BD80B582B000AF78607B685B68184600F0ABFB7B680A
S32D0000D0209B68184600F0A6FB00BF0837BD4680BD80B483B000AF78600B46FB701346BB707B68FA781A707B68C2
S32D0000D048BA785A7000BF0C37BD4680BC7047000080B500AF0F4BD3F8A03003F48053002B14BF01230023DBB251
S32D0000D070002B10D0094BD3F8A030084A23F48053C2F8A030064804F06FFD064B1B68054A23F40053136000BF65
S32D0000D09880BD00BF00C004409C1A0020C0F00F4080B400AF124B4FF480725A63114B5B69104A43F400535361AB
S32D0000D0C00E4B1B680D4A43F4005313600A4B0C4A1A630C4BD3F888310A4A43F08063C2F88831084B9B68074A8B
S32D0000D0E843F08063936000BFBD4680BC704700BF00C00440C0F00F4003010A0000E100E080B400AF334B002248
S32D0000D1105A70324B98221A70304B9B79DBB203F01003002B14BF01230023DBB2002B00D0F2E72A4B9B79DBB288
S32D0000D1389B08DBB203F00303022B14BF01230023DBB2002B00D0F0E7224B18221A71214B00225A71204B03F50C
S32D0000D16080531A461F4B53641C4B54225A711B4B9B79DBB203F02003002B0CBF01230023DBB2002B00D0F2E7EA
S32D0000D188144B9B79DBB203F04003002B0CBF01230023DBB2002B00D0F2E70E4B1B78DBB20C4A03F03F03DBB214
S32D0000D1B013700A4B9B79DBB29B08DBB203F00303032B14BF01230023DBB2002B00D0F0E700231846BD4680BC48
S32D0000D1D8704700BF00400640007004400000130180B500AF314B03F580539B6B2F4A43F4785302F580529363FA
S32D0000D200FFF752FFFFF780FF2B4B58221A602A4B1B684FF47A7202FB03F3284A1360274B1B681A46234B03F520
S32D0000D22880535B6C1B0E03F00F030133B2FBF3F31A46214B1A601D4B03F58053DB6B1B4A43F0225302F58052B4
S32D0000D250D363184B03F580531B6B164A43F0006302F580521363174B4FF480721A61642002F036F8134B5B69B9
S32D0000D278124A23F010035361104B00221A600F4B10225A610E4803F033F902F0A5FB02F003FC0C4802F082F85C
S32D0000D2A00B4804F0B5FC4FF4FA6002F02DF900BF80BD00BF00700440601900205C1900206419002000D0034066
S32D0000D2C8141A0020581900200C1B002080B500AFFFF735F800BF80BD80B500AFFFF72FF800BF80BD80B500AF2E
S32D0000D2F0FFF729F800BF80BD80B500AFFFF723F800BF80BD80B500AFFFF71DF800BF80BD80B500AFFFF717F838
S32D0000D31800BF80BD80B500AFFFF711F800BF80BD80B500AFFFF70BF800BF80BD80B500AFFFF705F800BF80BD60
S32D0000D34080B500AFFEF7FFFF00BF80BD80B500AFFEF7F9FF00BF80BD80B500AFFEF7F3FF00BF80BD80B500AF74
S32D0000D368FEF7EDFF00BF80BD80B500AFFEF7E7FF00BF80BD80B500AFFEF7E1FF00BF80BD80B500AFFEF7DBFF97
S32D0000D39000BF80BD80B500AFFEF7D5FF00BF80BD80B500AFFEF7CFFF00BF80BD80B500AFFEF7C9FF00BF80BD8A
S32D0000D3B880B500AFFEF7C3FF00BF80BD80B500AFFEF7BDFF00BF80BD80B500AFFEF7B7FF00BF80BD80B500AFB0
S32D0000D3E0FEF7B1FF00BF80BD80B500AFFEF7ABFF00BF80BD80B500AFFEF7A5FF00BF80BD80B500AFFEF79FFF0F
S32D0000D40800BF80BD80B500AFFEF799FF00BF80BD80B500AFFEF793FF00BF80BD80B500AFFEF78DFF00BF80BDC5
S32D0000D43080B500AFFEF787FF00BF80BD80B500AFFEF781FF00BF80BD80B500AFFEF77BFF00BF80BD80B500AFEB
S32D0000D458FEF775FF00BF80BD80B500AFFEF76FFF00BF80BD80B500AFFEF769FF00BF80BD80B500AFFEF763FF86
S32D0000D48000BF80BD80B500AFFEF75DFF00BF80BD80B500AFFEF757FF00BF80BD80B500AFFEF751FF00BF80BD01
S32D0000D4A880B500AFFEF74BFF00BF80BD80B500AFFEF745FF00BF80BD80B500AFFEF73FFF00BF80BD80B500AF27
S32D0000D4D0FEF739FF00BF80BD80B500AFFEF733FF00BF80BD80B500AFFEF72DFF00BF80BD80B500AFFEF727FFFE
S32D0000D4F800BF80BD80B500AFFEF721FF00BF80BD80B500AFFEF71BFF00BF80BD80B500AFFEF715FF00BF80BD3D
S32D0000D52080B500AFFEF70FFF00BF80BD80B500AFFEF709FF00BF80BD80B500AFFEF703FF00BF80BD80B500AF62
S32D0000D548FEF7FDFE00BF80BD80B500AFFEF7F7FE00BF80BD80B500AFFEF7F1FE00BF80BD80B500AFFEF7EBFE79
S32D0000D57000BF80BD80B500AFFEF7E5FE00BF80BD80B500AFFEF7DFFE00BF80BD80B500AFFEF7D9FE00BF80BD7B
S32D0000D59880B500AFFEF7D3FE00BF80BD80B500AFFEF7CDFE00BF80BD80B500AFFEF7C7FE00BF80BD80B500AFA1
S32D0000D5C0FEF7C1FE00BF80BD80B500AFFEF7BBFE00BF80BD80B500AFFEF7B5FE00BF80BD80B500AFFEF7AFFEF1
S32D0000D5E800BF80BD80B500AFFEF7A9FE00BF80BD80B500AFFEF7A3FE00BF80BD80B500AFFEF79DFE00BF80BDB7
S32D0000D61080B500AFFEF797FE00BF80BD80B500AFFEF791FE00BF80BD80B500AFFEF78BFE00BF80BD80B500AFDC
S32D0000D638FEF785FE00BF80BD80B500AFFEF77FFE00BF80BD80B500AFFEF779FE00BF80BD80B500AFFEF773FE68
S32D0000D66000BF80BD80B500AFFEF76DFE00BF80BD80B500AFFEF767FE00BF80BD80B500AFFEF761FE00BF80BDF2
S32D0000D68880B500AFFEF75BFE00BF80BD80B500AFFEF755FE00BF80BD80B500AFFEF74FFE00BF80BD80B500AF18
S32D0000D6B0FEF749FE00BF80BD80B500AFFEF743FE00BF80BD80B500AFFEF73DFE00BF80BD80B500AFFEF737FEE0
S32D0000D6D800BF80BD80B500AFFEF731FE00BF80BD80B500AFFEF72BFE00BF80BD0000000080B584B000AFF860B6
S32D0000D7000B467A60FB72FB68FA7A1A71FB6800225A71174978680CF0DBFA0346002B02D0134B7B600AE04FF0F8
S32D0000D7287E5178680CF0BCFA0346002B02D04FF07E537B6078680BF073FC09A3D3E900230BF0C6FC02460B4616
S32D0000D750104619460BF0A2FF0246FB681A60FB6818461037BD4680BDABAAAAAAAAAA20400000404180B582B0A8
S32D0000D77800AF78607B685B79002B09D07B6800225A717B6819791E230022034801F040FE00BF0837BD4680BDE1
S32D0000D7A05819002080B584B000AF786039603B687F2B02DD7F23FB7308E03B6813F1800F02DA8023FB7301E019
S32D0000D7C83B68FB737B685B79FA7B9A4209D07B68FA7B5A717B681979FA7B1E23034801F017FE00BF1037BD4699
S32D0000D7F080BD00BF58190020B0B584B000AF78603960374938680CF045FA0346002B02D0334B3B6008E03349A7
S32D0000D81838680CF059FA0346002B01D02F4B3B6038680BF0FDFB04460D467B681B6818460BF0F6FB4FF0000278
S32D0000D840294B0BF073FD02460B46204629460BF043FC02460B46104619460BF01FFF03463B604FF00001386808
S32D0000D8680CF028FA0346002B10D038680BF0D8FB17A3D3E900230BF02BFC02460B46104619460BF0BFFE0346A8
S32D0000D890FB6018E038680BF0C7FB4FF00002134B0BF01AFC02460B46104619464FF000020D4B0BF03BFD0246A8
S32D0000D8B80B46104619460BF0A5FE0346FB60F9687868FFF76BFF00BF1037BD46B0BD00BF52B81E85EB51F43F08
S32D0000D8E00000C8C20000C842000059400000604080B483B000AF03460A46FB711346BB71BB79002B03D1134B1C
S32D0000D90800221A7002E0114B01221A703823FB710E4B1A78FB791343FB710D4B9B78DBB20B4A43F01003DBB252
S32D0000D9309370094B9B78DBB2074A43F02003DBB29370054AFB79137100BF0C37BD4680BC704700BF3517002031
S32D0000D9580060064080B483B000AF01237B607B68312B04DC00BF7B6801337B60F7E700BF0C37BD4680BC704740
S32D0000D98080B582B000AF03460A46FB711346BB71134B1B7800211846FFF7AAFF00F024F8104AFB79137100F07C
S32D0000D9A81FF80E4ABB79137100F01AF80B4B9B78DBB20A4A23F02003DBB29370074B9B78DBB2064A23F01003B0
S32D0000D9D0DBB29370FFF7C2FF00BF0837BD4680BD361700200060064080B483B000AF174B1B78002B24D1002343
S32D0000D9F87B60154BDB78DBB203F00203002B0CBF01230023DBB2002B0DD07B6842F21072934203DD0B4B012255
S32D0000DA201A7004E07B6801337B6000BFE5E7084BDB78DBB2064A43F00203DBB2D37000E000BF0C37BD4680BC41
S32D0000DA48704700BF371700200060064080B582B000AF0346FB71FB79184600F03BF800BF0837BD4680BD80B5F3
S32D0000DA7082B000AF03460A46FB711346BB7100F011F8FB795B00DBB21846FFF7E3FFBB791846FFF7DFFF00F03C
S32D0000DA9813F800BF0837BD4680BD000080B400AF044B9B68034A43F48013936000BFBD4680BC704740F00F40A4
S32D0000DAC080B400AF044B5B68034A43F48013536000BFBD4680BC704740F00F4080B485B000AF0346FB71002355
S32D0000DAE8BB73164BDB6A03F00043012B0CBF01230023DBB2002B03D0FB7B0133FB73F0E70E4BDB6A0D4A43F026
S32D0000DB100043D3620B4AFB7953630A4BDB6A03F40033002B0CBF01230023DBB2002B00D0F3E7044B9B6BBB730A
S32D0000DB38BB7B18461437BD4680BC704700C00A4080B582B000AF204B03F580531B6B1E4A43F4805302F58052D3
S32D0000DB6013631C4B4FF480721A651B4B5B691A4A43F480135361FFF7A3FF164B4FF400725A65144B4FF4007279
S32D0000DB889A65124B4FF40072DA65124B124A1A60104B124ADA6000237B607B68092B06DCFF20FFF753FF7B68BA
S32D0000DBB001337B60F5E704A1D1E9000101F0BAFC00BF0837BD4680BD9A9999999999B93F0070044000A00440F0
S32D0000DBD840F00F4000C00A40000C00800500003E90B486B000AFF860B9607A60FB68534A93420AD1524B03F50E
S32D0000DC0080535B6B504A43F4806302F58052536345E0FB684D4A93420AD14B4B03F580535B6B494A43F4006307
S32D0000DC2802F58052536336E0FB68474A93420AD1434B03F580535B6B414A43F4805302F58052536327E0FB68F8
S32D0000DC50404A93420AD13C4B03F580535B6B3A4A43F4005302F58052536318E0FB683A4A93420AD1344B03F5C1
S32D0000DC7880539B6A324A43F4806302F58052936209E02F4B03F580539B6A2D4A43F4006302F580529362FB68ED
S32D0000DCA0DB78DBB223F00C03DAB2FB68DA70FB6800229A70BB684FF47A7203FB02F27B681B0192FBF3F39CB288
S32D0000DCC8FB681B78DBB223F01F03FB75230A9BB2DBB203F01F03DAB2FB7D1343DAB2FB681A70E2B2FB685A7056
S32D0000DCF0BB684FF4FA4203FB02F27B681B0192FBF3F39AB263019BB2D31A9CB2FB689B7ADBB223F01F03FB751E
S32D0000DD18E3B203F01F03DAB2FB7D1343DAB2FB689A72FB68DB78DBB243F00C03DAB2FB68DA7000BF1837BD460F
S32D0000DD4090BC704700A006400070044000B0064000C0064000D0064000A00E4080B483B000AF78607B681B79B3
S32D0000DD68DBB203F02003002B0CBF01230023DBB2002B00D0F2E77B68DB79DBB218460C37BD4680BC704780B4BD
S32D0000DD9083B000AF78600B46FB707B681B79DBB25BB2DB43DBB2DB09DBB2002B00D0F4E77B68FA78DA7100BF8D
S32D0000DDB80C37BD4680BC704780B487B000AFF860B9607A60FB687B617B685A1E7A60002B14BF01230023DBB259
S32D0000DDE0002B06D07B695A1C7A61BA68D2B21A70EEE700BF1C37BD4680BC704780B584B000AF786039607B6866
S32D0000DE081B6BFB60FA683B689A4252D07B681B79002B35D07B6858787B6803F134010123FA6801F0F7F80346F3
S32D0000DE30002B14BF01230023DBB2002B01D001233CE07B6800221A717B685A6A7B681B6A1344FA689A4217D299
S32D0000DE587B68DB78FB72FB7A012B11D97B681B6AFA681344FB607B6858787B6803F134010123FA6801F0CEF8F6
S32D0000DE80FB7A013BFB72EAE73B68002B15D07B6858787B6803F1340101233A6800F0DAFF0346002B14BF012319
S32D0000DEA80023DBB2002B01D0012303E07B683A681A63002318461037BD4680BD80B584B000AF7860002178689E
S32D0000DED0FFF794FF0346FB73FB7B002B40F093807B681B78032B7DD17B685B79002B79D07B6800221A637B687E
S32D0000DEF834334FF4007200211846FFF75DFF7B68552283F832227B68AA2283F833227B68522283F834207B685E
S32D0000DF20522283F835207B68612283F836207B68412283F837207B68722283F818227B68722283F819227B6804
S32D0000DF48412283F81A227B68612283F81B227B681B69DAB27B6883F81C227B681B699BB21B0A9BB2DAB27B684F
S32D0000DF7083F81D227B681B691B0CDAB27B6883F81E227B681B691B0EDAB27B6883F81F227B68DB68DAB27B68C1
S32D0000DF9883F820227B68DB689BB21B0A9BB2DAB27B6883F821227B68DB681B0CDAB27B6883F822227B68DB68EB
S32D0000DFC01B0EDAB27B6883F823227B6858787B6803F134017B685A69012301F01FF87B6800225A717B685B78C4
S32D0000DFE800220021184601F0E1F80346002B14BF01230023DBB2002B01D00123FB73FB7B18461037BD4680BD9C
S32D0000E01080B582B000AF78600B467B807B68002B08D07B681B78002B04D07B68DB887A889A4201D0092311E03B
S32D0000E0387B685B78184601F03BF9034603F00103002B14BF01230023DBB2002B01D0032300E0002318460837AD
S32D0000E060BD4680BD80B586B000AF78607B681A687B689B8819461046FFF7CAFF0346FB75FB7D002B40F0AC80C9
S32D0000E0887B689B7903F02003002B00F0A5807B689B7903F04003002B1BD07B681B6858787B6803F128017B68C1
S32D0000E0B09A69012300F0B2FF0346002B14BF01230023DBB2002B01D001238AE07B689B7923F04003DAB27B6819
S32D0000E0D89A717B681A687B68DB6919461046FFF789FE0346FB75FB7D002B75D17B681B6A3B613B690B331A7837
S32D0000E1003B690B3342F02002D2B21A707B68DA683B691C33D2B21A707B68DB689BB21B0A9AB23B691D33D2B22B
S32D0000E1281A707B68DB681A0C3B691E33D2B21A707B68DB681A0E3B691F33D2B21A707B681A693B691A33D2B2C3
S32D0000E1501A707B681B699BB21B0A9AB23B691B33D2B21A707B681B691A0C3B691433D2B21A707B681B691B0CDE
S32D0000E1789BB21B0A9AB23B691533D2B21A700023FB603B691633FA68D2B21A70FB689BB21B0A9AB23B691733D7
S32D0000E1A0D2B21A70FB681A0C3B691833D2B21A70FB681A0E3B691933D2B21A707B689B7923F02003DAB27B6898
S32D0000E1C89A717B681B6801221A717B681B681846FFF774FE0346FB75FB7D18461837BD4680BD80B584B000AFA8
S32D0000E1F078607868FFF736FF0346FB73FB7B002B02D17B6800221A60FB7B18461037BD4680BD000080B588B0AC
S32D0000E21800AF7860396080233B610F23FB604FF0FF337B610223FB61FB69B3F5807F23D80123BB61BB69102B79
S32D0000E2401AD8FB69BA6902FB03F33A6803FB02F27B68D31ABB60BB68002B09DBBB687A699A4205D9BB687B61D4
S32D0000E268FB693B61BB69FB60BB690133BB61E1E7FB695B00FB61D7E71D4BDB6A1C4A23F00803D3621A4BDB6AE4
S32D0000E29023F47F2323F47F63BB613B695B081B029AB2FB68013B1B01DBB21A43BB691343114A43F46023D362B9
S32D0000E2B80F4B5B6A03F00803002B0CBF01230023DBB2002B03D00A2001F01AF9F0E7084BDB6A074A43F0080327
S32D0000E2E0D362054B1B6B044A43F48013136300BF2037BD4680BD00BF00100B4080B582B000AF786039607B689D
S32D0000E30800221A60414B424ADA62404BDB6A03F08073002B14BF01230023DBB2002B00D0F3E73A4B0022C3F838
S32D0000E330C020384B4FF481325A60364B28229A62344B4FF001125A643B689B6833491846FFF760FF2F4B5B6A42
S32D0000E35803F00303002B14BF01230023DBB2002B00D0F3E72C4B40F243421A602A4B40F243425A60284B4FF4B3
S32D0000E38088629A60264B40F24342DA60244B40F243421A61224B40F243425A61214B03F580531B6B1F4A43F44C
S32D0000E3A8003302F580521363184B4FF6FF721A63164B1B4A5A63154BDB6A144A43F00063D362124BDB6A03F059
S32D0000E3D00063002B14BF01230023DBB2002B00D0F3E70C4B5B6A03F48033002B14BF01230023DBB2002B02D080
S32D0000E3F87B6801221A60054B1B6B044A43F080031363002318460837BD4680BD00100B400080000160CC05001A
S32D0000E42000D0044000700440B3007F0080B400AF064B5A6A40F207331340002B14BF01230023DBB21846BD46EA
S32D0000E44880BC704700100B4080B485B000AF7860074B1B6B7A681340FB60FB68002B00D1F6E7FB6818461437B8
S32D0000E470BD4680BC704700BF00100B4080B584B000AF78607B681B7803F03F03764A52F82330FB60FB68002B8D
S32D0000E49805D17B681B78002B01D00123DCE0714B1B6B704A43F0800313636E4B5B6A03F00103002B14BF01236F
S32D0000E4C00023DBB2002B00D0F3E7684A7B685B689360FB6823F44003FB607B685B789B0503F44003FA681343FE
S32D0000E4E8FB607B685B78022B03D1FB6843F40013FB607B685B78042B16D1FB6803F44033B3F5003F08D1FB6830
S32D0000E51023F44033FB60FB6843F44033FB6007E0FB6823F44033FB60FB6843F40033FB604E4B5B684D4A9BB2F9
S32D0000E53853607B68DB68002B2AD0FB6803F44033B3F5403F03D0FB6843F40013FB607B681B7A002B03D0FB680F
S32D0000E56043F01003FB607B68DB68012B03D9FB6843F02003FB607B68DB68B3F1FF3F0BD03A4B5A687B68DB685A
S32D0000E5881B04384913434B60FB6843F00203FB60344B00221A60334AFB68D3603248FFF753FF0346012B14BF96
S32D0000E5B001230023DBB2002B09D02C4B1B6B2B4A43F4702343F001031363012348E0274B1B6B03F08003002B97
S32D0000E5D814BF01230023DBB2002B07D0214B1B6B204A43F001131363012335E01D4B1B6B03F48033002B14BF84
S32D0000E60001230023DBB2002B08D0184B1B6B174A43F0011313634FF0FF3321E0FB6803F44033002B15D0114B63
S32D0000E6281A697B681A61FB6803F44033B3F5803F0BD10C4B5A697B685A610A4B9A697B689A61084BDA697B686C
S32D0000E650DA61064B1B6B054A43F001031363002318461037BD4680BD2818020000100B4001000E0080B592B063
S32D0000E67800AF7860396000237B643B68BB63994B7B637B6B002B02D140F601235FE3964B3B633B6B002B02D12C
S32D0000E6A040F60B2357E33B6B1B68FB62FB6A002B02D140F60B234EE37B6841F20932934200F23F837B68B3F5CB
S32D0000E6C8985F08D87B68032B00F01A837B68092B00F0098331E37B68A3F59853013B082B00F22B8301A252F8A6
S32D0000E6F023F000BF19E7000005EA000061EC00001BEA000059EA00007FEB0000C7EB000009EB000023EB000088
S32D0000E7187649786BFFF7EEFD78647B6C002B40F01083002387F84330002387F82B30002387F82A30002387F8EF
S32D0000E7402930002387F84230002387F8283000233B7200237B720023FB6000233B7400237B6107F108031846B4
S32D0000E768FFF788FE0346002B14BF01230023DBB2002B02D001237B64E8E240F24C4000F0BFFE08233B720023BC
S32D0000E7907B724FF4D573FB6000233B7400237B6107F108031846FFF769FEF863FB6B002B09D1BA69FB689A42D1
S32D0000E7B802D001237B64C9E2012387F84230012387F8283097F82830002B00F0A58037233B7200237B72002342
S32D0000E7E0FB6000233B7400237B6107F108031846FFF744FEF863FB6B002B02D001237B64A8E269233B7200239F
S32D0000E8087B720023FB6000233B7400237B6107F108031846FFF72EFE0346002B14BF01230023DBB2002B02D00B
S32D0000E83001237B648EE2BB6903F44013002B6FD00023FB630A2000F05FFEFB6B0133FB6337233B7200237B7268
S32D0000E8580023FB6000233B7400237B6107F108031846FFF707FE0346002B14BF01230023DBB2002B02D00123AB
S32D0000E8807B6428E069233B7200237B7297F84230002B02D0184BFB6002E04FF44013FB6000233B7400237B61DA
S32D0000E8A807F108031846FFF7E5FD0346002B14BF01230023DBB2002B02D001237B6406E0BB69002B03DBFB6B75
S32D0000E8D0632B00D8B6E77B6C002B40F03882FB6B632B0BD9002387F8423019E04C170020501900201C180200F4
S32D0000E8F800003040012387F8433097F84230002B0AD0002387F84230BB6903F08043002B02D0012387F8423066
S32D0000E92097F82A30002B02D07B6B07221A6097F82930002B02D07B6B08221A6097F82B30002B02D07B6B0422F8
S32D0000E9481A6097F84330002B09D07B6B02221A6097F84230002B02D07B6B03221A6097F82B30002B0DD097F899
S32D0000E9704330002B09D07B6B05221A6097F84230002B02D07B6B06221A60924B00221A60904B00225A608F4BEB
S32D0000E99800229A608D4B0022DA608C4B00221A618A4B00225A61FB6A9A68FB6A5B6819461046FFF72BFC854BAA
S32D0000E9C040F243421A60834B40F243425A60814B4FF488629A607F4B40F24342DA607D4B40F243421A617B4B4B
S32D0000E9E840F243425A617A4B03F580531B6B784A43F4003302F580521363A7E1B86BFFF739FDF863FB6B002B4B
S32D0000EA1000F09F8102237B649BE1BB6B002B02D10C237B6496E16D4BDB6A1B0A5B0003F4FF73FB63694BDB6A62
S32D0000EA381B0903F00F035A1CFB6B02FB03F3FB63FB6A9A68FB6BB2FBF3F2BB6B1A607DE1BB6B002B02D10C23AA
S32D0000EA607B6477E1BB6B1B68002B02D10C237B6470E1FFF7DBFC0346002B0CBF01230023DBB2002B3CD0534B96
S32D0000EA8800221A60514B00225A60504B00229A604E4B0022DA604D4B00221A614B4B00225A61FB6A9A68BB6B6B
S32D0000EAB01B6819461046FFF7ADFB464B40F243421A60444B40F243425A60424B4FF488629A60404B40F24342AA
S32D0000EAD8DA603E4B40F243421A613C4B40F243425A613B4B03F580531B6B394A43F4003302F58052136329E115
S32D0000EB0040F60A237B6425E1BB6B002B02D10C237B641FE1314B5B68C3F30C02BB6B1A6018E1BB6B002B02D1AD
S32D0000EB280C237B6412E1FFF77DFC0346002B0CBF01230023DBB2002B19D0BB6B1B68B3F5805F02D30C237B6415
S32D0000EB5000E1224B5B68214A23F4FF5323F01F0353601E4B5A68BB6B1B68C3F30C031B4913434B60EEE040F6C8
S32D0000EB780A237B64EAE0BB6B002B02D10C237B64E4E0144B9B6A5B0803F00303FB63FB6B002B03D1BB6B0022D8
S32D0000EBA01A60D7E0FB6B012B03D1BB6B01221A60D0E0FB6B102B03D1BB6B02221A60C9E005237B64C6E0BB6B88
S32D0000EBC8002B09D10C237B64C0E000BF00D004400070044000100B40FFF724FC0346002B0CBF01230023DBB261
S32D0000EBF0002B31D0BB6B1B68002B0AD1584B9B6A574A23F006039362554B554A9B6A9362A0E0BB6B1B68012B34
S32D0000EC180CD1514B9B6A504A23F0060393624E4B9B6A4D4A43F0020393628FE0BB6B1B68022B0AD1484B9B6A8B
S32D0000EC40474A23F006039362454B454A9B6A936280E005237B647DE040F60A237B6479E0BB6B002B02D10C2339
S32D0000EC687B6473E03C4BDB6A3B4A43F00063D362394BDB6A03F00063002B14BF01230023DBB2002B00D0F3E76A
S32D0000EC90334B1B6B03F08003002B14BF01230023DBB2002B08D02E4B1B6B2D4A43F0800313637B6B00221A60E3
S32D0000ECB8294B5B6A03F48033002B14BF01230023DBB2002B07D07B6B1B68002B06D17B6B01221A6002E07B6BC1
S32D0000ECE000221A607B6B1A68BB6B1A6032E0BB6B1C221A60BB6B043304221A60BB6B08334FF41E721A6025E0C2
S32D0000ED080220FFF7A1FB144B1B6B03F4E003002B14BF01230023DBB2002B07D00E4B1B6B0D4A43F4E0031363D0
S32D0000ED3004237B640A4B1B6B094A43F03203136308E040F609237B6404E000BF02E000BF00E000BF7B6C184652
S32D0000ED584837BD4680BD00BF00100B4080B489B000AF786039607B687B61364B3B613B69002B01D100235FE048
S32D0000ED803B691B68022B0BD03B691B68032B07D03B691B68072B03D03B691B68082B0BD12B4B5B6A03F0040373
S32D0000EDA8002B14BF01230023DBB2002B00D0F3E73B68FB61FB69002B3DD0FB69B3F5007F28BF4FF40073FB6078
S32D0000EDD0FB6803339B08BB61BB69002B2AD01C4B1B6B03F4E003002B14BF01230023DBB2002B09D0164B1B6BF0
S32D0000EDF8154A43F4E00343F02003136300231BE0114B5B6A03F40063002B0CBF01230023DBB2002B00D0F3E770
S32D0000EE200B497B691A1D7A610A6A1A60BB69013BBB61D1E7FA69FB68D31AFB61BEE7012318462437BD4680BC88
S32D0000EE48704700BF4C17002000100B4080B58EB000AFB9607A601A460346FB731346BB73414B7B63FB7B002B8A
S32D0000EE7002D1BB7B002B01D1042375E03D4B1B78DBB203F00103002B14BF01230023DBB2002B01D0032367E018
S32D0000EE98BB68002B01D1002362E07B6B1B7B002B02D17B685B027B60BB7B012B28D111233B7500237B757B68FD
S32D0000EEC0BB6101233B77BB7B3B6207F11403194641F20230FFF7CEFB0346002B0CBF01230023DBB2002B38D087
S32D0000EEE84FF40071B868FFF739FF0346002B14BF01230023DBB2002B2BD00023BB7328E012233B7500237B7568
S32D0000EF107B68BB6101233B77BB7B3B6207F11403194641F20230FFF7A5FB0346002B0CBF01230023DBB2002B84
S32D0000EF380FD0BB7B5B021946B868FFF70FFF0346002B14BF01230023DBB2002B01D00023BB73BB7B002B01D01C
S32D0000EF60012300E0002300BF18463837BD4680BD381700200400002080B487B000AF786039607B68FB603B6891
S32D0000EF887B617B69002B3DD07B69B3F5007F28BF4FF400733B617A693B69D31A7B613B6903339B083B613B6912
S32D0000EFB0002BEAD0184B1B6B03F4E003002B14BF01230023DBB2002B0AD0134B1B6B124A43F4E00343F0100314
S32D0000EFD813634FF0FF3316E00D4B5B6A03F48063002B0CBF01230023DBB2002B00D0F3E7FB681A1DFA60064A54
S32D0000F0001B6813623B69013B3B61D0E7012318461C37BD4680BC704700100B4080B58EB000AFB9607A601A461C
S32D0000F0280346FB731346BB735D4B7B63FB7B002B02D1BB7B002B01D10423ADE0594B1B78DBB203F00103002BB5
S32D0000F05014BF01230023DBB2002B01D003239FE0524B1B78DBB203F00403002B14BF01230023DBB2002B01D0C5
S32D0000F078022391E0BB68002B01D100238CE07B6B1B7B002B02D17B685B027B60BB7B012B28D118233B75002327
S32D0000F0A07B757B68BB6100233B77BB7B3B6207F11403194641F20230FFF7DCFA0346002B0CBF01230023DBB2F9
S32D0000F0C8002B38D04FF40071B868FFF751FF0346002B14BF01230023DBB2002B2BD00023BB7328E019233B7547
S32D0000F0F000237B757B68BB6100233B77BB7B3B6207F11403194641F20230FFF7B3FA0346002B0CBF012300233C
S32D0000F118DBB2002B0FD0BB7B5B021946B868FFF727FF0346002B14BF01230023DBB2002B01D00023BB730D236C
S32D0000F1403B7500237B757B6B1B69BB6100233B7700233B6207F11403194641F20230FFF789FA0346002B14BF30
S32D0000F16801230023DBB2002B01D0012314E07A6A0D4B1340002B01D001230DE07B6A03F4F853B3F5106F00D0D7
S32D0000F190D5E7BB7B002B01D0012300E0002300BF18463837BD4680BD38170020040000200880D9FF80B58CB00C
S32D0000F1B800AF03463A60FB710B46BB713A4BBB62FB79002B01D0042369E0012387F82F30364B1B78DBB203F096
S32D0000F1E00103002B14BF01230023DBB2002B01D0032358E0BB79032B50D801A252F823F011F2000019F2000039
S32D0000F20829F2000039F20000002387F82F3044E0BB6A9A683B681A60002387F82F303CE03B684FF400721A801A
S32D0000F230002387F82F3034E009233B7200237B72BB6A1B69FB6000233B7400237B6107F10803194641F2023016
S32D0000F258FFF70CFA0346002B14BF01230023DBB2002B01D001231AE07B6A03F44003002B0CD13B6A9B0C03F0F1
S32D0000F2807F035A1C7B6A1B0A03F00303013B9A403B681A60002387F82F3002E0042387F82F3097F82F301846FE
S32D0000F2A83037BD4680BD00BF381700200400002080B483B000AF0346FB71FB79002B01D0012302E0034B1B781D
S32D0000F2D0DBB218460C37BD4680BC70470400002080B483B000AF7860164B03F580539B6B144A43F0010302F51C
S32D0000F2F880529363124A7B689360114B05225A600F4B1B680E4A43F0010313600C4B1B6803F08003002B0CBF8C
S32D0000F32001230023DBB2002B00D0F3E7064B1B68054A23F00103136000BF0C37BD4680BC704700BF00700440FE
S32D0000F3480000044080B582B000AF786039607B68012B07D13B684FF6FF72934202D1034800F00EF800BF0837A5
S32D0000F370BD4680BD5819002080B500AF4FF6FF710120FFF7E3FF80BD80B483B000AF78607B6800221A707B686F
S32D0000F39818460C37BD4680BC7047000080B582B000AF78607B681B7883F00103DBB2002B21D0134B03F5805303
S32D0000F3C01A464FF400639362104B4FF440721A620E4B4FF440725A620D4B1B68DA0F13445B104FF46142194683
S32D0000F3E80A48FEF7FDFB642000F08AF87B6801221A70012300E0002318460837BD4680BD0070044000D0044066
S32D0000F4105C19002000B00E4080B582B000AF7860084611461A460346FB700B46BB7013467B707F210E48FEF7E9
S32D0000F438AAFC08210C48FEF7A6FCFB7819460A48FEF7A1FCBB7819460748FEF79CFC7B7819460548FEF797FCA1
S32D0000F460FF210348FEF793FC00BF0837BD4680BD00B00E4080B487B000AFF860B9607A60FB681F4AA2FB03235F
S32D0000F4889B09BA6813447B61FB681B4AA2FB031292094FF47A7101FB02F29B1AFB60FB68DB03154AA2FB0323B7
S32D0000F4B09B097A6813443B613B69DB0B7A6913447B613B69C3F30E033B610E4B1B687A699A4209D80B4B1B68B9
S32D0000F4D87A699A4206D1094B5B683A699A4201D9012300E00023002B00D0EAE700BF1C37BD4680BC704700BF46
S32D0000F500D34D621000D0034080B584B000AF7860074B1B68FB60064B5B68BB607B68BA68F9681846FFF7A6FF8A
S32D0000F52800BF1037BD4680BD00D0034080B584B000AFC7E900010E4B1B68FB600C4B5B68BB604FF000020B4B90
S32D0000F550D7E9000109F0C0FD02460B46104619460AF07CF80346BA68F9681846FFF782FF00BF1037BD4680BD73
S32D0000F57800D0034000408F40B0B48BB000AF224B3C1D1D460FCD0FC495E80F0084E80F0000237B627B6A072BFF
S32D0000F5A030DC1C4BD3F8A0207B6A9B0028333B4453F8243C012101FA03F31340002B14BF01230023DBB2002BD7
S32D0000F5C818D0134A7B6A52F823305A1C10497B6A41F823200D4BD3F8A0207B6A9B0028333B4453F8243C012114
S32D0000F5F001FA03F307491340C1F8A0307B6A01337B62CBE700BF2C37BD46B0BC704700BFD019020000A0044052
S32D0000F61888190020B0B489B000AF224B3C1D1D460FCD0FC495E8030084E803000023FB61FB69052B30DC1C4B6A
S32D0000F640D3F8A020FB699B0020333B4453F81C3C012101FA03F31340002B14BF01230023DBB2002B18D0FB69EE
S32D0000F6680833124A52F823200132104941F823200D4BD3F8A020FB699B0020333B4453F81C3C012101FA03F3DE
S32D0000F69007491340C1F8A030FB690133FB61CBE700BF2437BD46B0BC704700BFF019020000B0044088190020BB
S32D0000F6B8B0B48DB000AF234B3C461D460FCD0FC40FCD0FC495E8070084E807000023FB62FB6A0A2B30DC1C4B9F
S32D0000F6E0D3F8A020FB6A9B0030333B4453F8303C012101FA03F31340002B14BF01230023DBB2002B18D0FB6A28
S32D0000F7080E33124A52F823200132104941F823200D4BD3F8A020FB6A9B0030333B4453F8303C012101FA03F312
S32D0000F73007491340C1F8A030FB6A0133FB62CBE700BF3437BD46B0BC704700BF081A020000900440881900200F
S32D0000F758B0B487B000AF214B3C461D460FCD0FC42B68236000237B617B69042B30DC1C4BD3F8A0207B699B0094
S32D0000F78018333B4453F8183C012101FA03F31340002B14BF01230023DBB2002B18D07B691933124A52F823208E
S32D0000F7A80132104941F823200D4BD3F8A0207B699B0018333B4453F8183C012101FA03F307491340C1F8A03021
S32D0000F7D07B6901337B61CBE700BF1C37BD46B0BC704700BF341A020000D004408819002080B483B000AF78605B
S32D0000F7F80B46FB707B68FA781A707B6818460C37BD4680BC7047000080B586B000AF78607B681B781A463E4B7D
S32D0000F82053F822303B617B681B781A463B4B9B5CFB733B69DBB203F01F03DAB2384B1A723B69DBB203F01F0399
S32D0000F848DAB2354B5A72354B1022C3F88820FB7B002B13D13049324800F0BBFB304B1B6803F08003802B14BF95
S32D0000F87001230023DBB2002B00D0F3E72A4B1B697B6112E02649294800F0A7FB274B1B6803F08003802B14BF9F
S32D0000F89801230023DBB2002B00D0F3E7214B1B697B611E4BD3F888311C4A43F01003C2F888311A4B9B68194AF6
S32D0000F8C043F0100393607B699BB2184609F08AFB0DA3D3E9002309F0FFFB02460B46104619460BA3D3E9002377
S32D0000F8E809F020FD02460B461046194609F0D2FE0346BB60BB6818461837BD4680BD00BFA4703D0AD7A30A4073
S32D0000F91000000000E0FFEF404C190200281902006819002000E100E000B0034000B00B4080B586B000AF7860CF
S32D0000F9387B681B781A46234B53F822303B617B681B781A46204B9B5CFB733B69DBB203F01F03DAB21D4B1A72B8
S32D0000F9603B69DBB203F01F03DAB21A4B5A72FB7B002B13D11749184800F02FFB164B1B6803F08003802B14BF3F
S32D0000F98801230023DBB2002B00D0F3E7104B1B697B6112E00D490F4800F01BFB0D4B1B6803F08003802B14BF79
S32D0000F9B001230023DBB2002B00D0F3E7074B1B697B617B6918461837BD4680BD4C1902002819020078190020A2
S32D0000F9D800B0034000B00B4098B500AF204B5C221A701F4B10225A701D4B41F234225A801B4B45F278629A80E2
S32D0000FA00194B10229A71184B0722DA71164B4FF4C022DA60144B1F221A72134B1F225A721149124800F0D9FA92
S32D0000FA280F49114800F0D5FA0F4800F033FA0D4800F030FA0A490C4800F0CBFA0849094800F0C7FA094A064B0A
S32D0000FA5014460FCB84E80F00064B5C221A70054B0422DA7100BF98BD6819002000B0034000B00B40781900206B
S32D0000FA7880B500AF064B1B680133054A136000F087F9044B0122C3F80C2100BF80BD00BF0C1A00200070034034
S32D0000FAA080B500AF0C4B01221A600C4800F01AF8094B0322C3F80821094BD3F88831084A43F01003C2F88831CA
S32D0000FAC8054B9B68044A43F01003936000BF80BD00700340A086010000E100E080B483B000AF7860044A7B6880
S32D0000FAF0C2F8003100BF0C37BD4680BC704700BF0070034080B584B000AF78600B46FB707B68FA7811461846DD
S32D0000FB18FFF76AFE4C4B1B68002B29D17B6800221A617B6800225A61142002F093F803461A467B689A617B68C7
S32D0000FB409B697A689A607B689B6901225A607B689B69FA781A707B689B690022DA607B689B6900221A617B6866
S32D0000FB689B6900225A707B689B69374A13605BE0354B1B68FB60FB681B78FA789A4207D0FB68DB68002B03D04C
S32D0000FB90FB68DB68FB60F2E7FB681B78FA789A421DD17B68FA689A617B689B699B68BB60BB681B69002B03D051
S32D0000FBB8BB681B69BB60F7E7BB687A681A617B68BA685A617B6800221A617B689B695A6801325A6028E07B683E
S32D0000FBE000221A617B6800225A61142002F036F803461A467B689A617B689B697A689A607B689B6901225A6038
S32D0000FC087B689B69FA781A707B689B690022DA607B689B6900225A707B689B69FA681A617B689A69FB68DA608E
S32D0000FC30786800F027F97B684FF48C429A607B684FF45242DA607B6818461037BD4680BD081A002000000000CA
S32D0000FC5880B584B000AFF860B9607A60B86809F0DFF91BA3D3E9002309F05CFB02460B46104619464FF00002AE
S32D0000FC80174B09F029FA02460B461046194609F0BDFC0246FB689A60786809F0C5F90EA3D3E9002309F042FBD6
S32D0000FCA802460B46104619464FF000020A4B09F00FFA02460B461046194609F0A3FC0246FB68DA6000BF103777
S32D0000FCD0BD4680BDAFF300806666666666660A400000F04080B586B000AF78607B685B697B617B681B693B614E
S32D0000FCF87B69002B2DD13B69002B2AD17B689B691B69FB607B689B69DB68BB60FB68002B06D1BB68002B03D175
S32D0000FD201C4B00221A600FE0FB68002B03D0FB68BA68DA6002E0174ABB681360BB68002B02D0BB68FA681A61AA
S32D0000FD487B689B69002B1BD01421184601F080FF16E07B69002B03D07B693A691A6103E07B689B693A699A604C
S32D0000FD703B69002B02D03B697A695A617B689B695A68013A5A6000E000BF7B6818461837BD4680BD081A002033
S32D0000FD9880B584B000AF174B1B68FB60FB68002B24D0FB685B78FB71FB689B68184600F023F80346BB71BB7949
S32D0000FDC0002B13D0FB685B68012B0FDDFB689B681B69BB60BB68002B08D0BB685B685A1CBB685A60BB681B69BE
S32D0000FDE8BB60F3E7FB68DB68FB60D7E700BF1037BD4680BD081A002080B584B000AF78607868FFF791FDF86005
S32D0000FE107B689B695B78FB72FB7A002B0FD17B68DB68FA689A420ADD7B689B6901225A707B685B685A1C7B68FF
S32D0000FE385A60012313E0FB7A012B0FD17B689B68FA689A420ADA7B689B6900225A707B685B685A1C7B685A60B6
S32D0000FE60012300E0002318461037BD4680BD80B483B000AF78607B685B6818460C37BD4680BC704780B483B0D6
S32D0000FE8800AF78607B6800225A6000BF0C37BD4680BC704780B485B000AF78607B681B6A23F040027B681A6202
S32D0000FEB07B685B6A23F00B027B685A627B685B6A43F007027B685A627B685B6A43F080027B685A627B681B68D8
S32D0000FED803F08003002B0CBF01230023DBB2002B00D0F3E77B685B6A03F04003402B0CBF01230023DBB2002BD4
S32D0000FF0001D0012364E00023FB817B68DB6CFB817B689B6C9AB2FB891344FB817B685B6C9AB2FB891344FB817B
S32D0000FF287B681B6C9AB2FB891344FB817B68DB6B9AB2FB891344FB817B689B6B9AB2FB891344FB81FB895B085F
S32D0000FF50FB81FB896FEA43436FEA5343FB81FA897B68DA620023FB817B68DB6EFB817B689B6E9AB2FB8913443D
S32D0000FF78FB817B685B6E9AB2FB891344FB817B681B6E9AB2FB891344FB817B68DB6D9AB2FB891344FB817B68D0
S32D0000FFA09B6D9AB2FB891344FB81FB895B08FB81FB896FEA43436FEA5343FB81FA897B681A637B685B6A23F0B9
S32D0000FFC880027B685A62002318461437BD4680BC704780B483B000AF786039603B681B781A467B689A603B688B
S32D0000FFF05B781A467B68DA603B685B881A467B689A613B689B881A467B68DA613B689B791A467B681A623B6872
S32D00010018DB791A467B685A623B68DA687B681A653B681B7A1A467B681A603B685B7A1A467B685A6000BF0C37B3
S32D00010040BD4680BC704780B483B000AF78607B6818460C37BD4680BC7047000080B582B000AF786039607B68C9
S32D00010068012B07D13B684FF6FF72934202D10348FFF7E5FF00BF0837BD4680BD101A002080B500AF4FF6FF711E
S32D000100900120FFF7E3FF80BD80B582B000AF7860B84B4FF48072DA60B74B4FF480729A64B54B4FF480721A64C3
S32D000100B8B34B4FF480725A64B14B4FF48072DA60B04B5B69AF4A43F008035361AE4B5B69AD4A43F480235361D1
S32D000100E0AB4B5B69AA4A43F480335361A84B5B69A74A43F400335361A54B1B68A44A43F008031360A24B5B691C
S32D00010108A14A43F0080353619E4B1B689D4A43F0080313609A4B4FF480725A62984B4FF480721A62954B4FF45A
S32D0001013080721A61934B4FF480725A61914B4FF480729A618F4B4FF48072DA618D4B4FF480721A638B4B4FF46C
S32D0001015880725A63894B4FF480729A63874B4FF48072DA63854B4FF480721A64834B4FF480725A64814B4FF42C
S32D0001018080729A647F4B4FF48072DA64814B4FF480721A607F4B4FF480729A607D4B4FF48072DA607B4B4FF46F
S32D000101A880721A61784B5B69774A43F440735361744B5B69734A43F47F2343F0F0035361734B5B69724A43F071
S32D000101D01D035361E221786800F068FC1D21786800F00AFD0221786800F006FD0421786800F002FDE021786815
S32D000101F800F058FC0121786800F0FAFC6420FFF77FF9E021786800F04DFC0321786800F0EFFC0121786800F0CF
S32D0001022045FC0120FFF770F9E621786800F03EFC0121786800F0E0FCA021786800F0DCFCFF21786800F0D8FCE2
S32D00010248B021786800F02EFC1C21786800F0D0FC0F21786800F0CCFC0121786800F0C8FC3F21786800F0C4FC75
S32D000102700021786800F0C0FCEF21786800F0BCFC0021786800F0B8FCB421786800F00EFC0121786800F0B0FC28
S32D000102989921786800F0ACFC0021786800F0A8FC4521786800F0A4FC0221786800F0A0FC0021786800F09CFC82
S32D000102C00021786800F098FC0021786800F094FCB621786800F0EAFB0121786800F08CFC0921786800F088FC85
S32D000102E80021786800F084FC0E21786800F080FC0221786800F07CFC0021786800F078FC0021786800F074FCCA
S32D00010310BA21786800F0CAFB0F21786800F06CFC6420FFF7F1F83A21786800F0BFFB6021786800F061FC2A21A5
S32D00010338786800F0B7FB0021786800F059FC0021786800F055FC0121786800F051FC3F21786800F04DFC2B2188
S32D00010360786800F0A3FB0021786800F045FC0021786800F041FC0021786800F03DFCEF2178680BE000B00440A7
S32D0001038800A0044080F00F4040F00F4000C00440C0F00F4000F02CFC3621786800F082FB0021786800F024FC54
S32D000103B0F021786800F07AFB0421786800F01CFCB821786800F072FB0F21786800F014FC0121786800F010FC97
S32D000103D8314B1B68304A43F0080313606420FFF78FF83621786800F05DFB0021786800F0FFFBF021786800F080
S32D0001040055FB0421786800F0F7FB0121786800F0BCF91E226F21786800F082F8AF225621786800F0DBF80021C9
S32D00010428786800F00AFA012301221C49786800F02BFA2921786800F035FB6420FFF760F8BE21786800F02EFB3C
S32D000104500E21786800F0D0FBF021786800F0CCFB0121786800F0C8FB0021786800F0C4FB0021786800F0C0FBFA
S32D000104780F21786800F0BCFB786800F028FA0121786800F0DAF90021786800F0AFF900BF0837BD4680BD00BF51
S32D000104A040F00F40481A020080B582B000AF78607B680022DA617B6801221A627B680E225A607B681A229A60B4
S32D000104C87B6800225A617B6800229A617B684FF4A072DA607B68F0221A617B6800221A70786800F0ADFF7B6875
S32D000104F018460837BD4680BD80B582B000AF7860064B1B78002B05D1044B01221A707868FFF7C2FD00BF08379E
S32D00010518BD4680BD581A002080B58AB002AFF860B9607A607E23009362237A68B968F86800F0E6FC40F24E7396
S32D000105403B610023FB61FA693B699A4240DA0023BB61214AFB6913441B781A46BB69934232DAFB6901331C4A19
S32D00010568D35C002B06D1FF23FB75FF23BB75FF237B7512E0FB690133154AD35C012B06D1D423FB750023BB7568
S32D0001059026237B7505E0B523FB75BA23BB75B0237B757B7DBA7DF97DF86800F0C9F80246FB68DA61F86800F01A
S32D000105B847FFF86800F080FEBB690133BB61C4E7FB690233FB61BAE700BF2037BD4680BD0800002080B58AB05E
S32D000105E002AFF860B9607A602723009395237A68B968F86800F088FC40F2E6333B610023FB61FA693B699A423B
S32D0001060840DA0023BB61214AFB6913441B781A46BB69934232DAFB6901331C4AD35C002B06D1FF23FB75FF2369
S32D00010630BB75FF237B7512E0FB690133154AD35C012B06D10023FB750023BB7500237B7505E0D423FB750023D6
S32D00010658BB7526237B757B7DBA7DF97DF86800F06BF80246FB68DA61F86800F0E9FEF86800F022FEBB690133CD
S32D00010680BB61C4E7FB690233FB61BAE700BF2037BD4680BD5807002080B485B000AF78600B46FB70FB78062BC9
S32D000106A829D801A252F823F0D5060100CD060100DB060100E3060100EB060100F1060100F90601006FF07F439B
S32D000106D0FB6014E00023FB6011E04FF47F03FB600DE04FF47F43FB6009E0FF23FB6006E04FF41903FB6002E0E8
S32D000106F8044BFB6000BFFB6818461437BD4680BC704700BF9999990080B584B000AF786039603B681B0CFB731D
S32D000107203B681B0ABB733B687B737B7BBA7BF97B786800F005F8034618461037BD4680BD80B487B000AF786097
S32D00010748084611461A460346FB700B46BB7013467B70FB789B08DBB27B61BB789B08DBB23B617B789B08DBB268
S32D00010770FB607B691A033B699B011A43FB68134318461C37BD4680BC704780B582B000AF78600B46FB70FB78E4
S32D0001079819467868FFF77CFF03461946786800F004F800BF0837BD4680BD80B582B000AF7860396039687868C8
S32D000107C0FFF7A6FF02467B681A62786800F03CFE786800F0A9FA00BF0837BD4680BD80B582B000AF786078683F
S32D000107E800F09EFA00BF0837BD4680BD80B582B000AF78600B46FB70FB7819467868FFF747FF034619467868FC
S32D0001081000F004F800BF0837BD4680BD80B582B000AF7860396039687868FFF771FF02467B681A62786800F0AA
S32D0001083807FE00BF0837BD4680BD80B582B000AF78600B46FB70FB7819467868FFF720FF03461946786800F065
S32D0001086004F800BF0837BD4680BD80B582B000AF7860396039687868FFF74AFF02467B68DA61786800F0E0FDD5
S32D0001088800BF0837BD4680BD80B586B000AFF860B9607A603B6000237B617B69BA6813441B78002B0FD07B6926
S32D000108B0BA6813441B783A687968F86800F0BEFB7B680C337B607B6901337B61E9E700BF1837BD4680BD80B53D
S32D000108D882B000AF7860FDF733F967210120FDF7C2F800210220FDF7BEF8A0210320FDF7BAF850210420FDF7C1
S32D00010900B6F820210520FDF7B2F820210620FDF7AEF877210720FDF7AAF800210820FDF7A6F800210920FDF7A7
S32D00010928A2F800210A20FDF79EF804210B20FDF79AF87B684FF0FF32DA637B684FF0FF321A6400BF0837BD46F9
S32D0001095080BD80B584B000AF786039600023FB60786800F0A4FAFB683A6813441B78002B12D07B6859697B6842
S32D000109789869FB683A6813441B780246786800F03EFB786800F0A3FAFB680133FB60E6E700BF1037BD4680BD9D
S32D000109A080B592B000AF786039604FF00001386809F084F90346002B1FD0386809F092F903467B64786C08F0B0
S32D000109C873FF03461946386808F0B8FE03461F49184608F0BDFF0346184609F07FF903463B6407F10C003B6C2A
S32D000109F07A6C19490BF0DEFA22E03B6883F000433B60386809F06EF903467B64786C08F04FFF0346194638682D
S32D00010A1808F094FE03460D49184608F099FF0346184609F05BF903463B6407F10C003B6C7A6C08490BF0BAFA2B
S32D00010A4007F10C0319467868FFF783FF00BF4837BD4680BD00007A44641A0200581A020080B582B000AF7860AB
S32D00010A683960786800F01FFA39687868FFF76DFF786800F003FA00BF0837BD4680BD80B582B000AF7860396068
S32D00010A90786800F00CFA39687868FFF781FF786800F0F0F900BF0837BD4680BD80B483B000AF78600B46FB70C9
S32D00010AB84D4B1B684C4A23F0080313604B4B1B684A4A23F480231360484B1B68474A43F480331360454B1B68DC
S32D00010AE0444A23F440731360414B1B68404A23F4435323F0300313603E4B1A68FB785B0203F400733B491343FE
S32D00010B080B603A4B1A68FB785B101B0203F48073364913430B60344B1A68FB789B101B0103F010033049134317
S32D00010B300B602F4B1A68FB78DB105B0103F020032B4913430B602A4B1A68FB781B119B0103F0400326491343FD
S32D00010B580B60254B1A68FB785B11DB01DBB2224913430B60204B1A68FB789B111B0303F480531D4913430B6082
S32D00010B801B4B1A6897F90330DB115BB25B0303F40053174913430B60164B1B68154A23F400331360134B1B68F8
S32D00010BA8124A43F4003313600F4B1B680E4A43F0080313600D4B1B680C4A43F440731360094B1B68084A43F411
S32D00010BD0435343F030031360064B1B68054A43F48023136000BF0C37BD4680BC704700BF80F00F4040F00F4022
S32D00010BF880B483B000AF78600B46FB70464B1B68454A23F008031360444B1B68434A43F480331360414B1B68E5
S32D00010C20404A43F4802313603E4B1B683D4A23F4407313603A4B1B68394A23F4435323F030031360374B1A6809
S32D00010C48FB785B0203F40073344913430B60334B1A68FB785B101B0203F480732F4913430B602D4B1A68FB787A
S32D00010C709B101B0103F01003294913430B60284B1A68FB78DB105B0103F02003244913430B60234B1A68FB78FF
S32D00010C981B119B0103F040031F4913430B601E4B1A68FB785B11DB01DBB21B4913430B60194B1A68FB789B11A9
S32D00010CC01B0303F48053164913430B60144B1A6897F90330DB115BB25B0303F40053104913430B600F4B1B68C1
S32D00010CE80E4A23F4003313600C4B1B680B4A43F400331360084B1B68074A43F008031360064B1B68054A23F4AA
S32D00010D108023136000BF0C37BD4680BC704700BF80F00F4040F00F4080B586B000AF78607B6800225A617B6814
S32D00010D3800229A617B681B6AFB60FB68FB72FB681B0ABB72FB681B0CDBB203F003037B722A217868FFF7A6FE65
S32D00010D6000217868FFF748FF00217868FFF744FF01217868FFF740FF3F217868FFF73CFF2B217868FFF792FE92
S32D00010D8800217868FFF734FF00217868FFF730FF00217868FFF72CFFEF217868FFF728FF2C217868FFF77EFE1E
S32D00010DB0314B1B68304A23F4407313602F4B1B682E4A23F47F2323F0F00313602C4B1B682B4A23F01D031360A2
S32D00010DD8274B1A687B681B6B254913430B60254B1A687B685B6B234913430B60224B1A687B689B6B2049134301
S32D00010E000B601E4B1B681D4A23F0080313601A4B1B68194A43F48023136000237B617B69EF2B19D800233B612F
S32D00010E283B69B3F5A07F0FD2114B1B68104A23F4003313600E4B1B680D4A43F4003313603B6901333B61EBE703
S32D00010E507B6901337B61E2E7084B1B68074A43F008031360044B1B68034A23F48023136000BF1837BD4680BD44
S32D00010E7840F00F4080F00F40C0F00F4080B483B000AF78607B689B69002B07DD7B685B695A1C7B685A617B688C
S32D00010EA000229A6100BF0C37BD4680BC704780B582B000AF78607B685A697B685B689A4205DB7B6800225A6158
S32D00010EC87868FFF72DFF00BF0837BD4680BD80B582B000AF78607B689B695A1C7B689A617B689A697B689B68C6
S32D00010EF09A4205D17868FFF7C5FF7868FFF7D7FF00BF0837BD4680BD80B588B000AFF860B9607A603B60FB6838
S32D00010F181B78022B03D0FB681B78032B11D17B68FB61BA6AFB691344013BBB61FB68DA68BB68D31A3B613B68A7
S32D00010F403A69D31A01337B610DE0BB68FB613A68FB691344013BBB617B687B61BA6A7B691344013B3B612A2180
S32D00010F68F868FFF79FFDFB691B0ADBB203F00F03DBB21946F868FFF73BFEFB69DBB21946F868FFF735FEBB69D5
S32D00010F901B0ADBB203F00F03DBB21946F868FFF72BFEBB69DBB21946F868FFF725FE2B21F868FFF77BFD7B6989
S32D00010FB81B0ADBB203F00F03DBB21946F868FFF717FE7B69DBB21946F868FFF711FE3B691B0ADBB203F00F036C
S32D00010FE0DBB21946F868FFF707FE3B69DBB21946F868FFF701FE2C21F868FFF757FD00BF2037BD4680BD80B534
S32D0001100884B000AFF860B9607A60FB707A6813465B0013449B00991CBA6813461B011344DA1CFB78F86800F03C
S32D0001103005F800BF1037BD4680BD000080B58EB002AFF860B9607A60FB70FB780A2B06D1F868FFF72CFFF86814
S32D00011058FFF714FFF2E0FB787D2B02D8FB781F2B01D82023FB70FB78203BFB70112300930C237A68B968F868C3
S32D00011080FFF742FFFA7813469B0013446F4AD35C3B75FA7813469B00134401336B4AD35C7B75FA7813469B008A
S32D000110A813440233674AD35CBB75FA7813469B0013440333634AD35CFB75FA7813469B00134404335F4AD35C72
S32D000110D03B760023BB62BB6A062B00F3A180F86800F050F9F86800F0B3F8002387F82F3000237B627B6A042BED
S32D000110F835DC07F114027B6A13441B7803F00103002B14BF01230023FB76FB7E002B11D097F82F3083F0010344
S32D00011120DBB2002B03D0F86800F0CAF802E0F86800F08EF8F86800F08BF80DE097F82F30002B03D0F86800F04F
S32D000111481DF902E0F86800F07FF8F86800F07CF8FB7E87F82F307B6A01337B62C6E797F82F30002B03D0F868AF
S32D0001117000F008F902E0F86800F06AF8F86800F067F8002387F82F3000233B623B6A042B42DC07F114023B6AB6
S32D0001119813441B7803F00103002B14BF01230023BB76BB7E002B11D097F82F3083F00103DBB2002B03D0F8683C
S32D000111C000F07EF802E0F86800F042F8F86800F03FF80DE097F82F30002B03D0F86800F0D1F802E0F86800F083
S32D000111E833F8F86800F030F8BB7E87F82F3007F114023B6A13441B785B08D9B207F114023B6A13440A461A70AF
S32D000112103B6A01333B62B9E7BB6A0133BB625AE7F86800F0AFF8002387F82F300123FB61FB69232B06DCF86876
S32D0001123800F00AF8FB690133FB61F5E73037BD4680BD00BF400B002080B483B000AF7860174B1B68164A43F48A
S32D0001126080331360154B1B68144A23F008031360114B1B68104A43F4802313600E4B1B680D4A23F400331360F1
S32D000112880B4B1B680A4A43F400331360094B1B68084A43F008031360054B1B68044A23F48023136000BF0C3703
S32D000112B0BD4680BC704700BF40F00F4080F00F4080B483B000AF78602B4B1B682A4A43F480331360294B1B686D
S32D000112D8284A23F008031360254B1B68244A43F480231360224B1B68214A23F440731360204B1B681F4A23F430
S32D000113007F2323F0F00313601D4B1B681C4A23F01D031360184B1A687B685B6A164913430B60164B1A687B6839
S32D000113289B6A144913430B60134B1A687B68DB6A114913430B600E4B1B680D4A23F4003313600B4B1B680A4A33
S32D0001135043F400331360094B1B68084A43F008031360054B1B68044A23F48023136000BF0C37BD4680BC704771
S32D0001137840F00F4080F00F40C0F00F4080B483B000AF78602B4B1B682A4A43F480331360294B1B68284A23F0D5
S32D000113A008031360254B1B68244A43F480231360224B1B68214A23F440731360204B1B681F4A23F47F2323F037
S32D000113C8F00313601D4B1B681C4A23F01D031360184B1A687B681B6B164913430B60164B1A687B685B6B144942
S32D000113F013430B60134B1A687B689B6B114913430B600E4B1B680D4A23F4003313600B4B1B680A4A43F40033A2
S32D000114181360094B1B68084A43F008031360054B1B68044A23F48023136000BF0C37BD4680BC704740F00F4093
S32D0001144080F00F40C0F00F4080B485B000AF78607B681B6AFB60FB68FB72FB681B0ABB72FB681B0CDBB203F07D
S32D0001146803037B727B6800225A627B6800229A627B680022DA627B6800221A637B6800225A637B6800229A6319
S32D000114907B681A6BFB7A5B0203F400731A437B681A637B681A6BFB7A5B101B0203F480731A437B681A637B68DD
S32D000114B85A6BFB7A9B101B0103F010031A437B685A637B685A6BFB7ADB105B0103F020031A437B685A637B68A7
S32D000114E05A6BFB7A1B119B0103F040031A437B685A637B685A6BFB7A5B11DB01DBB21A437B685A637B685A6B11
S32D00011508FB7A9B111B0303F480531A437B685A637B685A6B97F90B30DB115BB25B0303F400531A437B685A639D
S32D000115307B685A6BBB7A9B0303F480431A437B685A637B685A6BBB7A5B10DB039BB21A437B685A637B685A6B42
S32D00011558BB7A9B101B0403F480331A437B685A637B685A6BBB7ADB105B0403F400331A437B685A637B685A6BC8
S32D00011580BB7A1B119B0403F480231A437B685A637B685A6BBB7A5B11DB0403F400231A437B685A637B689A6B7E
S32D000115A8BB7A9B1103F001031A437B689A637B689A6B97F90A30DB115BB29B0003F004031A437B689A637B689F
S32D000115D09A6B7B7ADB0003F008031A437B689A637B689A6B7B7A5B101B0103F010031A437B689A637B68DB690E
S32D000115F8FB60FB68FB72FB681B0ABB72FB681B0CDBB203F003037B727B685A6AFB7A5B0203F400731A437B68C4
S32D000116205A627B685A6AFB7A5B101B0203F480731A437B685A627B689A6AFB7A9B101B0103F010031A437B68EC
S32D000116489A627B689A6AFB7ADB105B0103F020031A437B689A627B689A6AFB7A1B119B0103F040031A437B68E8
S32D000116709A627B689A6AFB7A5B11DB01DBB21A437B689A627B689A6AFB7A9B111B0303F480531A437B689A62B6
S32D000116987B689A6A97F90B30DB115BB25B0303F400531A437B689A627B689A6ABB7A9B0303F480431A437B68E0
S32D000116C09A627B689A6ABB7A5B10DB039BB21A437B689A627B689A6ABB7A9B101B0403F480331A437B689A6245
S32D000116E87B689A6ABB7ADB105B0403F400331A437B689A627B689A6ABB7A1B119B0403F480231A437B689A624A
S32D000117107B689A6ABB7A5B11DB0403F400231A437B689A627B68DA6ABB7A9B1103F001031A437B68DA627B688F
S32D00011738DA6A97F90A30DB115BB29B0003F004031A437B68DA627B68DA6A7B7ADB0003F008031A437B68DA62F9
S32D000117607B68DA6A7B7A5B101B0103F010031A437B68DA6200BF1437BD4680BC7047000080B582B000AF786047
S32D0001178839607B68012B07D13B684FF6FF72934202D10348FEF784FE00BF0837BD4680BD141A002080B500AF7F
S32D000117B04FF6FF710120FFF7E3FF80BD80B582B000AF7860164B03F580535B6B144A43F0400302F580525363EC
S32D000117D8124B4FF400725A62104B4FF400721A620F4B14225A700E4B1B7ADBB20C4A43F00103DBB213720A4BBF
S32D0001180080229A7002212B20FCF7BAF83D212A20FCF7B6F87B6818460837BD4680BD00BF0070044000C004407A
S32D000118280060064080B582B000AF786039607B68012B07D13B684FF6FF72934202D10348FFF7B8FF00BF083786
S32D00011850BD4680BD5C1A002080B500AF4FF6FF710120FFF7E3FF80BD80B582B000AF78600B46FB707B68FA78C5
S32D0001187811461846FDF7B8FF7B6818460837BD4680BD000080B582B000AF786039607B68012B08D13B684FF6CA
S32D000118A0FF72934203D120210348FFF7DDFF00BF0837BD4680BD00BF601A002080B500AF4FF6FF710120FFF75A
S32D000118C8E1FF80BD80B483B000AF78607B6800221A707B6818460C37BD4680BC7047000080B483B000AF7860EF
S32D000118F03960044A3B68136000BF0C37BD4680BC704700BF641A002080B582B000AF3248FCF724FA0346FB7121
S32D00011918304AFB791370304B01221A702F4B1B78022B33D0022B4FDC002B02D0012B14D04AE0FB79FF2B44D188
S32D00011940284B01221A70284B00221A70264B1B785A1CD1B2244A11701946244AFB79535433E0214B1B785A1CDD
S32D00011968D1B21F4A117019461E4AFB7953541C4B1B780D2B27D11C4B1B68194A1278114618489847154B0222E6
S32D000119901A701CE0FB79FF2B10D1124B01221A70114B00221A70104B1B785A1CD1B20E4A117019460D4AFB7927
S32D000119B8535409E00A4B00221A70084B00221A7002E000BF00E000BF00BF0837BD4680BD00A006407B1A002057
S32D000119E07A1A0020791A0020781A0020681A0020641A002080B582B000AF78607B681846FFF764FF7B681149BA
S32D00011A081846FFF76DFF7B684FF0FF325A600E4B4FF000021A600D4B4FF000021A600C4B4FF000021A600B4B53
S32D00011A3000221A600A4B00221A700A4B00221A707B6818460837BD4680BD00BF691A0100881A00208C1A00205E
S32D00011A58901A0020941A0020981A0020991A002080B582B000AF78600B46FB701D4B1B78002B32D07B68013339
S32D00011A801B781A067B6802331B781B041A437B6803331B781B0213437A680432127813431A46134B1A607B682B
S32D00011AA85A79124B1A707B6806331B78AA2B0CBF01230023DAB20E4B1A700E4B01221A700B4B1B78002B08D05E
S32D00011AD00B4800F049F80B4B1B680A4A23F40053136000BF0837BD4680BD00BF841A0020941A0020981A0020FE
S32D00011AF8991A00209A1A00209C1A0020C0F00F4080B582B000AF786039607B68012B07D13B684FF6FF729342A7
S32D00011B2002D10348FFF766FF00BF0837BD4680BD7C1A002080B500AF4FF6FF710120FFF7E3FF80BD80B483B0F3
S32D00011B4800AF7860054B00221A60044B00225A607B6818460C37BD4680BC70479C1A002080B584B000AF786090
S32D00011B70154B1B68002B21D00023FB60124B5B68FA689A4214DA114AFB6852F82330002B0AD00E4AFB6852F818
S32D00011B9823301846FCF725FB03461A460A4B1A70FB680133FB60E5E7054B00225A60044B00221A60044B1B781B
S32D00011BC018461037BD4680BD9C1A0020A81A0020A41A002080B582B000AF786039607B68012B07D13B684FF625
S32D00011BE8FF72934202D10348FFF7A8FF00BF0837BD4680BD9C1A002080B500AF4FF6FF710120FFF7E3FF80BDEA
S32D00011C1080B483B000AF78600A4B03F580531B6B084A43F0010302F580521363064B5B68054A43F032035360CB
S32D00011C3800BF0C37BD4680BC704700BF0070044000000A4003460846194608F0E5BF00BF00F03AB8012838BF75
S32D00011C60012010B50446204609F060FA00B110BD00F0CAF908B18047F5E7042000F09CF8024B034A03490360EE
S32D00011C8800F06CF9B01A0200A11C01008C1A0200004870477C1A020010B5034B0360044600F0C2F8204610BD72
S32D00011CB0B01A020010B5054B0360044600F0B8F820460421FFF7C8FF204610BDB01A020009F034BA20494B688D
S32D00011CD830B5A0F108046BB350F8085C04EB050E734527D821D05A6801F1040C32B90FE0516803F1040C21B3B8
S32D00011D0013460A469645F7D304BFDEE900215960DCF8003008BFAD181A6899188C4211D05B6840F8043CDCF881
S32D00011D28003040F8085C5C6030BD1A685B682A4440F8082C40F8043C4C6030BD2A441A6030BD5B681A6899181C
S32D00011D508C42E5D1F6E700BF101B0020154900F108034868082B38BF0823A0B1073323F00703043102E0011DBD
S32D00011D784068C8B102689342F9D810B4D41A072C06D84368026010BC0B60083070477047C218D0F804C0C2F83E
S32D00011DA004C0C450086810BC036008300A607047704700BF101B002010B500F18004204609F0B4F9034630B113
S32D00011DC880220021184609F009FE803010BD2046FFF7C0FF03460028F2D100F049F800BF064A93688038984232
S32D00011DF005D9D2681344984201D2FFF76BBF09F09DB900BF101B002038B5084C4FF41E652846E56009F08AF9F9
S32D00011E18A06020B10023C0E90053606038BDE060606038BD101B0020704700BF704700BF00487047BC1A0200F3
S32D00011E4010B504210446FFF707FF204610BD00BF08B5804708F0DCFE06F0C6FB08F0D8FE0C46054606F0FEFBEA
S32D00011E68013402D1284606F049FB06F04FFA00BF08B5034B1868BFF35B8FFFF7E5FF00BF240D002008B5804708
S32D00011E90FFF7F2FF08B5034B1868BFF35B8FFFF7F5FF00BF200D0020024B1868BFF35B8F704700BF240D0020EF
S32D00011EB8024B1868BFF35B8F704700BF200D0020012810B51AD8BFF35B8FA1F1280353E8002F013A43E80020A6
S32D00011EE00028F8D1BFF35B8F5AB951F81C3C01F158040BB1204698472046BDE81040FFF773BF10BD51F8140C8A
S32D00011F08FFF7A2FF38B5002540E91E1240F8805C0446FFF7CDFF44F8700CFFF7C1FF43222B23472104F8552C82
S32D00011F3004F8542C04F8533C04F8523C4E22552304F8581C04F8515C054904F8572C04F8563C44F86C0C44F8A5
S32D00011F58501CA4F1800038BDC91E010070B504460D46164606F0C4FB436801333246294643602046FFF7C6FF9F
S32D00011F800446012344F8283B204608F039FC204606F02AFBFFF770FF10B506F0ADFBD0E900420132426064B164
S32D00011FA894F82020472A0AD0002202602034204608F046FC204606F013FBFFF759FF94F821204E2AF0D194F831
S32D00011FD02220552AECD194F82320432AE8D194F82420432AE4D194F825202B2AE0D194F826202B2ADCD194F846
S32D00011FF82720012AD8D8626952426261D6E700BF024B1868BFF35B8F704700BF201B002010B5034B0360044600
S32D0001202000F048F9204610BDAC1B020010B5054B0360044600F03EF920460C21FFF70CFE204610BDAC1B0200EC
S32D0001204870B582B00446069E96420D4609D0A06804680696246A2946A44602B0BDE870406047194601920093F6
S32D0001207000F064F8DDE900320028ECD0062002B070BD00BF2DE9F04F0D4681B01946DDE90A7ADDE90C981C4607
S32D000120980646934600F04EF880B94F4527D0B06823460468CDE90C98CDE90A7AE4695A462946A44601B0BDE8DD
S32D000120C0F04F6047002DC8F8007088F804B00CDB3D44A9450CBF4FF006094FF0010988F80690002001B0BDE836
S32D000120E8F08F0235F9D1012388F80630F5E75146304600F01FF80028D1D088F805B0ECE72DE9F04106460F46C6
S32D0001211014461D4600F008F948B9B068016822468C692B463946A446BDE8F0416047BDE8F08100BF704700BF71
S32D0001213800207047814211D008B5406803782A2B0AD049680B782A2B08BF013109F058FFB0FA80F0400908BDF4
S32D00012160002008BD0120704770B53B4B1A7882B0002A41D101241C7006F0E4FD002831D04468364D23782A2B18
S32D0001218808BF013400224FF0FF30114601AB0190204606F047F82B683022DB68064601212D4808F083FF019B4C
S32D000121B093B12B682046D96808F0A8FD2B682948DB680222012108F075FF019B13B9304608F0B4FFFFF7E0FE8F
S32D000121D82B683046D96808F095FDEBE71D4B20481B682D22DB68214608F060FF08F00CFD184B1C481B681D2205
S32D00012200DB68012108F056FF08F002FD01290C4619D106F0E9F903689B6898472B682146DB6804460B2212486D
S32D0001222808F044FF2B682046D96808F06BFD2B680A20D96808F0F6FC06F010FAD6E706F0CFF906F00BFAD1E79C
S32D0001225006F008FA06F05EF8241B0020280D0020081C02003C1C0200401C0200E81B0200701C020070B5036866
S32D0001227884B000249E690394102315460293CDE900446B461268B0479DF8043003F00603062B03BF009B2B6024
S32D000122A00120204604B070BD0098904214BF01200620704710B5034B03600446FFF73AFF204610BDB41C020078
S32D000122C810B5054B03600446FFF730FF20460821FFF7BEFC204610BDB41C02002DE9F041069F0899099E8F42B7
S32D000122F0044690461D460CD029462046FFF71EFF20B10123376086F80480B3710020BDE8F0810799FFF712FFE9
S32D000123180028EDD086F805800020BDE8F08100BF38B515461C46FFF705FF00B938BD082206232560E2602371B9
S32D0001234038BD00BF2DE9F041064617461D460C46FFF7F4FE48B9032D07D823683A46314620465B69BDE8F0419B
S32D000123681847BDE8F08100BF70B54C1E84464F2C42D8DFE804F028282828414141413F3F283F3F3F3F3F3F3F66
S32D000123903F3F3F3F3F412A2A2A2A2A2A2A2A283F3F3F3F3F413F2A292841282A2A3F2941413F3F3F28282828F0
S32D000123B8283F28283F2841413F3F3F4141413F3F3F282A282A2ABAB1B3B1DCE90540844212DADCF8105004EB9D
S32D000123E0840E05EB8E0001340026C0E90166CCF8144005F82E10C0E9032370BD002AE8D1002070BDF0B5C26805
S32D0001240811786E29864625D03039CBB2092B2BD80026164D00206FF0004402E0B0EBD30F15DC0132CEF80C20E6
S32D000124301378303B5FFA83FC00EB800001EB4000BCF1090F1946A4EB0303A5FB0373E9D906B14042F0BD4FF062
S32D00012458FF30F0BD531CC36051783039CAB2092A02D81A460126D4E70020F0BDCDCCCCCC10B5044629B9C368D0
S32D000124801A786AB15A1CC260197868290CD0762906D12046FFF7B6FFE3681A785F2A01D0002010BD0133E360C8
S32D000124A82046FFF7ABFFE3681A785F2AF4D10133E360012010BD00BF10B4C3680A46197852290DD04F2902D03E
S32D000124D0104610BC7047C46A03342021C4620133C36010BC002343E7C46A02341F21C462F5E700BF002965D005
S32D000124F870B506460C46A368012B38DCD6F81C51B5F5806F03F1010331DC2278A360531E4F2B2CD8DFE803F088
S32D000125203030304B2B2B2C2C3030303030303030303030303030302B30303030303030303030414130302B30EB
S32D000125483030302830303030302B2C303030303030303030303030302B2B30282828282B303030303030303024
S32D00012570E468002CC3D170BD2469002CBFD1FAE7E16801353046C6F81C51FFF7B3FF21693046FFF7AFFFD6F89F
S32D000125981C31013BC6F81C3170BDE1680B78052BEBD1D6F838310133C6F83831E5E7D6F84431E1680133C6F8BF
S32D000125C04431DEE7704700BFC3681A785F2A01D00120704710B55A1CC2605A785F2A044604D0FFF70FFFC04370
S32D000125E8C00F10BD0233C360FFF708FF002809DB092805DDE3681A785F2A03D10133E360012010BD002010BD28
S32D0001261028B909E0002908DD0069013940B103782F2BF7D0002070477047FBD1C0687047704700BFF0B51446E5
S32D000126385268A5684B1C1344AB4283B00E46074611D8E5686DB96368206832461844394609F0AEF8D4E900329D
S32D0001266033449D5463683344636003B0F0BDE268002AFAD155B16D00AB42FCD82068294609F048FA38B1206070
S32D00012688A560DEE7022B4FF00205F0D8F2E70190206808F04FFD019B0122C4E90033C4E90232DEE70378722B8B
S32D000126B007D0562B05D04B2B03D0442B03D00020704701207047407800F0DF034F2BF8D0773801288CBF002085
S32D000126D801207047D0F80031FF2B70B504460D4606D05A1CC4F80021E55484F8045170BD0026194680F8FF605A
S32D00012700D0E942329847D4F8283101221344C4F828313346C4F80021E55484F8045170BD0346D0F8100190B1FA
S32D00012728CB684268002B10690BDB20B909E03BB10069013B30B102782F2AF8D000207047C068704770470122BC
S32D00012750C3F81821704700BF002942D038B505460C4623784C2B32D8DFE803F02F31313131272F37373131310B
S32D000127783131313131313131313131312F31313131313131313131313131312F313131312F31313131312F378C
S32D000127A0313131313131313131313131312F2F3131312F2F2F31312F2F0021462846FFF7AFFF10B103782F2B40
S32D000127C800D0002038BDE1682846FFF7C1FF0028F8D12469002CC0D1F3E70020704700BF2DE9F0410446084606
S32D000127F00D4609F085FD40B3013DD4F800112F184FF0000809E00B46BD4201F10101C4F80011E65484F804613B
S32D0001281817D0FF2915F8016FF1D1D4E9423284F8FF8020469847D4F8283101210B44C4F828310023BD42C4F849
S32D000128400011E65484F80461E7D1BDE8F08100BF38B5C3681A78542A24D15A1CC2605A785F2A044620D06E2ACE
S32D000128681CD0FFF7CBFD421C18D4E36819785F2914D10133E360D4E905318B420EDA216903EB830C01EB8C0066
S32D0001289001330025C0E901556361052301F82C30C26038BD002038BD0233C3600022E6E72DE9F04188B00A463E
S32D000128B804461A4901A809F079FB01A809F01CFD40B301ADD4F800112F184FF0000809E00B46AF4201F1010148
S32D000128E0C4F80011E65484F8046117D0FF2915F8016BF1D1D4E9423284F8FF8020469847D4F8283101210B4490
S32D00012908C4F828310023AF42C4F80011E65484F80461E7D108B0BDE8F08100BFD81C020070B50446FFF76AFD88
S32D00012930051E46DDE66863689B1B9D423EDCA26873195207E36004D5725D242A04BF0133E360092D22DD2A4960
