S01100002E2E2F50726F746575732E73313966
S32D0000C000000000205DC2000011C3000017C300001DC3000023C3000029C3000000000000000000000000000073
S32D0000C028000000002FC3000035C30000000000003BC3000041C3000085E0000091E000009DE00000A9E0000022
S32D0000C050B5E00000C1E00000CDE00000D9E00000E5E00000F1E00000FDE0000009E1000015E1000021E10000D1
S32D0000C0782DE1000039E1000045E1000051E100005DE1000069E1000075E1000081E100008DE1000099E10000F2
S32D0000C0A0A5E10000B1E10000BDE10000C9E10000D5E10000E1E10000EDE10000F9E1000005E2000011E2000018
S32D0000C0C81DE2000029E2000035E2000041E200004DE2000059E2000065E2000071E200007DE2000089E2000038
S32D0000C0F095E20000CD350100A1E20000ADE20000B9E20000C5E20000D1E20000DDE20000E9E20000F5E2000040
S32D0000C11801E300000DE3000019E3000025E3000031E300003DE3000049E3000055E3000061E300006DE30000F5
S32D0000C14079E3000085E3000091E300009DE30000C90B0100A9E30000B5E30000C1E30000CDE30000D9E3000010
S32D0000C168E5E30000F1E30000FDE3000009E4000015E4000021E400002DE4000039E4000045E4000051E40000B6
S32D0000C1905DE4000069E4000075E4000005080100CD0601006907010009DE0000A508010081E400008DE40000DC
S32D0000C1B899E400003863020000000020E0160000386302000000FF1F00000000E0160020340500000000FF1F01
S32D0000C1E00000000080B489B000AFF860B9607A60BB68FB61FB68BB6100237B617A697B689A420BD2BA69131DFB
S32D0000C208BB61FB69191DF96112681A607B6904337B61EFE700BF2437BD4680BC704780B485B000AF786039609E
S32D0000C2307B68FB600023BB60BA683B689A4208D2FB681A1DFA6000221A60BB680433BB60F2E700BF1437BD46FE
S32D0000C25880BC704780B586B000AF72B6234B4CF220521A80214B4DF628121A80204B4FF4E9721A801F4B7B615F
S32D0000C2807B691F4A934214D27B691A1D7A611B683B617B691A1D7A611B68FB607B691A1D7A611B68BB60BA68E9
S32D0000C2A8F9683869FFF79AFFE6E77B69134A93420ED27B691A1D7A611B68FB607B691A1D7A611B68BB60B9688B
S32D0000C2D0F868FFF7A8FFECE70B4B7B600B4A7B681A6011F0A5FB62B601F056FE00F0DCF8FEE700BF0E200540B4
S32D0000C2F800200540BCC10000D4C10000E4C1000008ED00E000C0000080B400AFFEE780B400AFFEE780B400AFF4
S32D0000C320FEE780B400AFFEE780B400AFFEE780B400AFFEE780B400AFFEE780B400AFFEE780B400AFFEE780B426
S32D0000C34800AFFEE7FFFFFFFFFFFFFFFFFFFFFFFFFFFFFFFFFFFFFFFFFFFFFFFFFFFFFFFFFFFFFFFFFFFFFFFF57
S32D0000C370FFFFFFFFFFFFFFFFFFFFFFFFFFFFFFFFFFFFFFFFFFFFFFFFFFFFFFFFFFFFFFFFFFFFFFFFFFFFFFFFC7
S32D0000C398FFFFFFFFFFFFFFFFFFFFFFFFFFFFFFFFFFFFFFFFFFFFFFFFFFFFFFFFFFFFFFFFFFFFFFFFFFFFFFFF9F
S32D0000C3C0FFFFFFFFFFFFFFFFFFFFFFFFFFFFFFFFFFFFFFFFFFFFFFFFFFFFFFFFFFFFFFFFFFFFFFFFFFFFFFFF77
S32D0000C3E8FFFFFFFFFFFFFFFFFFFFFFFFFFFFFFFFFFFFFFFFFFFFFFFFFFFFFFFFFFFFFFFFFFFFFFFFFEFFFFFF50
S32D0000C44010B5054C237833B9044B13B10448AFF300800123237010BDE016002000000000A861020008B5034B00
S32D0000C4681BB103490348AFF3008008BD00000000E4160020A861020080B582B000AF78600B46FB707B68FA7838
S32D0000C4901146184604F052FA7B6818460837BD4680BD000000000000B0B586B000AF0F231C220721AA4801F004
S32D0000C4B8DFFBAA4AAA49AB4804F072FCA74AA849A94804F06DFCA949A94807F021FD00237B61A84800F0A0FF9A
S32D0000C4E00346002B08D0A54804F03AFA03461946A34805F09AFCF0E7A249A34801F023F9A049A24801F01FF919
S32D0000C5088DA1D1E9000103F00DFF9D4801F028F99C4801F025F97B69002B0DD19A499B4800F050FB00229A4940
S32D0000C5309A4800F065FB9649994800F047FB37E07B69012B18D19249964800F03FFB00229149954800F054FBAE
S32D0000C5584FF08041934800F035FB00228C49924800F04AFB4FF08041904800F02BFB1BE07B69022B18D1844904
S32D0000C580884800F023FB00228349874800F038FB4FF08041884800F019FB00227E49874800F02EFB4FF080412A
S32D0000C5A84FF0804000F00EFB6B4801F0ACFB64A1D1E9000103F0B6FE674801F006FC7E494FF0804000F0FEFA6B
S32D0000C5D04FF000007B4903F0A9FE614801F0D6FB6B49604800F0F2FA5D4801F074FB4FF00000754903F09AFE70
S32D0000C5F8594801F0EAFB70494FF0804000F0E2FA554801F0BFFB7B69022B05D100225E496C4800F0F1FA10E0A3
S32D0000C6207B69002B05D102225949694800F0E8FA07E07B69012B04D1002255495C4800F0DFFA6449504801F08F
S32D0000C6487EF862494F4801F07AF8434801F0C9FB0346012B0CBF01230023DBB2002B00D0F3E7474801F07CF88C
S32D0000C670464801F079F800224549574800F0C0FA5649414801F05FF84C49404801F05BF84FF00000524903F015
S32D0000C69849FE52493B4801F052F85149384801F04EF829A1D1E9000103F03CFE4D49344801F045F84549334888
S32D0000C6C001F041F8264801F090FB0346012B0CBF01230023DBB2002B00D0F3E729492A4801F031F82749294870
S32D0000C6E801F02DF81AA1D1E9000103F01BFE00222549374800F080FA3B49214801F01FF83949204801F01BF830
S32D0000C7104FF000004FF0804103F008FE35491B4801F011F83449184801F00DF8334800F0BFFE034683F001032D
S32D0000C738DBB2002B60D0F5E79A9999999999D93F666666666666F63F9A9999999999E93F333333333333E33FB4
S32D0000C760B8170020000010409A99193E4417002060170020C8410200101B002008170020A81A00200000F0C1A8
S32D0000C788281700200C170020000020400000E840CDCCCC3F000028420000D04000009041000034420000C040F4
S32D0000C7B00000B4420000A03F0000E04000009642000020C0000004400000F83F0000D242000034430000204246
S32D0000C7D80000AA42000070420000F03F00008C420000A0420000F041000048420000A0410000A0C10017002082
S32D0000C800A94800F0B1FFA94800F0AEFF0123FB74FB7C184600F0C8FA0022A549A54800F0EFF94FF08041A44810
S32D0000C82800F0D0F9A34804F097F8F860A249A34805F0E4FAA24801F04AFA4FF040414FF07A5000F0BFF99E4844
S32D0000C85001F0BFFA4FF040419C4800F0B7F9002293499B4800F0CCF94FF04041994800F0ADF902228E49984824
S32D0000C87800F0C2F994498A4800F061FF9249894800F05DFF03F074FD02460B46104619460FF0AEFB0346BB6032
S32D0000C8A0894801F0A2FA0346012B1AD103F064FD04460D46B8680FF065F802460B46204629460EF0FFFE02468E
S32D0000C8C80B46104619464FF00002824B0FF020FB0346002B01D0012300E00023002B00D0DAE76F4800F03CFF0A
S32D0000C8F06E4800F039FF7A496B4800F024FF78496A4800F020FF64A1D1E9000103F00EFD4FF040414FF08040B4
S32D0000C91800F058F900226449704800F06DF94FF08041684800F04EF900225F496C4800F063F9634801F0CBF9C2
S32D0000C9406A49594800F0FFFE6849584800F0FBFE03F012FD02460B46104619460FF04CFB03467B60584801F003
S32D0000C96840FA0346002B1AD003F002FD04460D4678680FF003F802460B46204629460EF09DFE02460B461046AA
S32D0000C99019464FF00002564B0FF0BEFA0346002B01D0012300E00023002B00D0DAE73E4800F0DAFE3D4800F096
S32D0000C9B8D7FE434801F009FA4C494FF07A5000F001F93F4801F0BDF94649364800F0B7FE4449334800F0B3FEEC
S32D0000C9E02FA1D1E9000103F0A1FC4249424800F0EDF8354801F08BF900224049404800F0FFF83E493F4800F01A
S32D0000CA08E1F82F4801F0E1F93D49254800F097FE3149244800F093FE3A4800F045FD034683F00103DBB2002BDA
S32D0000CA3000D0F5E71C4800F097FE1C4800F094FEFB7C184600F0B0F91F4801F09FF900F0D7FB1D4801F05BF993
S32D0000CA58022228492C4800F0CFF826491B4800F0B1F8174801F0B1F925490D4800F067FE19490C4800F063FE6C
S32D0000CA80224800F015FD034683F00103DBB2002B40D0F5E7AFF300809A9999999999C93FCDCCCCCCCCCCE43F0B
S32D0000CAA80C17002028170020CDCCCC3F000020410000604008170020D4410200A81A0020B81700200000304082
S32D0000CAD0000070410000C0400000144200000A400000A0410000C4420000B4420000F04100000840000020C0B1
S32D0000CAF86666A63F000020400000E6420000D0400000A0C1001700200000F042224800F027FE224800F024FE02
S32D0000CB20FB7C184600F098F802221F491F4800F067F81F4801F0CFF81E491A4800F003FE1C49174800F0FFFDC7
S32D0000CB484FF000001A4903F0EDFB174801F03DF91849114800F0F3FD1749104800F0EFFD114801F03EF90346C4
S32D0000CB70012B0CBF01230023DBB2002B00D0F3E7074800F0F1FD074800F0EEFD0D490E4805F038F9012318464C
S32D0000CB981837BD46B0BD00BF0C170020281700200000204000000C42B81700200000A0420000F83F0000A041B8
S32D0000CBC000002042E8410200A81A002080B582B000AF786039603968064801F015F8064B064A7968034800F0A7
S32D0000CBE8B7FE00BF0837BD4680BD00BF7C170020601700204417002080B586B000AFF860B9601346FB714FF019
S32D0000CC1000037B61FB79002B04D1BB6883F000437B6104E0FB79022B01D1BB687B617969064800F0E9FF064B3F
S32D0000CC38064AF968034800F02BFF00BF1837BD4680BD00BF7C170020601700204417002080B586B000AF034683
S32D0000CC60FB71FB79FB730023FB750123BB7500237B7501233B613B69022B31D03B69022B47DC3B69002B03D036
S32D0000CC883B69012B14D040E03D493E4800F057FD3D493E4800F053FD7B7D002B02D002233B612DE0BB7D002BE8
S32D0000CCB02AD001233B6127E03549344800F043FD3349344800F03FFD7B7D002B02D002233B611BE0FB7D002BF3
S32D0000CCD818D000233B6115E02B492A4800F02FFD27492A4800F02BFDFB7D002B02D000233B6109E0BB7D002B16
S32D0000CD0006D001233B6103E000BF02E000BF00E000BF1BA1D1E9000103F008FBFB7B19461D4800F0D1FC0346E0
S32D0000CD28FB75FB7B19461B4800F0CAFC0346BB75FB7B1946184800F0C3FC03467B75FB7D83F00103DBB2002B42
S32D0000CD5091D0BB7D83F00103DBB2002B8BD07B7D83F00103DBB2002B00D184E7074800F0FBFC084800F0F8FCC5
S32D0000CD7800BF1837BD4680BD9A9999999999A93F0000A0400C1700200000A04128170020FC16002000170020F4
S32D0000CDA0041700200000000080B586B000AF0346FB71FB79FB730023FB750123BB7500237B7501233B613B691B
S32D0000CDC8022B31D03B69022B47DC3B69002B03D03B69012B14D040E03D493E4800F0AFFC3D493E4800F0ABFC5B
S32D0000CDF07B7D002B02D002233B612DE0BB7D002B2AD001233B6127E03549344800F09BFC3349344800F097FC32
S32D0000CE187B7D002B02D002233B611BE0FB7D002B18D000233B6115E02B492A4800F087FC27492A4800F083FC52
S32D0000CE40FB7D002B02D000233B6109E0BB7D002B06D001233B6103E000BF02E000BF00E000BF1BA1D1E9000155
S32D0000CE6803F060FAFB7B19461D4800F029FC0346FB75FB7B19461B4800F022FC0346BB75FB7B1946184800F063
S32D0000CE901BFC03467B75FB7D83F00103DBB2002B91D0BB7D83F00103DBB2002B8BD07B7D83F00103DBB2002B33
S32D0000CEB800D184E7074800F053FC084800F050FC00BF1837BD4680BD9A9999999999A93F000040400C17002066
S32D0000CEE00000704128170020FC16002000170020041700200000000090B587B000AFC7E902017A602A4804F052
S32D0000CF0865F82A4804F062F823A3D3E90023D7E902010EF08BFD02460B461046194620A3D3E900230EF0ACFE58
S32D0000CF3002460B46104619460FF016F803467B614FF07D5178680FF0ADF8034619461A4800F0F9FB7968194892
S32D0000CF5800F0F5FB144804F02EF80446134804F02AF803462344DA0F13445B101A467B699342CCBF0123002354
S32D0000CF80DBB2002B00D0E9E70B4800F0EDFB0B4800F0EAFB00BF1C37BD4690BDAFF30080105839B4C876294058
S32D0000CFA885EB51B81E85F33F44170020601700200C1700202817002090B587B000AFC7E902017A60344804F031
S32D0000CFD001F8344803F0FEFF2BA3D3E90023D7E902010EF027FD02460B461046194628A3D3E900230EF048FE00
S32D0000CFF802460B46104619460EF0B2FF03467B617B6883F0004318460EF0B8FC20A3D3E900230EF053FB02460A
S32D0000D0200B46104619460EF0E7FF034619461E4800F089FB79684FF07C500FF031F8034619461A4800F07FFBEE
S32D0000D048154803F0B8FF0446144803F0B4FF03462344DA0F13445B101A467B699342CCBF01230023DBB2002B69
S32D0000D07000D0E9E70C4800F077FB0C4800F074FB00BF1C37BD4690BD105839B4C876294085EB51B81E85F33FDD
S32D0000D098666666666666F63F44170020601700200C1700202817002090B587B000AFC7E902017A60224803F008
S32D0000D0C089FF224803F086FF1DA3D3E90023D7E902010EF0AFFC02460B46104619460EF043FF03467B617B6837
S32D0000D0E883F000431946184800F029FB7968174800F025FB134803F05EFF0446104803F05AFF0346DA0F13441F
S32D0000D1105B1023447A699A42CCBF01230023DBB2002B00D0EAE70B4800F01EFB084800F01BFB00BF1C37BD466E
S32D0000D13890BD00BFAFF300805FFBB8ECC671EC3F44170020601700200C1700202817002090B587B000AFC7E9AC
S32D0000D16002017A60224803F035FF224803F032FF1DA3D3E90023D7E902010EF05BFC02460B46104619460EF0A2
S32D0000D188EFFE03467B617968194800F0D8FA7B6883F000431946174800F0D1FA124803F00AFF0446114803F065
S32D0000D1B006FF0346DA0F13445B1023447A699A42CCBF01230023DBB2002B00D0EAE70B4800F0CAFA084800F0C0
S32D0000D1D8C7FA00BF1C37BD4690BD00BFAFF300805FFBB8ECC671EC3F44170020601700200C1700202817002011
S32D0000D20080B500AF424A4FF000004FF08041FFF773FE3F4A4FF000003E49FFF79DFF3C4A4FF000003C49FFF7C9
S32D0000D22867FE3C4800F053FD31A1D1E9000103F079F8384800F0C9FD334A2FA1D1E90001FFF756FE304A4FF07D
S32D0000D25000003349FFF72CFF304800F03CFD26A1D1E9000103F062F82C4800F0B2FD284A4FF000002849FFF778
S32D0000D2783FFE254A4FF000002849FFF715FF224A1FA1D1E90001FFF733FE224800F059FD234A4FF0000023494C
S32D0000D2A0FFF706FF224A4FF000002249FFF724FE1D4A4FF000004FF08041FFF781FE1A4A4FF000001C49FFF71E
S32D0000D2C8F3FE174A4FF000001A49FFF711FE144A4FF000001849FFF73BFF114A4FF000000D49FFF769FE00BF05
S32D0000D2F080BD00BFAFF30080666666666666FE3FCDCCCCCCCCCCEC3F333333333333D33F000070410080534055
S32D0000D3180000E03FB81700200000144000002E400000F04100003440000020420000044000003E4000000C4002
S32D0000D3400000494080B582B000AF786039607B68012B3DD13B684FF6FF72934238D100221A211D4800F08CF825
S32D0000D36801220A211B4800F087F8022208211A4800F082F800211948FFF77EF8184A0021184800F0B6F9164A8E
S32D0000D3900221174800F0B1F91821164803F05AFC154A1649134807F0FFF80321144803F051FC114A114912489D
S32D0000D3B807F0F6F80C4A0B49104800F08BFA104A0321104800F02AFC00BF0837BD4680BDFC1600200017002058
S32D0000D3E00417002008170020000010410C170020281700204417002000000020350E0100601700207C17002089
S32D0000D4080000A040B817002080B500AF4FF6FF710120FFF793FF80BD80B584B000AF78607B68184603F098FAF2
S32D0000D430F860F8680EF0A6FA0DA3D3E900230EF06BFD0346002B0AD1F8680EF09BFA0AA3D3E900230EF07EFD3C
S32D0000D4580346002B01D0012300E0002318461037BD4680BDAFF300809A9999999999B93F9A9999999999F13FDD
S32D0000D48080B582B000AF78600B46FB701346BB707B68FA781146184603F050FA7B68BA785A707B6818460837AA
S32D0000D4A8BD4680BD0000000080B584B000AF78600023FB737B68184603F04EFAB8603E493E4804F0FCFBB968E8
S32D0000D4D03C4804F0AAFC7B685B78022B39D0022B52DC002B02D0012B1BD04DE0B8680EF049FA29A3D3E900237C
S32D0000D4F80EF022FD0346002B0CD0B8680EF03EFA25A3D3E900230EF00DFD0346002B01D0012300E00023FB73BA
S32D0000D52032E0B8680EF02EFA1FA3D3E900230EF007FD0346002B09D04FF07F51B8680FF061F80346002B01D0C9
S32D0000D548012300E00023FB731AE0B8680EF016FA15A3D3E900230EF0EFFC0346002B0CD0B8680EF00BFA12A350
S32D0000D570D3E900230EF0DAFC0346002B01D0012300E00023FB7300BFFB7B18461037BD4680BD00BFAFF3008005
S32D0000D5987B14AE47E17AB43F333333333333D33FCDCCCCCCCCCCEC3FCDCCCCCCCCCCFC3F9A999999999901407F
S32D0000D5C0B8420200A81A002080B584B000AF78600023FB737B68184603F0C2F9B8607B685B78022B3CD0022BBB
S32D0000D5E852DC002B02D0012B1BD04DE0B8680EF0C5F929A3D3E900230EF09EFC0346002B0CD0B8680EF0BAF966
S32D0000D61025A3D3E900230EF089FC0346002B01D0012300E00023FB7332E0B8680EF0AAF91FA3D3E900230EF076
S32D0000D63883FC0346002B0CD0B8680EF09FF91CA3D3E900230EF06EFC0346002B01D0012300E00023FB7317E068
S32D0000D6604FF07F51B8680EF0D7FF0346002B0CD0B8680EF087F912A3D3E900230EF056FC0346002B01D001235E
S32D0000D68800E00023FB7300BFFB7B18461037BD4680BD00BFAFF300807B14AE47E17AB43FA4703D0AD7A3D03F52
S32D0000D6B0666666666666E63FCDCCCCCCCCCCF03FCDCCCCCCCCCCFC3F80B584B000AF78600B46FB70FB78012B7C
S32D0000D6D805D17868FFF7E8FE0346FB7304E07868FFF76EFF0346FB73FB7B18461037BD4680BD80B584B000AF8A
S32D0000D700F8600B467A60FB72FB68F97A7A68184600F0CAFEFB684FF000029A60FB6818461037BD4680BD80B522
S32D0000D72882B000AF78607B684FF000020121184600F0B6FE7B6818460837BD4680BD80B582B000AF786039608B
S32D0000D7507B683A689A607B683968184600F024FF00BF0837BD4680BD80B582B000AF78607B68184600F0D6FE06
S32D0000D7787B684FF000029A6000BF0837BD4680BD80B582B000AF78607B684FF000029A617B6800221A617B68B7
S32D0000D7A04FF000025A6102F0E7FD02460B46104619460EF021FC02467B68DA6000BF0837BD4680BD000000007D
S32D0000D7C890B58BB000AFF860B9607A6002F0D0FD02460B46104619460EF00AFC03467B62FB681B697A68D31ACC
S32D0000D7F018460EF00BFD0446FB68DB681946786A0EF04EFC0346194620460EF007FE034618460EF0B7F82EA3F8
S32D0000D818D3E900230EF00AF902460B46104619460EF0E6FB03463B62396AB8680EF034FC0346FB61FB689B69F2
S32D0000D840F96918460EF02EFC03461A46FB689A61214B1B681946F8690EF02CFD0346BB61FB689B691C4A526809
S32D0000D868114618460EF022FD03467B61FB685B691946F8690EF010FC03461A46144B9B68194610460EF012FDDD
S32D0000D89003463B61FB68FA695A61FB687A6ADA60FB687A681A61FB689B68B96918460EF0F9FB03467969184662
S32D0000D8B80EF0F4FB0346396918460EF0EFFB034618462C37BD4690BDCCEEC9C342ADB93F04000020B0B584B0E0
S32D0000D8E000AFF860B9607A60FB681846FFF71BFFFB681C331846FFF716FFFA68BB6814461D460FCD0FC495E8C6
S32D0000D908070084E80700FB687A6803F11C0415460FCD0FC495E8070084E80700FB684FF000029A63FB681846BB
S32D0000D9301037BD46B0BD80B582B000AF78607B681C331846FFF720FF7B681846FFF71CFF00BF0837BD4680BDEF
S32D0000D95890B589B000AFF860B9607A603B60F868FFF7E5FF786803F031FB386803F02EFBB8680EF003F840A39D
S32D0000D980D3E900230EF056F802460B46104619460EF0EAFA0346FB61FB6803F11C04FB689B6B3B4918460EF0B9
S32D0000D9A885FC034619462046FFF7C9FEFC68FB689B6B354918460EF079FC034619462046FFF7BDFEFB689B6BC1
S32D0000D9D04FF0000118460EF029FE0346002B01D0012301E04FF0FF33BB6127A1D1E9000102F09CFC786803F0AF
S32D0000D9F8E2FA7861386803F0DEFA3861FB6803F11C04FB6803F11C00FB68996BBB693A6902FB03F31A46FFF7E7
S32D0000DA20D3FE034619462046FFF78DFEFC68F868FB68996BBB697A6902FB03F31A46FFF7C3FE0346194620462E
S32D0000DA48FFF77DFE7A693B691344DA0F13445B101A46FB69934200DDC3E7FB681846FFF77FFEFB681C33184652
S32D0000DA70FFF77AFE00BF2437BD4690BDAFF30080A779C7293AF223409A9999999999C93F0000E0400000000030
S32D0000DA9890B589B000AFF860B9607A603B60F868FFF745FF786803F091FA386803F08EFAB8680DF063FF4CA3CC
S32D0000DAC0D3E900230DF0B6FF02460B46104619460EF04AFA0346FB61FB689B6B4FF0000118460EF085FD0346A2
S32D0000DAE8002B02D04FF0FF3300E00123BB61FC68FB689B6B404918460EF0D8FB034619462046FFF71CFEFB687C
S32D0000DB1003F11C04FB689B6B83F00043384918460EF0C8FB034619462046FFF70CFE32A1D1E9000102F0FAFB91
S32D0000DB38786803F040FA7861386803F03CFA3861FC68F868FB68996BBB697A6902FB03F31A46FFF735FE034680
S32D0000DB6019462046FFF7EFFDFB6803F11C04FB6803F11C00FB689B6B83F00041BB695B423A6902FB03F31A4632
S32D0000DB88FFF71EFE034619462046FFF7D8FD7A693B691344DA0F13445B101A46FB69934213DDFB689B680122E9
S32D0000DBB01446144918460EF01BFD0346002B01D100231C46E3B283F00103DBB2002B00D1ADE7FB681846FFF771
S32D0000DBD8C7FDFB681C331846FFF7C2FD00BF2437BD4690BDAFF30080256986AE2E49E53F9A9999999999C93F0E
S32D0000DC000000E0400000F04180B483B000AF786039607B683A689A6300BF0C37BD4680BC7047000080B584B03B
S32D0000DC2800AFF8600B467A60FB72FB68F97A7A68184600F035FCFB6806331F21184602F0E1FBFB6807331F2113
S32D0000DC50184602F0DBFBFB6808331F21184602F0D5FBFB68034ADA60FB6818461037BD4680BD00BF0000C84287
S32D0000DC7880B586B000AF7860084611461A460346FB700B46BB7013467B70FA7807F10C031146184602F0B6FB42
S32D0000DCA07B683A7B9A71BA7807F110031146184602F0ACFB7B683A7CDA717A7807F114031146184602F0A2FBFF
S32D0000DCC87B683A7D1A7200BF1837BD4680BD80B582B000AF78607B680633184602F06EFC0346012B0CBF012392
S32D0000DCF00023DBB2002B06D07A687B68DB681946104600F051FC00BF0837BD4680BD80B582B000AF78607B684C
S32D0000DD180733184602F052FC0346012B0CBF01230023DBB2002B08D07A687B68DB6883F000431946104600F08B
S32D0000DD4033FC00BF0837BD4680BD80B582B000AF78607A687B68DB681946104600F024FC7B680633184602F021
S32D0000DD682DFC0346012B0CBF01230023DBB2002B00D0F1E77B68184600F0D0FB00BF0837BD4680BD80B582B0DC
S32D0000DD9000AF78607A687B68DB6883F000431946104600F001FC7B680733184602F00AFC0346012B0CBF0123A7
S32D0000DDB80023DBB2002B00D0F1E77B68184600F0ADFB00BF0837BD4680BD80B582B000AF78607B68184600F084
S32D0000DDE0A1FB00BF0837BD4680BD80B582B000AF78607B680833184602F0E4FB034618460837BD4680BD0000DA
S32D0000DE0880B500AF0F4BD3F8A03003F48053002B14BF01230023DBB2002B10D0094BD3F8A030084A23F4805341
S32D0000DE30C2F8A030064806F045FB064B1B68054A23F40053136000BF80BD00BF00C00440301B0020C0F00F408D
S32D0000DE5880B400AF124B4FF480725A63114B5B69104A43F4005353610E4B1B680D4A43F4005313600A4B0C4AD7
S32D0000DE801A630C4BD3F888310A4A43F08063C2F88831084B9B68074A43F08063936000BFBD4680BC704700BF1B
S32D0000DEA800C00440C0F00F4003010A0000E100E080B400AF334B00225A70324B98221A70304B9B79DBB203F05D
S32D0000DED01003002B14BF01230023DBB2002B00D0F2E72A4B9B79DBB29B08DBB203F00303022B14BF01230023E5
S32D0000DEF8DBB2002B00D0F0E7224B18221A71214B00225A71204B03F580531A461F4B53641C4B54225A711B4B4D
S32D0000DF209B79DBB203F02003002B0CBF01230023DBB2002B00D0F2E7144B9B79DBB203F04003002B0CBF01232E
S32D0000DF480023DBB2002B00D0F2E70E4B1B78DBB20C4A03F03F03DBB213700A4B9B79DBB29B08DBB203F00303F4
S32D0000DF70032B14BF01230023DBB2002B00D0F0E700231846BD4680BC704700BF00400640007004400000130158
S32D0000DF9880B500AF314B03F580539B6B2F4A43F4785302F580529363FFF752FFFFF780FF2B4B58221A602A4B55
S32D0000DFC01B684FF47A7202FB03F3284A1360274B1B681A46234B03F580535B6C1B0E03F00F030133B2FBF3F35F
S32D0000DFE81A46214B1A601D4B03F58053DB6B1B4A43F0225302F58052D363184B03F580531B6B164A43F0006396
S32D0000E01002F580521363174B4FF480721A61642002F05AF8134B5B69124A23F010035361104B00221A600F4B20
S32D0000E03810225A610E4803F003FB02F075FD02F0D3FD0C4802F0A6F80B4806F08BFA4FF4FA6002F051F900BF16
S32D0000E06080BD00BF00700440F4190020F0190020F819002000D00340A81A0020EC190020A01B002080B500AF82
S32D0000E088FEF75DF900BF80BD80B500AFFEF757F900BF80BD80B500AFFEF751F900BF80BD80B500AFFEF74BF9C2
S32D0000E0B000BF80BD80B500AFFEF745F900BF80BD80B500AFFEF73FF900BF80BD80B500AFFEF739F900BF80BD1F
S32D0000E0D880B500AFFEF733F900BF80BD80B500AFFEF72DF900BF80BD80B500AFFEF727F900BF80BD80B500AF45
S32D0000E100FEF721F900BF80BD80B500AFFEF71BF900BF80BD80B500AFFEF715F900BF80BD80B500AFFEF70FF939
S32D0000E12800BF80BD80B500AFFEF709F900BF80BD80B500AFFEF703F900BF80BD80B500AFFEF7FDF800BF80BD5B
S32D0000E15080B500AFFEF7F7F800BF80BD80B500AFFEF7F1F800BF80BD80B500AFFEF7EBF800BF80BD80B500AF83
S32D0000E178FEF7E5F800BF80BD80B500AFFEF7DFF800BF80BD80B500AFFEF7D9F800BF80BD80B500AFFEF7D3F8B5
S32D0000E1A000BF80BD80B500AFFEF7CDF800BF80BD80B500AFFEF7C7F800BF80BD80B500AFFEF7C1F800BF80BD99
S32D0000E1C880B500AFFEF7BBF800BF80BD80B500AFFEF7B5F800BF80BD80B500AFFEF7AFF800BF80BD80B500AFBF
S32D0000E1F0FEF7A9F800BF80BD80B500AFFEF7A3F800BF80BD80B500AFFEF79DF800BF80BD80B500AFFEF797F82D
S32D0000E21800BF80BD80B500AFFEF791F800BF80BD80B500AFFEF78BF800BF80BD80B500AFFEF785F800BF80BDD4
S32D0000E24080B500AFFEF77FF800BF80BD80B500AFFEF779F800BF80BD80B500AFFEF773F800BF80BD80B500AFFA
S32D0000E268FEF76DF800BF80BD80B500AFFEF767F800BF80BD80B500AFFEF761F800BF80BD80B500AFFEF75BF8A4
S32D0000E29000BF80BD80B500AFFEF755F800BF80BD80B500AFFEF74FF800BF80BD80B500AFFEF749F800BF80BD10
S32D0000E2B880B500AFFEF743F800BF80BD80B500AFFEF73DF800BF80BD80B500AFFEF737F800BF80BD80B500AF36
S32D0000E2E0FEF731F800BF80BD80B500AFFEF72BF800BF80BD80B500AFFEF725F800BF80BD80B500AFFEF71FF81C
S32D0000E30800BF80BD80B500AFFEF719F800BF80BD80B500AFFEF713F800BF80BD80B500AFFEF70DF800BF80BD4B
S32D0000E33080B500AFFEF707F800BF80BD80B500AFFEF701F800BF80BD80B500AFFDF7FBFF00BF80BD80B500AF6B
S32D0000E358FDF7F5FF00BF80BD80B500AFFDF7EFFF00BF80BD80B500AFFDF7E9FF00BF80BD80B500AFFDF7E3FF7B
S32D0000E38000BF80BD80B500AFFDF7DDFF00BF80BD80B500AFFDF7D7FF00BF80BD80B500AFFDF7D1FF00BF80BD75
S32D0000E3A880B500AFFDF7CBFF00BF80BD80B500AFFDF7C5FF00BF80BD80B500AFFDF7BFFF00BF80BD80B500AF9B
S32D0000E3D0FDF7B9FF00BF80BD80B500AFFDF7B3FF00BF80BD80B500AFFDF7ADFF00BF80BD80B500AFFDF7A7FFF3
S32D0000E3F800BF80BD80B500AFFDF7A1FF00BF80BD80B500AFFDF79BFF00BF80BD80B500AFFDF795FF00BF80BDB1
S32D0000E42080B500AFFDF78FFF00BF80BD80B500AFFDF789FF00BF80BD80B500AFFDF783FF00BF80BD80B500AFD6
S32D0000E448FDF77DFF00BF80BD80B500AFFDF777FF00BF80BD80B500AFFDF771FF00BF80BD80B500AFFDF76BFF6A
S32D0000E47000BF80BD80B500AFFDF765FF00BF80BD80B500AFFDF75FFF00BF80BD80B500AFFDF759FF00BF80BDEC
S32D0000E49880B500AFFDF753FF00BF80BD0000000080B584B000AFF8600B467A60FB72FB68FA7A1A71FB68002241
S32D0000E4C05A71174978680EF0B1F80346002B02D0134B7B600AE04FF07E5178680EF092F80346002B02D04FF018
S32D0000E4E87E537B6078680DF049FA09A3D3E900230DF09CFA02460B46104619460DF078FD0246FB681A60FB68D4
S32D0000E51018461037BD4680BDABAAAAAAAAAA20400000404180B582B000AF78607B685B79002B09D07B6800226C
S32D0000E5385A717B6819791E230022034801F064FE00BF0837BD4680BDEC19002080B584B000AF786039603B68E5
S32D0000E5607F2B02DD7F23FB7308E03B6813F1800F02DA8023FB7301E03B68FB737B685B79FA7B9A4209D07B6833
S32D0000E588FA7B5A717B681979FA7B1E23034801F03BFE00BF1037BD4680BD00BFEC190020B0B584B000AF78603B
S32D0000E5B03960374938680EF01BF80346002B02D0334B3B6008E0334938680EF02FF80346002B01D02F4B3B6091
S32D0000E5D838680DF0D3F904460D467B681B6818460DF0CCF94FF00002294B0DF049FB02460B46204629460DF028
S32D0000E60019FA02460B46104619460DF0F5FC03463B604FF0000138680DF0FEFF0346002B10D038680DF0AEF947
S32D0000E62817A3D3E900230DF001FA02460B46104619460DF095FC0346FB6018E038680DF09DF94FF00002134BE9
S32D0000E6500DF0F0F902460B46104619464FF000020D4B0DF011FB02460B46104619460DF07BFC0346FB60F968FF
S32D0000E6787868FFF76BFF00BF1037BD46B0BD00BF52B81E85EB51F43F0000C8C20000C842000059400000604016
S32D0000E6A080B483B000AF03460A46FB711346BB71BB79002B03D1134B00221A7002E0114B01221A703823FB71BD
S32D0000E6C80E4B1A78FB791343FB710D4B9B78DBB20B4A43F01003DBB29370094B9B78DBB2074A43F02003DBB2B8
S32D0000E6F09370054AFB79137100BF0C37BD4680BC704700BFC81700200060064080B483B000AF01237B607B685E
S32D0000E718312B04DC00BF7B6801337B60F7E700BF0C37BD4680BC704780B582B000AF03460A46FB711346BB7170
S32D0000E740134B1B7800211846FFF7AAFF00F024F8104AFB79137100F01FF80E4ABB79137100F01AF80B4B9B78BC
S32D0000E768DBB20A4A23F02003DBB29370074B9B78DBB2064A23F01003DBB29370FFF7C2FF00BF0837BD4680BDEF
S32D0000E790C91700200060064080B483B000AF174B1B78002B24D100237B60154BDB78DBB203F00203002B0CBF5E
S32D0000E7B801230023DBB2002B0DD07B6842F21072934203DD0B4B01221A7004E07B6801337B6000BFE5E7084B52
S32D0000E7E0DB78DBB2064A43F00203DBB2D37000E000BF0C37BD4680BC704700BFCA1700200060064080B582B02E
S32D0000E80800AF0346FB71FB79184600F05FF800BF0837BD4680BD80B582B000AF03460A46FB711346BB7100F097
S32D0000E83035F8FB795B00DBB21846FFF7E3FFBB791846FFF7DFFF00F037F800BF0837BD4680BD80B500AFFF2035
S32D0000E85800F03CF80346184680BD80B584B000AF0346FB7100F016F8FB795B005BB243F001035BB2DBB21846B4
S32D0000E880FFF7C0FFFFF7E5FF0346FB7300F014F8FB7B18461037BD4680BD000080B400AF044B9B68034A43F414
S32D0000E8A88013936000BFBD4680BC704740F00F4080B400AF044B5B68034A43F48013536000BFBD4680BC704714
S32D0000E8D040F00F4080B485B000AF0346FB710023BB73164BDB6A03F00043012B0CBF01230023DBB2002B03D0D8
S32D0000E8F8FB7B0133FB73F0E70E4BDB6A0D4A43F00043D3620B4AFB7953630A4BDB6A03F40033002B0CBF012306
S32D0000E9200023DBB2002B00D0F3E7044B9B6BBB73BB7B18461437BD4680BC704700C00A4080B582B000AF204B61
S32D0000E94803F580531B6B1E4A43F4805302F5805213631C4B4FF480721A651B4B5B691A4A43F480135361FFF782
S32D0000E970A3FF164B4FF400725A65144B4FF400729A65124B4FF40072DA65124B124A1A60104B124ADA60002357
S32D0000E9987B607B68092B06DCFF20FFF72FFF7B6801337B60F5E704A1D1E9000101F0BAFC00BF0837BD4680BD27
S32D0000E9C09A9999999999B93F0070044000A0044040F00F4000C00A40000C00800500003E90B486B000AFF86029
S32D0000E9E8B9607A60FB68534A93420AD1524B03F580535B6B504A43F4806302F58052536345E0FB684D4A934209
S32D0000EA100AD14B4B03F580535B6B494A43F4006302F58052536336E0FB68474A93420AD1434B03F580535B6B51
S32D0000EA38414A43F4805302F58052536327E0FB68404A93420AD13C4B03F580535B6B3A4A43F4005302F5805209
S32D0000EA60536318E0FB683A4A93420AD1344B03F580539B6A324A43F4806302F58052936209E02F4B03F5805372
S32D0000EA889B6A2D4A43F4006302F580529362FB68DB78DBB223F00C03DAB2FB68DA70FB6800229A70BB684FF4F9
S32D0000EAB07A7203FB02F27B681B0192FBF3F39CB2FB681B78DBB223F01F03FB75230A9BB2DBB203F01F03DAB2CA
S32D0000EAD8FB7D1343DAB2FB681A70E2B2FB685A70BB684FF4FA4203FB02F27B681B0192FBF3F39AB263019BB205
S32D0000EB00D31A9CB2FB689B7ADBB223F01F03FB75E3B203F01F03DAB2FB7D1343DAB2FB689A72FB68DB78DBB2C0
S32D0000EB2843F00C03DAB2FB68DA7000BF1837BD4690BC704700A006400070044000B0064000C0064000D0064084
S32D0000EB5000A00E4080B483B000AF78607B681B79DBB203F02003002B0CBF01230023DBB2002B00D0F2E77B6820
S32D0000EB78DB79DBB218460C37BD4680BC704780B483B000AF78600B46FB707B681B79DBB25BB2DB43DBB2DB09AD
S32D0000EBA0DBB2002B00D0F4E77B68FA78DA7100BF0C37BD4680BC704780B487B000AFF860B9607A60FB687B61A8
S32D0000EBC87B685A1E7A60002B14BF01230023DBB2002B06D07B695A1C7A61BA68D2B21A70EEE700BF1C37BD46C8
S32D0000EBF080BC704780B584B000AF786039607B681B6BFB60FA683B689A4252D07B681B79002B35D07B6858785A
S32D0000EC187B6803F134010123FA6801F0F7F80346002B14BF01230023DBB2002B01D001233CE07B6800221A7175
S32D0000EC407B685A6A7B681B6A1344FA689A4217D27B68DB78FB72FB7A012B11D97B681B6AFA681344FB607B688C
S32D0000EC6858787B6803F134010123FA6801F0CEF8FB7A013BFB72EAE73B68002B15D07B6858787B6803F1340104
S32D0000EC9001233A6800F0DAFF0346002B14BF01230023DBB2002B01D0012303E07B683A681A63002318461037DF
S32D0000ECB8BD4680BD80B584B000AF786000217868FFF794FF0346FB73FB7B002B40F093807B681B78032B7DD1E7
S32D0000ECE07B685B79002B79D07B6800221A637B6834334FF4007200211846FFF75DFF7B68552283F832227B687D
S32D0000ED08AA2283F833227B68522283F834207B68522283F835207B68612283F836207B68412283F837207B68C2
S32D0000ED30722283F818227B68722283F819227B68412283F81A227B68612283F81B227B681B69DAB27B6883F8D3
S32D0000ED581C227B681B699BB21B0A9BB2DAB27B6883F81D227B681B691B0CDAB27B6883F81E227B681B691B0EB8
S32D0000ED80DAB27B6883F81F227B68DB68DAB27B6883F820227B68DB689BB21B0A9BB2DAB27B6883F821227B68F3
S32D0000EDA8DB681B0CDAB27B6883F822227B68DB681B0EDAB27B6883F823227B6858787B6803F134017B685A69C2
S32D0000EDD0012301F01FF87B6800225A717B685B7800220021184601F0E1F80346002B14BF01230023DBB2002BB2
S32D0000EDF801D00123FB73FB7B18461037BD4680BD80B582B000AF78600B467B807B68002B08D07B681B78002B6E
S32D0000EE2004D07B68DB887A889A4201D0092311E07B685B78184601F03BF9034603F00103002B14BF0123002320
S32D0000EE48DBB2002B01D0032300E0002318460837BD4680BD80B586B000AF78607B681A687B689B8819461046FB
S32D0000EE70FFF7CAFF0346FB75FB7D002B40F0AC807B689B7903F02003002B00F0A5807B689B7903F04003002B58
S32D0000EE981BD07B681B6858787B6803F128017B689A69012300F0B2FF0346002B14BF01230023DBB2002B01D069
S32D0000EEC001238AE07B689B7923F04003DAB27B689A717B681A687B68DB6919461046FFF789FE0346FB75FB7DE0
S32D0000EEE8002B75D17B681B6A3B613B690B331A783B690B3342F02002D2B21A707B68DA683B691C33D2B21A70A9
S32D0000EF107B68DB689BB21B0A9AB23B691D33D2B21A707B68DB681A0C3B691E33D2B21A707B68DB681A0E3B69AC
S32D0000EF381F33D2B21A707B681A693B691A33D2B21A707B681B699BB21B0A9AB23B691B33D2B21A707B681B695A
S32D0000EF601A0C3B691433D2B21A707B681B691B0C9BB21B0A9AB23B691533D2B21A700023FB603B691633FA6851
S32D0000EF88D2B21A70FB689BB21B0A9AB23B691733D2B21A70FB681A0C3B691833D2B21A70FB681A0E3B6919332F
S32D0000EFB0D2B21A707B689B7923F02003DAB27B689A717B681B6801221A717B681B681846FFF774FE0346FB7585
S32D0000EFD8FB7D18461837BD4680BD80B584B000AF78607868FFF736FF0346FB73FB7B002B02D17B6800221A6001
S32D0000F000FB7B18461037BD4680BD000080B588B000AF7860396080233B610F23FB604FF0FF337B610223FB6160
S32D0000F028FB69B3F5807F23D80123BB61BB69102B1AD8FB69BA6902FB03F33A6803FB02F27B68D31ABB60BB6807
S32D0000F050002B09DBBB687A699A4205D9BB687B61FB693B61BB69FB60BB690133BB61E1E7FB695B00FB61D7E730
S32D0000F0781D4BDB6A1C4A23F00803D3621A4BDB6A23F47F2323F47F63BB613B695B081B029AB2FB68013B1B0161
S32D0000F0A0DBB21A43BB691343114A43F46023D3620F4B5B6A03F00803002B0CBF01230023DBB2002B03D00A2085
S32D0000F0C801F01AF9F0E7084BDB6A074A43F00803D362054B1B6B044A43F48013136300BF2037BD4680BD00BF6A
S32D0000F0F000100B4080B582B000AF786039607B6800221A60414B424ADA62404BDB6A03F08073002B14BF012365
S32D0000F1180023DBB2002B00D0F3E73A4B0022C3F8C020384B4FF481325A60364B28229A62344B4FF001125A6479
S32D0000F1403B689B6833491846FFF760FF2F4B5B6A03F00303002B14BF01230023DBB2002B00D0F3E72C4B40F244
S32D0000F16843421A602A4B40F243425A60284B4FF488629A60264B40F24342DA60244B40F243421A61224B40F258
S32D0000F19043425A61214B03F580531B6B1F4A43F4003302F580521363184B4FF6FF721A63164B1B4A5A63154BC9
S32D0000F1B8DB6A144A43F00063D362124BDB6A03F00063002B14BF01230023DBB2002B00D0F3E70C4B5B6A03F409
S32D0000F1E08033002B14BF01230023DBB2002B02D07B6801221A60054B1B6B044A43F080031363002318460837EF
S32D0000F208BD4680BD00100B400080000160CC050000D0044000700440B3007F0080B400AF064B5A6A40F207332D
S32D0000F2301340002B14BF01230023DBB21846BD4680BC704700100B4080B485B000AF7860074B1B6B7A681340DF
S32D0000F258FB60FB68002B00D1F6E7FB6818461437BD4680BC704700BF00100B4080B584B000AF78607B681B786F
S32D0000F28003F03F03764A52F82330FB60FB68002B05D17B681B78002B01D00123DCE0714B1B6B704A43F080030B
S32D0000F2A813636E4B5B6A03F00103002B14BF01230023DBB2002B00D0F3E7684A7B685B689360FB6823F440039E
S32D0000F2D0FB607B685B789B0503F44003FA681343FB607B685B78022B03D1FB6843F40013FB607B685B78042B6E
S32D0000F2F816D1FB6803F44033B3F5003F08D1FB6823F44033FB60FB6843F44033FB6007E0FB6823F44033FB6095
S32D0000F320FB6843F40033FB604E4B5B684D4A9BB253607B68DB68002B2AD0FB6803F44033B3F5403F03D0FB682F
S32D0000F34843F40013FB607B681B7A002B03D0FB6843F01003FB607B68DB68012B03D9FB6843F02003FB607B6853
S32D0000F370DB68B3F1FF3F0BD03A4B5A687B68DB681B04384913434B60FB6843F00203FB60344B00221A60334AD3
S32D0000F398FB68D3603248FFF753FF0346012B14BF01230023DBB2002B09D02C4B1B6B2B4A43F4702343F001035C
S32D0000F3C01363012348E0274B1B6B03F08003002B14BF01230023DBB2002B07D0214B1B6B204A43F00113136302
S32D0000F3E8012335E01D4B1B6B03F48033002B14BF01230023DBB2002B08D0184B1B6B174A43F0011313634FF00B
S32D0000F410FF3321E0FB6803F44033002B15D0114B1A697B681A61FB6803F44033B3F5803F0BD10C4B5A697B6874
S32D0000F4385A610A4B9A697B689A61084BDA697B68DA61064B1B6B054A43F001031363002318461037BD4680BD26
S32D0000F460CC42020000100B4001000E0080B592B000AF7860396000237B643B68BB63994B7B637B6B002B02D104
S32D0000F48840F601235FE3964B3B633B6B002B02D140F60B2357E33B6B1B68FB62FB6A002B02D140F60B234EE37B
S32D0000F4B07B6841F20932934200F23F837B68B3F5985F08D87B68032B00F01A837B68092B00F0098331E37B68CA
S32D0000F4D8A3F59853013B082B00F22B8301A252F823F000BF11F50000FDF7000059FA000013F8000051F8000014
S32D0000F50077F90000BFF9000001F900001BF900007649786BFFF7EEFD78647B6C002B40F01083002387F843305E
S32D0000F528002387F82B30002387F82A30002387F82930002387F84230002387F8283000233B7200237B720023B0
S32D0000F550FB6000233B7400237B6107F108031846FFF788FE0346002B14BF01230023DBB2002B02D001237B6469
S32D0000F578E8E240F24C4000F0BFFE08233B7200237B724FF4D573FB6000233B7400237B6107F108031846FFF73A
S32D0000F5A069FEF863FB6B002B09D1BA69FB689A4202D001237B64C9E2012387F84230012387F8283097F8283037
S32D0000F5C8002B00F0A58037233B7200237B720023FB6000233B7400237B6107F108031846FFF744FEF863FB6B15
S32D0000F5F0002B02D001237B64A8E269233B7200237B720023FB6000233B7400237B6107F108031846FFF72EFE48
S32D0000F6180346002B14BF01230023DBB2002B02D001237B648EE2BB6903F44013002B6FD00023FB630A2000F0C6
S32D0000F6405FFEFB6B0133FB6337233B7200237B720023FB6000233B7400237B6107F108031846FFF707FE03463C
S32D0000F668002B14BF01230023DBB2002B02D001237B6428E069233B7200237B7297F84230002B02D0184BFB6095
S32D0000F69002E04FF44013FB6000233B7400237B6107F108031846FFF7E5FD0346002B14BF01230023DBB2002B29
S32D0000F6B802D001237B6406E0BB69002B03DBFB6B632B00D8B6E77B6C002B40F03882FB6B632B0BD9002387F85D
S32D0000F6E0423019E0E0170020E4190020C042020000003040012387F8433097F84230002B0AD0002387F84230B9
S32D0000F708BB6903F08043002B02D0012387F8423097F82A30002B02D07B6B07221A6097F82930002B02D07B6BAD
S32D0000F73008221A6097F82B30002B02D07B6B04221A6097F84330002B09D07B6B02221A6097F84230002B02D012
S32D0000F7587B6B03221A6097F82B30002B0DD097F84330002B09D07B6B05221A6097F84230002B02D07B6B062273
S32D0000F7801A60924B00221A60904B00225A608F4B00229A608D4B0022DA608C4B00221A618A4B00225A61FB6AFC
S32D0000F7A89A68FB6A5B6819461046FFF72BFC854B40F243421A60834B40F243425A60814B4FF488629A607F4B3A
S32D0000F7D040F24342DA607D4B40F243421A617B4B40F243425A617A4B03F580531B6B784A43F4003302F58052DD
S32D0000F7F81363A7E1B86BFFF739FDF863FB6B002B00F09F8102237B649BE1BB6B002B02D10C237B6496E16D4BB9
S32D0000F820DB6A1B0A5B0003F4FF73FB63694BDB6A1B0903F00F035A1CFB6B02FB03F3FB63FB6A9A68FB6BB2FB65
S32D0000F848F3F2BB6B1A607DE1BB6B002B02D10C237B6477E1BB6B1B68002B02D10C237B6470E1FFF7DBFC034609
S32D0000F870002B0CBF01230023DBB2002B3CD0534B00221A60514B00225A60504B00229A604E4B0022DA604D4B73
S32D0000F89800221A614B4B00225A61FB6A9A68BB6B1B6819461046FFF7ADFB464B40F243421A60444B40F24342C7
S32D0000F8C05A60424B4FF488629A60404B40F24342DA603E4B40F243421A613C4B40F243425A613B4B03F580532B
S32D0000F8E81B6B394A43F4003302F58052136329E140F60A237B6425E1BB6B002B02D10C237B641FE1314B5B687D
S32D0000F910C3F30C02BB6B1A6018E1BB6B002B02D10C237B6412E1FFF77DFC0346002B0CBF01230023DBB2002B9A
S32D0000F93819D0BB6B1B68B3F5805F02D30C237B6400E1224B5B68214A23F4FF5323F01F0353601E4B5A68BB6B87
S32D0000F9601B68C3F30C031B4913434B60EEE040F60A237B64EAE0BB6B002B02D10C237B64E4E0144B9B6A5B0835
S32D0000F98803F00303FB63FB6B002B03D1BB6B00221A60D7E0FB6B012B03D1BB6B01221A60D0E0FB6B102B03D1CE
S32D0000F9B0BB6B02221A60C9E005237B64C6E0BB6B002B09D10C237B64C0E000BF00D004400070044000100B4054
S32D0000F9D8FFF724FC0346002B0CBF01230023DBB2002B31D0BB6B1B68002B0AD1584B9B6A574A23F006039362A3
S32D0000FA00554B554A9B6A9362A0E0BB6B1B68012B0CD1514B9B6A504A23F0060393624E4B9B6A4D4A43F00203B4
S32D0000FA2893628FE0BB6B1B68022B0AD1484B9B6A474A23F006039362454B454A9B6A936280E005237B647DE084
S32D0000FA5040F60A237B6479E0BB6B002B02D10C237B6473E03C4BDB6A3B4A43F00063D362394BDB6A03F000632D
S32D0000FA78002B14BF01230023DBB2002B00D0F3E7334B1B6B03F08003002B14BF01230023DBB2002B08D02E4BF1
S32D0000FAA01B6B2D4A43F0800313637B6B00221A60294B5B6A03F48033002B14BF01230023DBB2002B07D07B6BF0
S32D0000FAC81B68002B06D17B6B01221A6002E07B6B00221A607B6B1A68BB6B1A6032E0BB6B1C221A60BB6B04334F
S32D0000FAF004221A60BB6B08334FF41E721A6025E00220FFF7A1FB144B1B6B03F4E003002B14BF01230023DBB250
S32D0000FB18002B07D00E4B1B6B0D4A43F4E003136304237B640A4B1B6B094A43F03203136308E040F609237B64BC
S32D0000FB4004E000BF02E000BF00E000BF7B6C18464837BD4680BD00BF00100B4080B489B000AF786039607B6826
S32D0000FB687B61364B3B613B69002B01D100235FE03B691B68022B0BD03B691B68032B07D03B691B68072B03D0EC
S32D0000FB903B691B68082B0BD12B4B5B6A03F00403002B14BF01230023DBB2002B00D0F3E73B68FB61FB69002BA7
S32D0000FBB83DD0FB69B3F5007F28BF4FF40073FB60FB6803339B08BB61BB69002B2AD01C4B1B6B03F4E003002BFC
S32D0000FBE014BF01230023DBB2002B09D0164B1B6B154A43F4E00343F02003136300231BE0114B5B6A03F4006387
S32D0000FC08002B0CBF01230023DBB2002B00D0F3E70B497B691A1D7A610A6A1A60BB69013BBB61D1E7FA69FB68FD
S32D0000FC30D31AFB61BEE7012318462437BD4680BC704700BFE017002000100B4080B58EB000AFB9607A601A463F
S32D0000FC580346FB731346BB73414B7B63FB7B002B02D1BB7B002B01D1042375E03D4B1B78DBB203F00103002BE9
S32D0000FC8014BF01230023DBB2002B01D0032367E0BB68002B01D1002362E07B6B1B7B002B02D17B685B027B602C
S32D0000FCA8BB7B012B28D111233B7500237B757B68BB6101233B77BB7B3B6207F11403194641F20230FFF7CEFBA2
S32D0000FCD00346002B0CBF01230023DBB2002B38D04FF40071B868FFF739FF0346002B14BF01230023DBB2002B78
S32D0000FCF82BD00023BB7328E012233B7500237B757B68BB6101233B77BB7B3B6207F11403194641F20230FFF721
S32D0000FD20A5FB0346002B0CBF01230023DBB2002B0FD0BB7B5B021946B868FFF70FFF0346002B14BF0123002354
S32D0000FD48DBB2002B01D00023BB73BB7B002B01D0012300E0002300BF18463837BD4680BDCC170020100000205B
S32D0000FD7080B487B000AF786039607B68FB603B687B617B69002B3DD07B69B3F5007F28BF4FF400733B617A69DA
S32D0000FD983B69D31A7B613B6903339B083B613B69002BEAD0184B1B6B03F4E003002B14BF01230023DBB2002B6E
S32D0000FDC00AD0134B1B6B124A43F4E00343F0100313634FF0FF3316E00D4B5B6A03F48063002B0CBF012300238A
S32D0000FDE8DBB2002B00D0F3E7FB681A1DFA60064A1B6813623B69013B3B61D0E7012318461C37BD4680BC704751
S32D0000FE1000100B4080B58EB000AFB9607A601A460346FB731346BB735D4B7B63FB7B002B02D1BB7B002B01D189
S32D0000FE380423ADE0594B1B78DBB203F00103002B14BF01230023DBB2002B01D003239FE0524B1B78DBB203F00A
S32D0000FE600403002B14BF01230023DBB2002B01D0022391E0BB68002B01D100238CE07B6B1B7B002B02D17B68FD
S32D0000FE885B027B60BB7B012B28D118233B7500237B757B68BB6100233B77BB7B3B6207F11403194641F2023041
S32D0000FEB0FFF7DCFA0346002B0CBF01230023DBB2002B38D04FF40071B868FFF751FF0346002B14BF012300236A
S32D0000FED8DBB2002B2BD00023BB7328E019233B7500237B757B68BB6100233B77BB7B3B6207F11403194641F2A9
S32D0000FF000230FFF7B3FA0346002B0CBF01230023DBB2002B0FD0BB7B5B021946B868FFF727FF0346002B14BF6C
S32D0000FF2801230023DBB2002B01D00023BB730D233B7500237B757B6B1B69BB6100233B7700233B6207F114036D
S32D0000FF50194641F20230FFF789FA0346002B14BF01230023DBB2002B01D0012314E07A6A0D4B1340002B01D08C
S32D0000FF7801230DE07B6A03F4F853B3F5106F00D0D5E7BB7B002B01D0012300E0002300BF18463837BD4680BD4B
S32D0000FFA0CC170020100000200880D9FF80B58CB000AF03463A60FB710B46BB713A4BBB62FB79002B01D004237B
S32D0000FFC869E0012387F82F30364B1B78DBB203F00103002B14BF01230023DBB2002B01D0032358E0BB79032B9A
S32D0000FFF050D801A252F823F009000100110001002100010031000100002387F82F3044E0BB6A9A683B681A60E2
S32D00010018002387F82F303CE03B684FF400721A80002387F82F3034E009233B7200237B72BB6A1B69FB60002385
S32D000100403B7400237B6107F10803194641F20230FFF70CFA0346002B14BF01230023DBB2002B01D001231AE0EB
S32D000100687B6A03F44003002B0CD13B6A9B0C03F07F035A1C7B6A1B0A03F00303013B9A403B681A60002387F833
S32D000100902F3002E0042387F82F3097F82F3018463037BD4680BD00BFCC1700201000002080B483B000AF0346B7
S32D000100B8FB71FB79002B01D0012302E0034B1B78DBB218460C37BD4680BC70471000002080B483B000AF786014
S32D000100E0164B03F580539B6B144A43F0010302F580529363124A7B689360114B05225A600F4B1B680E4A43F094
S32D00010108010313600C4B1B6803F08003002B0CBF01230023DBB2002B00D0F3E7064B1B68054A23F001031360B5
S32D0001013000BF0C37BD4680BC704700BF007004400000044080B582B000AF786039607B68012B07D13B684FF69B
S32D00010158FF72934202D1034800F00EF800BF0837BD4680BDEC19002080B500AF4FF6FF710120FFF7E3FF80BDEC
S32D0001018080B483B000AF78607B6800221A707B6818460C37BD4680BC7047000080B582B000AF78607B681B78F5
S32D000101A883F00103DBB2002B21D0134B03F580531A464FF400639362104B4FF440721A620E4B4FF440725A620E
S32D000101D00D4B1B68DA0F13445B104FF4614219460A48FEF7FDFB642000F08AF87B6801221A70012300E0002349
S32D000101F818460837BD4680BD0070044000D00440F019002000B00E4080B582B000AF7860084611461A460346D0
S32D00010220FB700B46BB7013467B707F210E48FEF7AAFC08210C48FEF7A6FCFB7819460A48FEF7A1FCBB78194697
S32D000102480748FEF79CFC7B7819460548FEF797FCFF210348FEF793FC00BF0837BD4680BD00B00E4080B487B0EE
S32D0001027000AFF860B9607A60FB681F4AA2FB03239B09BA6813447B61FB681B4AA2FB031292094FF47A7101FB9E
S32D0001029802F29B1AFB60FB68DB03154AA2FB03239B097A6813443B613B69DB0B7A6913447B613B69C3F30E034C
S32D000102C03B610E4B1B687A699A4209D80B4B1B687A699A4206D1094B5B683A699A4201D9012300E00023002BC6
S32D000102E800D0EAE700BF1C37BD4680BC704700BFD34D621000D0034080B584B000AF7860074B1B68FB60064B69
S32D000103105B68BB607B68BA68F9681846FFF7A6FF00BF1037BD4680BD00D0034080B584B000AFC7E900010E4B06
S32D000103381B68FB600C4B5B68BB604FF000020B4BD7E900010BF072FB02460B46104619460BF02EFE0346BA68E3
S32D00010360F9681846FFF782FF00BF1037BD4680BD00D0034000408F4080B584B000AF134B1B68FB60114B5B685D
S32D00010388BB60F8680BF0D8FA02460B46C7E90023B8680BF0D1FA4FF000020B4B0BF070FC02460B46D7E9000154
S32D000103B00BF08AF902460B46C7E90023D7E90023104619461037BD4680BD00BF00D003400000E04080B483B0BC
S32D000103D800AF0B4B1B684FF47A7202FB03F37B60074B5B684FF47A7202FB03F3DB0B7A6813447B607B681846FF
S32D000104000C37BD4680BC704700D0034080B582B000AF78600B46FB70FB781946786800F005F87B6818460837B8
S32D00010428BD4680BD80B483B000AF78600B46FB707B68FA781A707B681B781A46534B9B5C042B00F29E8001A28F
S32D0001045052F823F069040100A3040100DD04010017050100510501004B4A7B681B7819464A4B53F8213040F2E7
S32D00010478031142F82310484B5A697B681B781946444B53F8213003F01F03012101FA03F3DB43414913404B61AF
S32D000104A073E0404A7B681B7819463C4B53F8213040F2031142F823103B4B5A697B681B781946364B53F821306A
S32D000104C803F01F03012101FA03F3DB43344913404B6156E0334A7B681B7819462D4B53F8213040F2031142F827
S32D000104F023102F4B5A697B681B781946274B53F8213003F01F03012101FA03F3DB43284913404B6139E0274A4A
S32D000105187B681B7819461F4B53F8213040F2031142F82310224B5A697B681B781946194B53F8213003F01F030C
S32D00010540012101FA03F3DB431B4913404B611CE01A4A7B681B781946104B53F8213040F2031142F82310164BB8
S32D000105685A697B681B7819460A4B53F8213003F01F03012101FA03F3DB430F4913404B6100BF00BF0C37BD467A
S32D0001059080BC7047CC430200009004401044020000F00F4000A0044040F00F4000B0044080F00F4000C00440B5
S32D000105B8C0F00F4000D0044000F10F4080B485B000AF78600023FB607B681B781A46364B9B5C042B5CD801A2FF
S32D000105E052F823F0F9050100190601003906010059060100790601002E4B1B697A68127811462D4A52F821208E
S32D0001060802F01F02012101FA02F21340FB603FE0284B1B697A6812781146254A52F8212002F01F02012101FAEE
S32D0001063002F21340FB602FE0214B1B697A68127811461D4A52F8212002F01F02012101FA02F21340FB601FE074
S32D000106581A4B1B697A6812781146154A52F8212002F01F02012101FA02F21340FB600FE0134B1B697A681278CE
S32D0001068011460D4A52F8212002F01F02012101FA02F21340FB6000BFFB68002B14BF01230023DBB218461437A3
S32D000106A8BD4680BC704700BFCC43020000F00F401044020040F00F4080F00F40C0F00F4000F10F40B0B48BB0AC
S32D000106D000AF224B3C1D1D460FCD0FC495E80F0084E80F0000237B627B6A072B30DC1C4BD3F8A0207B6A9B00D8
S32D000106F828333B4453F8243C012101FA03F31340002B14BF01230023DBB2002B18D0134A7B6A52F823305A1CAE
S32D0001072010497B6A41F823200D4BD3F8A0207B6A9B0028333B4453F8243C012101FA03F307491340C1F8A030C9
S32D000107487B6A01337B62CBE700BF2C37BD46B0BC704700BF1445020000A004401C1A0020B0B489B000AF224B85
S32D000107703C1D1D460FCD0FC495E8030084E803000023FB61FB69052B30DC1C4BD3F8A020FB699B0020333B441E
S32D0001079853F81C3C012101FA03F31340002B14BF01230023DBB2002B18D0FB690833124A52F823200132104930
S32D000107C041F823200D4BD3F8A020FB699B0020333B4453F81C3C012101FA03F307491340C1F8A030FB69013360
S32D000107E8FB61CBE700BF2437BD46B0BC704700BF3445020000B004401C1A0020B0B48DB000AF234B3C461D466D
S32D000108100FCD0FC40FCD0FC495E8070084E807000023FB62FB6A0A2B30DC1C4BD3F8A020FB6A9B0030333B446A
S32D0001083853F8303C012101FA03F31340002B14BF01230023DBB2002B18D0FB6A0E33124A52F823200132104974
S32D0001086041F823200D4BD3F8A020FB6A9B0030333B4453F8303C012101FA03F307491340C1F8A030FB6A013399
S32D00010888FB62CBE700BF3437BD46B0BC704700BF4C450200009004401C1A0020B0B487B000AF214B3C461D46CB
S32D000108B00FCD0FC42B68236000237B617B69042B30DC1C4BD3F8A0207B699B0018333B4453F8183C012101FA3F
S32D000108D803F31340002B14BF01230023DBB2002B18D07B691933124A52F823200132104941F823200D4BD3F87F
S32D00010900A0207B699B0018333B4453F8183C012101FA03F307491340C1F8A0307B6901337B61CBE700BF1C3729
S32D00010928BD46B0BC704700BF7845020000D004401C1A002080B483B000AF78600B46FB707B68FA781A707B6826
S32D0001095018460C37BD4680BC704700000000000080B586B000AF78607B681B781A463E4B53F822303B617B6874
S32D000109781B781A463B4B9B5CFB733B69DBB203F01F03DAB2384B1A723B69DBB203F01F03DAB2354B5A72354BF3
S32D000109A01022C3F88820FB7B002B13D13049324800F0BBFB304B1B6803F08003802B14BF01230023DBB2002B84
S32D000109C800D0F3E72A4B1B697B6112E02649294800F0A7FB274B1B6803F08003802B14BF01230023DBB2002B35
S32D000109F000D0F3E7214B1B697B611E4BD3F888311C4A43F01003C2F888311A4B9B68194A43F0100393607B696E
S32D00010A189BB218460AF090FF0DA3D3E900230BF005F802460B46104619460BA3D3E900230BF026F902460B4666
S32D00010A40104619460BF0D8FA0346BB60BB6818461837BD4680BD00BFA4703D0AD7A30A4000000000E0FFEF40A5
S32D00010A6890440200EC430200FC19002000E100E000B0034000B00B4080B586B000AF78607B681B781A46234B3E
S32D00010A9053F822303B617B681B781A46204B9B5CFB733B69DBB203F01F03DAB21D4B1A723B69DBB203F01F034C
S32D00010AB8DAB21A4B5A72FB7B002B13D11749184800F02FFB164B1B6803F08003802B14BF01230023DBB2002B1C
S32D00010AE000D0F3E7104B1B697B6112E00D490F4800F01BFB0D4B1B6803F08003802B14BF01230023DBB2002B0F
S32D00010B0800D0F3E7074B1B697B617B6918461837BD4680BD90440200EC4302000C1A002000B0034000B00B4056
S32D00010B3098B500AF204B5C221A701F4B10225A701D4B41F234225A801B4B45F278629A80194B10229A71184B61
S32D00010B580722DA71164B4FF4C022DA60144B1F221A72134B1F225A721149124800F0D9FA0F49114800F0D5FABC
S32D00010B800F4800F033FA0D4800F030FA0A490C4800F0CBFA0849094800F0C7FA094A064B14460FCB84E80F0061
S32D00010BA8064B5C221A70054B0422DA7100BF98BDFC19002000B0034000B00B400C1A002080B500AF064B1B68CF
S32D00010BD00133054A136000F087F9044B0122C3F80C2100BF80BD00BFA01A00200070034080B500AF0C4B012290
S32D00010BF81A600C4800F01AF8094B0322C3F80821094BD3F88831084A43F01003C2F88831054B9B68044A43F0EA
S32D00010C201003936000BF80BD00700340A086010000E100E080B483B000AF7860044A7B68C2F8003100BF0C37FC
S32D00010C48BD4680BC704700BF0070034080B584B000AF78600B46FB707B68FA7811461846FFF768FE4C4B1B68E9
S32D00010C70002B29D17B6800221A617B6800225A61142003F099FC03461A467B689A617B689B697A689A607B6807
S32D00010C989B6901225A607B689B69FA781A707B689B690022DA607B689B6900221A617B689B6900225A707B68EC
S32D00010CC09B69374A13605BE0354B1B68FB60FB681B78FA789A4207D0FB68DB68002B03D0FB68DB68FB60F2E7DB
S32D00010CE8FB681B78FA789A421DD17B68FA689A617B689B699B68BB60BB681B69002B03D0BB681B69BB60F7E721
S32D00010D10BB687A681A617B68BA685A617B6800221A617B689B695A6801325A6028E07B6800221A617B680022D1
S32D00010D385A61142003F03CFC03461A467B689A617B689B697A689A607B689B6901225A607B689B69FA781A7081
S32D00010D607B689B690022DA607B689B6900225A707B689B69FA681A617B689A69FB68DA60786800F027F97B6834
S32D00010D884FF48C429A607B684FF45242DA607B6818461037BD4680BD9C1A00200000000080B584B000AFF8602F
S32D00010DB0B9607A60B8680AF0E5FD1BA3D3E900230AF062FF02460B46104619464FF00002174B0AF02FFE0246CD
S32D00010DD80B46104619460BF0C3F80246FB689A6078680AF0CBFD0EA3D3E900230AF048FF02460B4610461946CA
S32D00010E004FF000020A4B0AF015FE02460B46104619460BF0A9F80246FB68DA6000BF1037BD4680BDAFF30080E9
S32D00010E286666666666660A400000F04080B586B000AF78607B685B697B617B681B693B617B69002B2DD13B6994
S32D00010E50002B2AD17B689B691B69FB607B689B69DB68BB60FB68002B06D1BB68002B03D11C4B00221A600FE0C9
S32D00010E78FB68002B03D0FB68BA68DA6002E0174ABB681360BB68002B02D0BB68FA681A617B689B69002B1BD035
S32D00010EA01421184603F086FB16E07B69002B03D07B693A691A6103E07B689B693A699A603B69002B02D03B6996
S32D00010EC87A695A617B689B695A68013A5A6000E000BF7B6818461837BD4680BD9C1A002080B584B000AF174B00
S32D00010EF01B68FB60FB68002B24D0FB685B78FB71FB689B68184600F023F80346BB71BB79002B13D0FB685B6825
S32D00010F18012B0FDDFB689B681B69BB60BB68002B08D0BB685B685A1CBB685A60BB681B69BB60F3E7FB68DB68EC
S32D00010F40FB60D7E700BF1037BD4680BD9C1A002080B584B000AF78607868FFF791FDF8607B689B695B78FB727A
S32D00010F68FB7A002B0FD17B68DB68FA689A420ADD7B689B6901225A707B685B685A1C7B685A60012313E0FB7A76
S32D00010F90012B0FD17B689B68FA689A420ADA7B689B6900225A707B685B685A1C7B685A60012300E0002318460D
S32D00010FB81037BD4680BD80B483B000AF78607B685B6818460C37BD4680BC704780B483B000AF78607B68002265
S32D00010FE05A6000BF0C37BD4680BC704780B485B000AF78607B681B6A23F040027B681A627B685B6A23F00B025C
S32D000110087B685A627B685B6A43F007027B685A627B685B6A43F080027B685A627B681B6803F08003002B0CBFC9
S32D0001103001230023DBB2002B00D0F3E77B685B6A03F04003402B0CBF01230023DBB2002B01D0012364E0002379
S32D00011058FB817B68DB6CFB817B689B6C9AB2FB891344FB817B685B6C9AB2FB891344FB817B681B6C9AB2FB8933
S32D000110801344FB817B68DB6B9AB2FB891344FB817B689B6B9AB2FB891344FB81FB895B08FB81FB896FEA434350
S32D000110A86FEA5343FB81FA897B68DA620023FB817B68DB6EFB817B689B6E9AB2FB891344FB817B685B6E9AB23E
S32D000110D0FB891344FB817B681B6E9AB2FB891344FB817B68DB6D9AB2FB891344FB817B689B6D9AB2FB891344AB
S32D000110F8FB81FB895B08FB81FB896FEA43436FEA5343FB81FA897B681A637B685B6A23F080027B685A6200233A
S32D0001112018461437BD4680BC704780B483B000AF786039603B681B781A467B689A603B685B781A467B68DA6014
S32D000111483B685B881A467B689A613B689B881A467B68DA613B689B791A467B681A623B68DB791A467B685A6204
S32D000111703B68DA687B681A653B681B7A1A467B681A603B685B7A1A467B685A6000BF0C37BD4680BC704780B473
S32D0001119883B000AF78607B6818460C37BD4680BC7047000080B582B000AF786039607B68012B07D13B684FF69E
S32D000111C0FF72934202D10348FFF7E5FF00BF0837BD4680BDA41A002080B500AF4FF6FF710120FFF7E3FF80BDD7
S32D000111E880B582B000AF7860B84B4FF48072DA60B74B4FF480729A64B54B4FF480721A64B34B4FF480725A649F
S32D00011210B14B4FF48072DA60B04B5B69AF4A43F008035361AE4B5B69AD4A43F480235361AB4B5B69AA4A43F473
S32D0001123880335361A84B5B69A74A43F400335361A54B1B68A44A43F008031360A24B5B69A14A43F008035361BA
S32D000112609E4B1B689D4A43F0080313609A4B4FF480725A62984B4FF480721A62954B4FF480721A61934B4FF440
S32D0001128880725A61914B4FF480729A618F4B4FF48072DA618D4B4FF480721A638B4B4FF480725A63894B4FF4CB
S32D000112B080729A63874B4FF48072DA63854B4FF480721A64834B4FF480725A64814B4FF480729A647F4B4FF48C
S32D000112D88072DA64814B4FF480721A607F4B4FF480729A607D4B4FF48072DA607B4B4FF480721A61784B5B690F
S32D00011300774A43F440735361744B5B69734A43F47F2343F0F0035361734B5B69724A43F01D035361E221786844
S32D0001132800F0A8FD1D21786800F04AFE0221786800F046FE0421786800F042FEE021786800F098FD01217868D7
S32D0001135000F03AFE6420FEF7D3FFE021786800F08DFD0321786800F02FFE0121786800F085FD0120FEF7C4FF32
S32D00011378E621786800F07EFD0121786800F020FEA021786800F01CFEFF21786800F018FEB021786800F06EFD27
S32D000113A01C21786800F010FE0F21786800F00CFE0121786800F008FE3F21786800F004FE0021786800F000FEE0
S32D000113C8EF21786800F0FCFD0021786800F0F8FDB421786800F04EFD0121786800F0F0FD9921786800F0ECFDF5
S32D000113F00021786800F0E8FD4521786800F0E4FD0221786800F0E0FD0021786800F0DCFD0021786800F0D8FD81
S32D000114180021786800F0D4FDB621786800F02AFD0121786800F0CCFD0921786800F0C8FD0021786800F0C4FDE9
S32D000114400E21786800F0C0FD0221786800F0BCFD0021786800F0B8FD0021786800F0B4FDBA21786800F00AFD1B
S32D000114680F21786800F0ACFD6420FEF745FF3A21786800F0FFFC6021786800F0A1FD2A21786800F0F7FC0021AB
S32D00011490786800F099FD0021786800F095FD0121786800F091FD3F21786800F08DFD2B21786800F0E3FC0021EE
S32D000114B8786800F085FD0021786800F081FD0021786800F07DFDEF2178680BE000B0044000A0044080F00F4067
S32D000114E040F00F4000C00440C0F00F4000F06CFD3621786800F0C2FC0021786800F064FDF021786800F0BAFC34
S32D000115080421786800F05CFDB821786800F0B2FC0F21786800F054FD0121786800F050FD314B1B68304A43F0D3
S32D00011530080313606420FEF7E3FE3621786800F09DFC0021786800F03FFDF021786800F095FC0421786800F060
S32D0001155837FD0121786800F0BCF91E226F21786800F082F8AF225621786800F0DBF80021786800F00AFA01236B
S32D0001158001221C49786800F02BFA2921786800F075FC6420FEF7B4FEBE21786800F06EFC0E21786800F010FDE4
S32D000115A8F021786800F00CFD0121786800F008FD0021786800F004FD0021786800F000FD0F21786800F0FCFC5B
S32D000115D0786800F028FA0121786800F0DAF90021786800F0AFF900BF0837BD4680BD00BF40F00F408C4502004D
S32D000115F880B582B000AF78607B680022DA617B6801221A627B680E225A607B681A229A607B6800225A617B688B
S32D0001162000229A617B684FF4A072DA607B68F0221A617B6800221A70786801F0F9F97B6818460837BD4680BD8A
S32D0001164880B582B000AF7860064B1B78002B05D1044B01221A707868FFF7C2FD00BF0837BD4680BDEC1A0020AB
S32D0001167080B58AB002AFF860B9607A607E23009362237A68B968F86800F08DFE40F24E733B610023FB61FA69D8
S32D000116983B699A4240DA0023BB61214AFB6913441B781A46BB69934232DAFB6901331C4AD35C002B06D1FF23DB
S32D000116C0FB75FF23BB75FF237B7512E0FB690133154AD35C012B06D1D423FB750023BB7526237B7505E0B5235C
S32D000116E8FB75BA23BB75B0237B757B7DBA7DF97DF86800F0C9F80246FB68DA61F86801F093F9F86801F0CCF805
S32D00011710BB690133BB61C4E7FB690233FB61BAE700BF2037BD4680BD1400002080B58AB002AFF860B9607A6000
S32D000117382723009395237A68B968F86800F02FFE40F2E6333B610023FB61FA693B699A4240DA0023BB61214A60
S32D00011760FB6913441B781A46BB69934232DAFB6901331C4AD35C002B06D1FF23FB75FF23BB75FF237B7512E090
S32D00011788FB690133154AD35C012B06D10023FB750023BB7500237B7505E0D423FB750023BB7526237B757B7D40
S32D000117B0BA7DF97DF86800F06BF80246FB68DA61F86801F035F9F86801F06EF8BB690133BB61C4E7FB690233D6
S32D000117D8FB61BAE700BF2037BD4680BD6407002080B485B000AF78600B46FB70FB78062B29D801A252F823F0B3
S32D00011800251801001D1801002B180100331801003B18010041180100491801006FF07F43FB6014E00023FB60B7
S32D0001182811E04FF47F03FB600DE04FF47F43FB6009E0FF23FB6006E04FF41903FB6002E0044BFB6000BFFB687F
S32D0001185018461437BD4680BC704700BF9999990080B584B000AF786039603B681B0CFB733B681B0ABB733B68E6
S32D000118787B737B7BBA7BF97B786800F005F8034618461037BD4680BD80B487B000AF7860084611461A46034679
S32D000118A0FB700B46BB7013467B70FB789B08DBB27B61BB789B08DBB23B617B789B08DBB2FB607B691A033B694D
S32D000118C89B011A43FB68134318461C37BD4680BC704780B582B000AF78600B46FB70FB7819467868FFF77CFFCB
S32D000118F003461946786800F004F800BF0837BD4680BD80B582B000AF7860396039687868FFF7A6FF02467B6849
S32D000119181A62786801F088F8786800F0E9FB00BF0837BD4680BD80B582B000AF7860786800F0DEFB00BF08374C
S32D00011940BD4680BD80B582B000AF78600B46FB70FB7819467868FFF747FF03461946786800F004F800BF08372E
S32D00011968BD4680BD80B582B000AF7860396039687868FFF771FF02467B681A62786801F053F800BF0837BD46DE
S32D0001199080BD80B582B000AF78600B46FB70FB7819467868FFF720FF03461946786800F004F800BF0837BD4605
S32D000119B880BD80B582B000AF7860396039687868FFF74AFF02467B68DA61786801F02CF800BF0837BD4680BDE3
S32D000119E080B586B000AFF860B9607A603B6000237B617B69BA6813441B78002B0FD07B69BA6813441B783A684D
S32D00011A087968F86800F00AFE7B680C337B607B6901337B61E9E700BF1837BD4680BD80B582B000AF7860FCF786
S32D00011A3087FF67210120FCF7F2FE00210220FCF7EEFEA0210320FCF7EAFE50210420FCF7E6FE20210520FCF7CF
S32D00011A58E2FE20210620FCF7DEFE77210720FCF7DAFE00210820FCF7D6FE00210920FCF7D2FE00210A20FCF764
S32D00011A80CEFE04210B20FCF7CAFE7B684FF0FF32DA637B684FF0FF321A6400BF0837BD4680BD000000000000C1
S32D00011AA880B586B000AFF860B9607A600020FCF7D4FE0346FB75FB7D03F00203002B00F0CE80FCF7E7FEE0205B
S32D00011AD0FCF798FE0220FEF713FCFCF7EDFE0120FEF70EFCFCF7DAFEA520FCF78BFE0120FEF706FCFCF7ADFE78
S32D00011AF803469BB21B02BB82FCF7A7FE03469AB2BB8A1343BB82FCF7A0FE03469BB21B027B82FCF79AFE0346B5
S32D00011B209AB27B8A13437B82BB8A1B09BB827B8A1B097B82FCF7C0FEFB68DB6BB3F1FF3F34D1FB681B6CB3F157
S32D00011B48FF3F2FD1BA8AFB68DA637A8AFB681A647B8AC3F57F630F337B82BB8A184609F0FBFE49A3D3E9002329
S32D00011B7009F060FF02460B46104619460AF03CFA0246BB681A607B8A184609F0E9FE42A3D3E9002309F04EFF3E
S32D00011B9802460B46104619460AF02AFA02467B681A605AE0FB68DA6BBB8AD31A1946F86800F074F80346632B07
S32D00011BC00CDCFB681A6C7B8AD31A1946F86800F069F80346632B01DC012300E00023002B2FD0BA8AFB68DA633A
S32D00011BE87A8AFB681A647B8AC3F57F630F337B82BB8A184609F0B0FE23A3D3E9002309F015FF02460B46104620
S32D00011C1019460AF0F1F90246BB681A607B8A184609F09EFE1CA3D3E9002309F003FF02460B46104619460AF0A4
S32D00011C38DFF902467B681A600FE0BB68164A1A607B68154A1A60FB684FF0FF32DA63FB684FF0FF321A640023D4
S32D00011C6010E001230EE0BB680D4A1A607B680C4A1A60FB684FF0FF32DA63FB684FF0FF321A640023184618377B
S32D00011C88BD4680BDAFF30080144001144001B43F1EE0011EE001AE3F000080BF80B483B000AF786039603B68DA
S32D00011CB0002B02DA3B685B423B603B6818460C37BD4680BC704780B584B000AF786039600023FB60786800F012
S32D00011CD8D2FAFB683A6813441B78002B12D07B6859697B689869FB683A6813441B780246786800F079FC786830
S32D00011D0000F0D1FAFB680133FB60E6E700BF1037BD4680BD80B592B000AF786039604FF0000138680AF078FC0F
S32D00011D280346002B1FD038680AF086FC03467B64786C0AF067FA0346194638680AF0ACF903461F4918460AF0B6
S32D00011D50B1FA034618460AF073FC03463B6407F10C003B6C7A6C19490CF0D4FD22E03B6883F000433B6038686B
S32D00011D780AF062FC03467B64786C0AF043FA0346194638680AF088F903460D4918460AF08DFA034618460AF0BF
S32D00011DA04FFC03463B6407F10C003B6C7A6C08490CF0B0FD07F10C0319467868FFF783FF00BF4837BD4680BD1A
S32D00011DC800007A44A84502009C45020080B582B000AF78600B46FB70786800F04CFA7B6859697B689A69FB789E
S32D00011DF0786800F0FDFB786800F055FA00BF0837BD4680BD80B582B000AF78603960786800F035FA3968786898
S32D00011E18FFF755FF786800F019FA00BF0837BD4680BD80B582B000AF78603960786800F022FA39687868FFF746
S32D00011E4069FF786800F006FA00BF0837BD4680BD80B582B000AF78600B46FB70786800F00EFAFB7819467868C9
S32D00011E68FFF7B4FF786800F0F1F900BF0837BD4680BD000080B483B000AF78600B46FB704D4B1B684C4A23F03C
S32D00011E90080313604B4B1B684A4A23F480231360484B1B68474A43F480331360454B1B68444A23F440731360E9
S32D00011EB8414B1B68404A23F4435323F0300313603E4B1A68FB785B0203F400733B4913430B603A4B1A68FB78F8
S32D00011EE05B101B0203F48073364913430B60344B1A68FB789B101B0103F01003304913430B602F4B1A68FB7837
S32D00011F08DB105B0103F020032B4913430B602A4B1A68FB781B119B0103F04003264913430B60254B1A68FB781B
S32D00011F305B11DB01DBB2224913430B60204B1A68FB789B111B0303F480531D4913430B601B4B1A6897F90330BB
S32D00011F58DB115BB25B0303F40053174913430B60164B1B68154A23F400331360134B1B68124A43F4003313607E
S32D00011F800F4B1B680E4A43F0080313600D4B1B680C4A43F440731360094B1B68084A43F4435343F030031360EF
S32D00011FA8064B1B68054A43F48023136000BF0C37BD4680BC704700BF80F00F4040F00F4080B483B000AF7860B7
S32D00011FD00B46FB70464B1B68454A23F008031360444B1B68434A43F480331360414B1B68404A43F48023136010
S32D00011FF83E4B1B683D4A23F4407313603A4B1B68394A23F4435323F030031360374B1A68FB785B0203F40073BB
S32D00012020344913430B60334B1A68FB785B101B0203F480732F4913430B602D4B1A68FB789B101B0103F01003FB
S32D00012048294913430B60284B1A68FB78DB105B0103F02003244913430B60234B1A68FB781B119B0103F04003E2
S32D000120701F4913430B601E4B1A68FB785B11DB01DBB21B4913430B60194B1A68FB789B111B0303F48053164974
S32D0001209813430B60144B1A6897F90330DB115BB25B0303F40053104913430B600F4B1B680E4A23F40033136007
S32D000120C00C4B1B680B4A43F400331360084B1B68074A43F008031360064B1B68054A23F48023136000BF0C37BB
S32D000120E8BD4680BC704700BF80F00F4040F00F4080B586B000AF78607B6800225A617B6800229A617B681B6ABC
S32D00012110FB60FB68FB72FB681B0ABB72FB681B0CDBB203F003037B722A217868FFF7A6FE00217868FFF748FFC0
S32D0001213800217868FFF744FF01217868FFF740FF3F217868FFF73CFF2B217868FFF792FE00217868FFF734FFBA
S32D0001216000217868FFF730FF00217868FFF72CFFEF217868FFF728FF2C217868FFF77EFE314B1B68304A23F4CC
S32D00012188407313602F4B1B682E4A23F47F2323F0F00313602C4B1B682B4A23F01D031360274B1A687B681B6BE9
S32D000121B0254913430B60254B1A687B685B6B234913430B60224B1A687B689B6B204913430B601E4B1B681D4AB4
S32D000121D823F0080313601A4B1B68194A43F48023136000237B617B69EF2B19D800233B613B69B3F5A07F0FD2B6
S32D00012200114B1B68104A23F4003313600E4B1B680D4A43F4003313603B6901333B61EBE77B6901337B61E2E7A6
S32D00012228084B1B68074A43F008031360044B1B68034A23F48023136000BF1837BD4680BD40F00F4080F00F40D7
S32D00012250C0F00F4080B483B000AF78607B689B69002B07DD7B685B695A1C7B685A617B6800229A6100BF0C37BF
S32D00012278BD4680BC704780B582B000AF78607B685A697B685B689A4205DB7B6800225A617868FFF72DFF00BFCA
S32D000122A00837BD4680BD80B582B000AF78607B689B695A1C7B689A617B689A697B689B689A4205D17868FFF713
S32D000122C8C5FF7868FFF7D7FF00BF0837BD4680BD80B586B002AFF860B9607A600123009301237A68B968F86894
S32D000122F000F059F8F86800F0D7FA00BF1037BD4680BD80B485B000AF786039607B681B68FB603B681A687B68C5
S32D000123181A603B68FA681A6000BF1437BD4680BC704780B586B002AFF860B9607A603B60BA683B681A447B6895
S32D00012340009313467A68B968F86800F0ABF8BA683B68D118BA683B68D0187A68BB691344009303467A68F868B6
S32D0001236800F09CF8BA683B68D1187A68BB69D0187A68BB6913440093BB680246F86800F08DF87A68BB691A4492
S32D000123907B680093BB68B968F86800F083F800BF1037BD4680BD80B588B000AFF860B9607A603B60FB681B785B
S32D000123B8022B03D0FB681B78032B11D17B68FB61BA6AFB691344013BBB61FB68DA68BB68D31A3B613B683A69E3
S32D000123E0D31A01337B610DE0BB68FB613A68FB691344013BBB617B687B61BA6A7B691344013B3B612A21F8680F
S32D00012408FFF738FDFB691B0ADBB203F00F03DBB21946F868FFF7D4FDFB69DBB21946F868FFF7CEFDBB691B0A92
S32D00012430DBB203F00F03DBB21946F868FFF7C4FDBB69DBB21946F868FFF7BEFD2B21F868FFF714FD7B691B0A0B
S32D00012458DBB203F00F03DBB21946F868FFF7B0FD7B69DBB21946F868FFF7AAFD3B691B0ADBB203F00F03DBB21F
S32D000124801946F868FFF7A0FD3B69DBB21946F868FFF79AFD2C21F868FFF7F0FC00BF2037BD4680BD90B58BB0F9
S32D000124A800AFF860B9607A603B603A68BB68D31A1946F868FFF7F2FBF861BA6B7B68D31A1946F868FFF7EAFB34
S32D000124D0B861BA69FB699A42CCBF01230023FB75FB7D002B0CD03A1D07F1080311461846FFF707FF3B4607F11C
S32D000124F838011846FFF701FFBA683B689A420CDD3A4607F1080311461846FFF7F6FE3B1D07F138011846FFF79F
S32D00012520F0FE3A68BB689A4206D1BB687A681946F868FFF7D1FE55E0BA6B7B68D31A184609F064FE04463A68CE
S32D00012548BB68D31A184609F05DFE03461946204609F060FF03463B617B68184609F052FE03467B62BB683B62E7
S32D000125703B683A6A9A4235DCFB7D002B14D0786A09F000FA4FF00002184B09F09DF802460B461046194609F033
S32D00012598E7FC03463A6A1946F868FFF799FE13E0786A09F0EBF94FF000020E4B09F088F802460B4610461946E5
S32D000125C009F0D2FC03461A46396AF868FFF784FE3969786A09F066FD03467B623B6A01333B62C5E72C37BD4673
S32D000125E890BD00BF0000E03F80B584B000AFF860B9607A60FB707A6813465B0013449B00991CBA6813461B01F7
S32D000126101344DA1CFB78F86800F004F800BF1037BD4680BD80B58EB002AFF860B9607A60FB70FB780A2B06D1F0
S32D00012638F868FFF720FEF868FFF708FEF2E0FB787D2B02D8FB781F2B01D82023FB70FB78203BFB701123009398
S32D000126600C237A68B968F868FFF79DFEFA7813469B0013446F4AD35C3B75FA7813469B00134401336B4AD35CFE
S32D000126887B75FA7813469B0013440233674AD35CBB75FA7813469B0013440333634AD35CFB75FA7813469B008C
S32D000126B0134404335F4AD35C3B760023BB62BB6A062B00F3A180F86800F050F9F86800F0B3F8002387F82F30A5
S32D000126D800237B627B6A042B35DC07F114027B6A13441B7803F00103002B14BF01230023FB76FB7E002B11D09F
S32D0001270097F82F3083F00103DBB2002B03D0F86800F0CAF802E0F86800F08EF8F86800F08BF80DE097F82F3042
S32D00012728002B03D0F86800F01DF902E0F86800F07FF8F86800F07CF8FB7E87F82F307B6A01337B62C6E797F828
S32D000127502F30002B03D0F86800F008F902E0F86800F06AF8F86800F067F8002387F82F3000233B623B6A042BD4
S32D0001277842DC07F114023B6A13441B7803F00103002B14BF01230023BB76BB7E002B11D097F82F3083F0010360
S32D000127A0DBB2002B03D0F86800F07EF802E0F86800F042F8F86800F03FF80DE097F82F30002B03D0F86800F09D
S32D000127C8D1F802E0F86800F033F8F86800F030F8BB7E87F82F3007F114023B6A13441B785B08D9B207F1140294
S32D000127F03B6A13440A461A703B6A01333B62B9E7BB6A0133BB625AE7F86800F0AFF8002387F82F300123FB619F
S32D00012818FB69232B06DCF86800F00AF8FB690133FB61F5E73037BD4680BD00BF4C0B002080B483B000AF786010
S32D00012840174B1B68164A43F480331360154B1B68144A23F008031360114B1B68104A43F4802313600E4B1B6893
S32D000128680D4A23F4003313600B4B1B680A4A43F400331360094B1B68084A43F008031360054B1B68044A23F411
S32D000128908023136000BF0C37BD4680BC704700BF40F00F4080F00F4080B483B000AF78602B4B1B682A4A43F47C
S32D000128B880331360294B1B68284A23F008031360254B1B68244A43F480231360224B1B68214A23F4407313608B
S32D000128E0204B1B681F4A23F47F2323F0F00313601D4B1B681C4A23F01D031360184B1A687B685B6A1649134307
S32D000129080B60164B1A687B689B6A144913430B60134B1A687B68DB6A114913430B600E4B1B680D4A23F40033AC
S32D0001293013600B4B1B680A4A43F400331360094B1B68084A43F008031360054B1B68044A23F48023136000BF14
