S01100002E2E2F50726F746575732E73313966
S32D0000C000000000205DC2000011C3000017C300001DC3000023C3000029C3000000000000000000000000000073
S32D0000C028000000002FC3000035C30000000000003BC3000041C300000DDF000019DF000025DF000031DF000006
S32D0000C0503DDF000049DF000055DF000061DF00006DDF000079DF000085DF000091DF00009DDF0000A9DF00008E
S32D0000C078B5DF0000C1DF0000CDDF0000D9DF0000E5DF0000F1DF0000FDDF000009E0000015E0000021E00000B3
S32D0000C0A02DE0000039E0000045E0000051E000005DE0000069E0000075E0000081E000008DE0000099E00000D4
S32D0000C0C8A5E00000B1E00000BDE00000C9E00000D5E00000E1E00000EDE00000F9E0000005E1000011E10000FA
S32D0000C0F01DE100005534010029E1000035E1000041E100004DE1000059E1000065E1000071E100007DE10000FA
S32D0000C11889E1000095E10000A1E10000ADE10000B9E10000C5E10000D1E10000DDE10000E9E10000F5E10000B9
S32D0000C14001E200000DE2000019E2000025E20000510A010031E200003DE2000049E2000055E2000061E20000CA
S32D0000C1686DE2000079E2000085E2000091E200009DE20000A9E20000B5E20000C1E20000CDE20000D9E2000077
S32D0000C190E5E20000F1E20000FDE200008D06010055050100F105010091DC00002D07010009E3000015E300009C
S32D0000C1B821E300000862020000000020E0160000086202000000FF1F00000000E0160020340500000000FF1FDC
S32D0000C1E00000000080B489B000AFF860B9607A60BB68FB61FB68BB6100237B617A697B689A420BD2BA69131DFB
S32D0000C208BB61FB69191DF96112681A607B6904337B61EFE700BF2437BD4680BC704780B485B000AF786039609E
S32D0000C2307B68FB600023BB60BA683B689A4208D2FB681A1DFA6000221A60BB680433BB60F2E700BF1437BD46FE
S32D0000C25880BC704780B586B000AF72B6234B4CF220521A80214B4DF628121A80204B4FF4E9721A801F4B7B615F
S32D0000C2807B691F4A934214D27B691A1D7A611B683B617B691A1D7A611B68FB607B691A1D7A611B68BB60BA68E9
S32D0000C2A8F9683869FFF79AFFE6E77B69134A93420ED27B691A1D7A611B68FB607B691A1D7A611B68BB60B9688B
S32D0000C2D0F868FFF7A8FFECE70B4B7B600B4A7B681A6011F0F7FA62B601F09AFD00F0DCF8FEE700BF0E20054020
S32D0000C2F800200540BCC10000D4C10000E4C1000008ED00E000C0000080B400AFFEE780B400AFFEE780B400AFF4
S32D0000C320FEE780B400AFFEE780B400AFFEE780B400AFFEE780B400AFFEE780B400AFFEE780B400AFFEE780B426
S32D0000C34800AFFEE7FFFFFFFFFFFFFFFFFFFFFFFFFFFFFFFFFFFFFFFFFFFFFFFFFFFFFFFFFFFFFFFFFFFFFFFF57
S32D0000C370FFFFFFFFFFFFFFFFFFFFFFFFFFFFFFFFFFFFFFFFFFFFFFFFFFFFFFFFFFFFFFFFFFFFFFFFFFFFFFFFC7
S32D0000C398FFFFFFFFFFFFFFFFFFFFFFFFFFFFFFFFFFFFFFFFFFFFFFFFFFFFFFFFFFFFFFFFFFFFFFFFFFFFFFFF9F
S32D0000C3C0FFFFFFFFFFFFFFFFFFFFFFFFFFFFFFFFFFFFFFFFFFFFFFFFFFFFFFFFFFFFFFFFFFFFFFFFFFFFFFFF77
S32D0000C3E8FFFFFFFFFFFFFFFFFFFFFFFFFFFFFFFFFFFFFFFFFFFFFFFFFFFFFFFFFFFFFFFFFFFFFFFFFEFFFFFF50
S32D0000C44010B5054C237833B9044B13B10448AFF300800123237010BDE0160020000000007860020008B5034B31
S32D0000C4681BB103490348AFF3008008BD00000000E41600207860020080B582B000AF78600B46FB707B68FA7869
S32D0000C4901146184604F096F97B6818460837BD4680BD00000000000080B584B000AF1D231C220721AA4801F0E5
S32D0000C4B823FBAA4AAA49AB4804F0B6FBA74AA849A94804F0B1FBA949A94807F065FCA84807F08CFEF860A74853
S32D0000C4E000F0AAFE0346002B08D0A44804F07CF903461946A24805F0DCFBF0E7A149A24801F02DF89F49A14805
S32D0000C50801F029F84FF000009F4903F04FFE9C4801F032F89B4801F02FF8FB68002B0DD19A499B4800F008FB6D
S32D0000C53000229A499A4800F01DFB9649994800F0FFFA37E0FB68012B18D19249964800F0F7FA00229149954843
S32D0000C55800F00CFB4FF08041904800F0EDFA00228C49914800F002FB4FF080418F4800F0E3FA1BE0FB68022B23
S32D0000C58018D18449884800F0DBFA00228349874800F0F0FA4FF080417F4800F0D1FA00227E49854800F0E6FAA3
S32D0000C5A84FF080414FF0804000F0C6FA6A4801F0EEFA4FF000007F4903F0F8FD664801F048FB4FF040414FF05B
S32D0000C5D0804000F0B5FA4FF00000794903F0EAFD5F4801F017FB4FF080415E4800F0A8FA5B4801F0B4FA4FF0A0
S32D0000C5F80000704903F0DAFD574801F02AFB4FF040414FF0804000F097FA534801F0FEFAFB68022B05D1002291
S32D0000C6205C49684800F0A6FA10E0FB68002B05D102225849644800F09DFA07E0FB68012B04D1002253495A4810
S32D0000C64800F094FA5F494E4800F085FF5D494D4800F081FF404801F008FB0346012B0CBF01230023DBB2002B2E
S32D0000C67000D0F3E7444800F083FF444800F080FF00224449524800F075FA52493E4800F066FF51493D4800F0CC
S32D0000C69862FF2BA1D1E9000103F088FD4249384800F059FF28A1D1E9000103F07FFD4949334800F050FF4849F1
S32D0000C6C0324800F04CFF264801F0D3FA0346012B0CBF01230023DBB2002B00D0F3E72949294800F03CFF274904
S32D0000C6E8284800F038FF1AA1D1E9000103F05EFD00222649394800F039FA3749204800F02AFF35491F4800F0BE
S32D0000C71026FF4FF000004FF0804103F04BFD32491A4800F01CFF3149174800F018FF304800F0CAFD034683F0A9
S32D0000C7380103DBB2002B59D0F5E700BFAFF30080CDCCCCCCCCCCEC3F9A9999999999E93F333333333333E33F2A
S32D0000C760B8170020000010409A99193E441700206017002088400200101B002008170020A81A00200000F0C1E9
S32D0000C788281700200C1700200000E03F000020400000E040CDCCCC3F000024420000C0400000904100003442F1
S32D0000C7B00000B4420000A03F000096420000F83F00000A400000D242000034430000F0410000AA4200008C42B7
S32D0000C7D80000A04200002042000048420000B04200007041000070C100170020B04800F0C3FEB04800F0C0FE0B
S32D0000C8000123FB72FB7A184600F0E2F90022AC49AC4800F0AFF94FF08041AB4800F090F9AA4803F0E1FF78602F
S32D0000C82878680EF0FDFF9EA3D3E900230FF0E0FA0346002B60D0A449A44805F023FAA44801F089F94FF0404161
S32D0000C8504FF07A5000F074F99F4801F0FEF94FF040419E4800F06CF9002295499C4800F081F94FF040419B4899
S32D0000C87800F062F902229049994800F077F996498B4800F068FE94498A4800F064FE904801F0EBF90346012BDE
S32D0000C8A00CBF01230023DBB2002B00D0F3E7824800F066FE814800F063FE8C497E4800F04EFE8A497D4800F05F
S32D0000C8C84AFE79A1D1E9000103F070FC4FF040414FF0804000F030F900227749824800F045F94FF080417B4851
S32D0000C8F000F026F9002272497E4800F03BF964E078680EF091FF68A3D3E900230FF060FA0346002B59D07849F1
S32D0000C9186E4805F0B7F96E4801F01DF94FF040414FF07C5000F008F9694801F092F94FF04041704800F000F98F
S32D0000C94002224FF080416E4800F014F94FF080416C4800F0F5F800224FF080416A4800F009F95F49544800F067
S32D0000C968FAFD5D49534800F0F6FD594801F07DF90346012B0CBF01230023DBB2002B00D0F3E74B4800F0F8FD1D
S32D0000C9904A4800F0F5FD4FF080415C4800F0D0F84FF040414FF0804000F0CAF800224449574800F0DFF84FF0E4
S32D0000C9B88041564800F0C0F800223F49544800F0D5F854493A4800F0C6FD5249394800F0C2FD3F4801F049F9F0
S32D0000C9E00346002B14BF01230023DBB2002B00D0F3E7314800F0C4FD304800F0C1FD48494FF07C5000F09CF8C9
S32D0000CA08334801F0E2F843492A4800F0A4FD4149274800F0A0FD4FF00000404903F0C6FB4FF040413E4800F0F3
S32D0000CA3087F8002222493D4800F09CF8264801F0AAF82E493A4800F07BF8234801F005F93849194800F083FDBA
S32D0000CA582149184800F07FFD354800F031FC034683F00103DBB2002B00D0F5E7104800F083FD104800F080FD2F
S32D0000CA80FB7A184600F0A4F8134801F0C3F800F0CBFA2A490F4805F0F9F8012318461037BD4680BDAFF3008092
S32D0000CAA8333333333333E33F9A9999999999C93F0C17002028170020CDCCCC3F000020410000604008170020E7
S32D0000CAD094400200A81A0020B817002000003040000070410000C040000020420000A0410000C4420000BA422B
S32D0000CAF8A840020000002040000002430000C8400000C8426666E63E0000B442000004419A99BA420000F041E4
S32D0000CB20000020C00000D03F6666A63F0000F0420000D040000070C100170020B840020080B582B000AF7860B5
S32D0000CB4839603968064800F09FFF064B064A7968034800F009FE00BF0837BD4680BD00BF7C170020601700209E
S32D0000CB704417002080B586B000AFF860B9601346FB714FF000037B61FB79002B04D1BB6883F000437B6104E0A1
S32D0000CB98FB79022B01D1BB687B617969064800F073FF064B064AF968034800F07DFE00BF1837BD4680BD00BFA6
S32D0000CBC07C17002060170020441700200000000080B586B000AF0346FB71FB79FB730023FB750123BB750023C7
S32D0000CBE87B7501233B613B69022B31D03B69022B47DC3B69002B03D03B69012B14D040E03D493E4800F0A7FC94
S32D0000CC103D493E4800F0A3FC7B7D002B02D002233B612DE0BB7D002B2AD001233B6127E03549344800F093FCFB
S32D0000CC383349344800F08FFC7B7D002B02D002233B611BE0FB7D002B18D000233B6115E02B492A4800F07FFC1A
S32D0000CC6027492A4800F07BFCFB7D002B02D000233B6109E0BB7D002B06D001233B6103E000BF02E000BF00E024
S32D0000CC8800BF1BA1D1E9000103F090FAFB7B19461D4800F021FC0346FB75FB7B19461B4800F01AFC0346BB7514
S32D0000CCB0FB7B1946184800F013FC03467B75FB7D83F00103DBB2002B91D0BB7D83F00103DBB2002B8BD07B7D27
S32D0000CCD883F00103DBB2002B00D184E7074800F04BFC084800F048FC00BF1837BD4680BD9A9999999999A93FEC
S32D0000CD000000A0400C1700200000A04128170020FC16002000170020041700200000000090B587B000AFC7E923
S32D0000CD2802017A602A4804F095F82A4804F092F823A3D3E90023D7E902010EF0C9FD02460B461046194620A3E0
S32D0000CD50D3E900230EF0EAFE02460B46104619460FF054F803467B614FF07D5178680FF0EBF8034619461A4859
S32D0000CD7800F0F1FB7968194800F0EDFB144804F05EF80446134804F05AF803462344DA0F13445B101A467B6967
S32D0000CDA09342CCBF01230023DBB2002B00D0E9E70B4800F0E5FB0B4800F0E2FB00BF1C37BD4690BDAFF300809F
S32D0000CDC8105839B4C876294085EB51B81E85F33F44170020601700200C1700202817002090B587B000AFC7E964
S32D0000CDF002017A60344804F031F8344804F02EF82BA3D3E90023D7E902010EF065FD02460B461046194628A320
S32D0000CE18D3E900230EF086FE02460B46104619460EF0F0FF03467B617B6883F0004318460EF0F6FC20A3D3E9C5
S32D0000CE4000230EF091FB02460B46104619460FF025F8034619461E4800F081FB79684FF07C500FF06FF8034698
S32D0000CE6819461A4800F077FB154803F0E8FF0446144803F0E4FF03462344DA0F13445B101A467B699342CCBFC7
S32D0000CE9001230023DBB2002B00D0E9E70C4800F06FFB0C4800F06CFB00BF1C37BD4690BD105839B4C87629401E
S32D0000CEB885EB51B81E85F33F666666666666F63F44170020601700200C1700202817002090B587B000AFC7E9D6
S32D0000CEE002017A60224803F0B9FF224803F0B6FF1DA3D3E90023D7E902010EF0EDFC02460B46104619460EF08B
S32D0000CF0881FF03467B617B6883F000431946184800F021FB7968174800F01DFB134803F08EFF0446104803F03A
S32D0000CF308AFF0346DA0F13445B1023447A699A42CCBF01230023DBB2002B00D0EAE70B4800F016FB084800F071
S32D0000CF5813FB00BF1C37BD4690BD00BFAFF300805FFBB8ECC671EC3F44170020601700200C1700202817002046
S32D0000CF8090B587B000AFC7E902017A60224803F065FF224803F062FF1DA3D3E90023D7E902010EF099FC02460F
S32D0000CFA80B46104619460EF02DFF03467B617968194800F0D0FA7B6883F000431946174800F0C9FA124803F0B3
S32D0000CFD03AFF0446114803F036FF0346DA0F13445B1023447A699A42CCBF01230023DBB2002B00D0EAE70B4897
S32D0000CFF800F0C2FA084800F0BFFA00BF1C37BD4690BD00BFAFF300805FFBB8ECC671EC3F4417002060170020B1
S32D0000D0200C1700202817002080B500AF3E4A4FF000004FF08041FFF773FE3B4A4FF000003A49FFF79DFF3A48D3
S32D0000D04800F089FD30A1D1E9000103F0AFF8364800F0FFFD324A2EA1D1E90001FFF75CFE2F4A4FF0000031492C
S32D0000D070FFF732FF2E4800F072FD25A1D1E9000103F098F82A4800F0E8FD274A4FF000002949FFF745FE244A82
S32D0000D0984FF000002749FFF71BFF214A1EA1D1E90001FFF739FE204800F08FFD224A4FF000002249FFF70CFF9E
S32D0000D0C0214A4FF000002149FFF72AFE1C4A4FF000004FF08041FFF787FE194A4FF000001B49FFF7F9FE164A9D
S32D0000D0E84FF000001949FFF717FE134A4FF000001749FFF741FF104A4FF000000B49FFF76FFE00BF80BD00BF31
S32D0000D110666666666666FE3F666666666666F23F333333333333D33F0000704100005440B817002000001440EF
S32D0000D1380000E03F00002E400000F04100003C40000048420000F03F00003E4000000C400000494080B582B01C
S32D0000D16000AF786039607B68012B3DD13B684FF6FF72934238D100221A211D4800F08CF801220A211B4800F056
S32D0000D18887F8022208211A4800F082F800211948FFF772F9184A0021184800F0B6F9164A0221174800F0B1F900
S32D0000D1B01821164803F092FC154A1649134807F045F90321144803F089FC114A1149124807F03CF90C4A0B490E
S32D0000D1D8104800F08BFA104A0321104800F062FC00BF0837BD4680BDFC16002000170020041700200817002017
S32D0000D200000010410C170020281700204417002000000020BD0C0100601700207C1700200000A040B81700208F
S32D0000D22880B500AF4FF6FF710120FFF793FF80BD80B584B000AF78607B68184603F0D0FAF860F8680EF0ECFACF
S32D0000D2500DA3D3E900230EF0B1FD0346002B0AD1F8680EF0E1FA0AA3D3E900230EF0C4FD0346002B01D0012339
S32D0000D27800E0002318461037BD4680BDAFF300809A9999999999B93F9A9999999999F13F80B582B000AF78603A
S32D0000D2A00B46FB701346BB707B68FA781146184603F088FA7B68BA785A707B6818460837BD4680BD0000000002
S32D0000D2C880B584B000AF78600023FB737B68184603F086FAB8603E493E4804F034FCB9683C4804F0E2FC7B6860
S32D0000D2F05B78022B39D0022B52DC002B02D0012B1BD04DE0B8680EF08FFA29A3D3E900230EF068FD0346002B42
S32D0000D3180CD0B8680EF084FA25A3D3E900230EF053FD0346002B01D0012300E00023FB7332E0B8680EF074FA02
S32D0000D3401FA3D3E900230EF04DFD0346002B09D04FF07F51B8680FF0A7F80346002B01D0012300E00023FB73E2
S32D0000D3681AE0B8680EF05CFA15A3D3E900230EF035FD0346002B0CD0B8680EF051FA12A3D3E900230EF020FDFA
S32D0000D3900346002B01D0012300E00023FB7300BFFB7B18461037BD4680BD00BFAFF300807B14AE47E17AB43FC8
S32D0000D3B8333333333333D33FCDCCCCCCCCCCEC3FCDCCCCCCCCCCFC3F9A9999999999014088410200A81A002086
S32D0000D3E080B584B000AF78600023FB737B68184603F0FAF9B8607B685B78022B3CD0022B52DC002B02D0012BEC
S32D0000D4081BD04DE0B8680EF00BFA29A3D3E900230EF0E4FC0346002B0CD0B8680EF000FA25A3D3E900230EF025
S32D0000D430CFFC0346002B01D0012300E00023FB7332E0B8680EF0F0F91FA3D3E900230EF0C9FC0346002B0CD05C
S32D0000D458B8680EF0E5F91CA3D3E900230EF0B4FC0346002B01D0012300E00023FB7317E04FF07F51B8680FF05F
S32D0000D4801DF80346002B0CD0B8680EF0CDF912A3D3E900230EF09CFC0346002B01D0012300E00023FB7300BF72
S32D0000D4A8FB7B18461037BD4680BD00BFAFF300807B14AE47E17AB43FA4703D0AD7A3D03F666666666666E63FDB
S32D0000D4D0CDCCCCCCCCCCF03FCDCCCCCCCCCCFC3F80B584B000AF78600B46FB70FB78012B05D17868FFF7E8FE55
S32D0000D4F80346FB7304E07868FFF76EFF0346FB73FB7B18461037BD4680BD80B584B000AFF8600B467A60FB720E
S32D0000D520FB68F97A7A68184600F002FFFB684FF000029A60FB6818461037BD4680BD80B582B000AF78607B681F
S32D0000D5484FF000020121184600F0EEFE7B6818460837BD4680BD80B582B000AF786039607B683A689A607B686F
S32D0000D5703968184600F05CFF00BF0837BD4680BD80B582B000AF78607B68184600F00EFF7B684FF000029A60BB
S32D0000D59800BF0837BD4680BD80B582B000AF78607B684FF000029A617B6800221A617B684FF000025A6102F0C9
S32D0000D5C01FFE02460B46104619460EF067FC02467B68DA6000BF0837BD4680BD0000000090B58BB000AFF86047
S32D0000D5E8B9607A6002F008FE02460B46104619460EF050FC03467B62FB681B697A68D31A18460EF051FD0446C2
S32D0000D610FB68DB681946786A0EF094FC0346194620460EF04DFE034618460EF0FDF82EA3D3E900230EF050F98F
S32D0000D63802460B46104619460EF02CFC03463B62396AB8680EF07AFC0346FB61FB689B69F96918460EF074FCF9
S32D0000D66003461A46FB689A61214B1B681946F8690EF072FD0346BB61FB689B691C4A5268114618460EF068FD75
S32D0000D68803467B61FB685B691946F8690EF056FC03461A46144B9B68194610460EF058FD03463B61FB68FA695A
S32D0000D6B05A61FB687A6ADA60FB687A681A61FB689B68B96918460EF03FFC0346796918460EF03AFC0346396989
S32D0000D6D818460EF035FC034618462C37BD4690BDCCEEC9C342ADB93F04000020B0B584B000AFF860B9607A6059
S32D0000D700FB681846FFF71BFFFB681C331846FFF716FFFA68BB6814461D460FCD0FC495E8070084E80700FB68C4
S32D0000D7287A6803F11C0415460FCD0FC495E8070084E80700FB684FF000029A63FB6818461037BD46B0BD80B58E
S32D0000D75082B000AF78607B681C331846FFF720FF7B681846FFF71CFF00BF0837BD4680BD90B589B000AFF86038
S32D0000D778B9607A603B60F868FFF7E5FF786803F069FB386803F066FBB8680EF049F840A3D3E900230EF09CF8DD
S32D0000D7A002460B46104619460EF030FB0346FB61FB6803F11C04FB689B6B3B4918460EF0CBFC034619462046AA
S32D0000D7C8FFF7C9FEFC68FB689B6B354918460EF0BFFC034619462046FFF7BDFEFB689B6B4FF0000118460EF050
S32D0000D7F06FFE0346002B01D0012301E04FF0FF33BB6127A1D1E9000102F0D4FC786803F01AFB7861386803F02E
S32D0000D81816FB3861FB6803F11C04FB6803F11C00FB68996BBB693A6902FB03F31A46FFF7D3FE034619462046F8
S32D0000D840FFF78DFEFC68F868FB68996BBB697A6902FB03F31A46FFF7C3FE034619462046FFF77DFE7A693B69F7
S32D0000D8681344DA0F13445B101A46FB69934200DDC3E7FB681846FFF77FFEFB681C331846FFF77AFE00BF2437A4
S32D0000D890BD4690BDAFF30080A779C7293AF223409A9999999999C93F0000E0400000000090B58BB000AFF86013
S32D0000D8B8B9607A603B60F868FFF745FF786803F0C9FA386803F0C6FAB8680DF0A9FF66A3D3E900230DF0FCFF8C
S32D0000D8E002460B46104619460EF090FA03467B62FB689B6B4FF0000118460EF0CBFD0346002B02D04FF0FF339A
S32D0000D90800E001233B62FC68FB689B6B5C4918460EF01EFC034619462046FFF71CFEFB6803F11C04FB689B6B6A
S32D0000D93083F00043544918460EF00EFC034619462046FFF70CFE4CA1D1E9000102F032FC786803F078FAF8619C
S32D0000D958386803F074FAB861FC68F868FB68996B3B6AFA6902FB03F31A46FFF735FE034619462046FFF7EFFDE8
S32D0000D980FB6803F11C04FB6803F11C00FB689B6B83F000413B6A5B42BA6902FB03F31A46FFF71EFE0346194600
S32D0000D9A82046FFF7D8FDFA69BB691344DA0F13445B101A467B6A934213DDFB689B6801221446304918460EF0D5
S32D0000D9D061FD0346002B01D100231C46E3B283F00103DBB2002B00D1ADE7FB681846FFF7C7FDFB681C3318464C
S32D0000D9F8FFF7C2FD1EA1D1E9000102F0D7FBFA69BB691344DA0F13445B101A467B6AD31A7B617B69022B20DD69
S32D0000DA20FB689B6B83F000434FF0804118460EF047FC03461A46FB689A6378690DF0E2FE0FA3D3E900230DF0C5
S32D0000DA4847FF02460B46104619460EF023FA01463B687A68F868FFF727FF00BF2C37BD4690BD00BFAFF3008066
S32D0000DA70256986AE2E49E53F9A9999999999C93F1D935349B30DF83F0000E0400000F04180B483B000AF78600A
S32D0000DA9839607B683A689A6300BF0C37BD4680BC7047000080B584B000AFF8600B467A60FB72FB68F97A7A688D
S32D0000DAC0184600F035FCFB6806331F21184602F0E1FBFB6807331F21184602F0DBFBFB6808331F21184602F080
S32D0000DAE8D5FBFB68034ADA60FB6818461037BD4680BD00BF0000C84280B586B000AF7860084611461A46034605
S32D0000DB10FB700B46BB7013467B70FA7807F10C031146184602F0B6FB7B683A7B9A71BA7807F110031146184656
S32D0000DB3802F0ACFB7B683A7CDA717A7807F114031146184602F0A2FB7B683A7D1A7200BF1837BD4680BD80B554
S32D0000DB6082B000AF78607B680633184602F06EFC0346012B0CBF01230023DBB2002B06D07A687B68DB6819468C
S32D0000DB88104600F051FC00BF0837BD4680BD80B582B000AF78607B680733184602F052FC0346012B0CBF012391
S32D0000DBB00023DBB2002B08D07A687B68DB6883F000431946104600F033FC00BF0837BD4680BD80B582B000AFAE
S32D0000DBD878607A687B68DB681946104600F024FC7B680633184602F02DFC0346012B0CBF01230023DBB2002BA6
S32D0000DC0000D0F1E77B68184600F0D0FB00BF0837BD4680BD80B582B000AF78607A687B68DB6883F00043194609
S32D0000DC28104600F001FC7B680733184602F00AFC0346012B0CBF01230023DBB2002B00D0F1E77B68184600F000
S32D0000DC50ADFB00BF0837BD4680BD80B582B000AF78607B68184600F0A1FB00BF0837BD4680BD80B582B000AFB1
S32D0000DC7878607B680833184602F0E4FB034618460837BD4680BD000080B500AF0F4BD3F8A03003F48053002B65
S32D0000DCA014BF01230023DBB2002B10D0094BD3F8A030084A23F48053C2F8A030064806F053FB064B1B68054A3A
S32D0000DCC823F40053136000BF80BD00BF00C00440301B0020C0F00F4080B400AF124B4FF480725A63114B5B69D6
S32D0000DCF0104A43F4005353610E4B1B680D4A43F4005313600A4B0C4A1A630C4BD3F888310A4A43F08063C2F817
S32D0000DD188831084B9B68074A43F08063936000BFBD4680BC704700BF00C00440C0F00F4003010A0000E100E02E
S32D0000DD4080B400AF334B00225A70324B98221A70304B9B79DBB203F01003002B14BF01230023DBB2002B00D0B8
S32D0000DD68F2E72A4B9B79DBB29B08DBB203F00303022B14BF01230023DBB2002B00D0F0E7224B18221A71214B31
S32D0000DD9000225A71204B03F580531A461F4B53641C4B54225A711B4B9B79DBB203F02003002B0CBF01230023BF
S32D0000DDB8DBB2002B00D0F2E7144B9B79DBB203F04003002B0CBF01230023DBB2002B00D0F2E70E4B1B78DBB28F
S32D0000DDE00C4A03F03F03DBB213700A4B9B79DBB29B08DBB203F00303032B14BF01230023DBB2002B00D0F0E7B4
S32D0000DE0800231846BD4680BC704700BF00400640007004400000130180B500AF314B03F580539B6B2F4A43F487
S32D0000DE30785302F580529363FFF752FFFFF780FF2B4B58221A602A4B1B684FF47A7202FB03F3284A1360274BA3
S32D0000DE581B681A46234B03F580535B6C1B0E03F00F030133B2FBF3F31A46214B1A601D4B03F58053DB6B1B4AA0
S32D0000DE8043F0225302F58052D363184B03F580531B6B164A43F0006302F580521363174B4FF480721A6164204E
S32D0000DEA802F05AF8134B5B69124A23F010035361104B00221A600F4B10225A610E4803F003FB02F075FD02F0D5
S32D0000DED0D3FD0C4802F0A6F80B4806F099FA4FF4FA6002F051F900BF80BD00BF00700440F4190020F0190020F6
S32D0000DEF8F819002000D00340A81A0020EC190020A01B002080B500AFFEF719FA00BF80BD80B500AFFEF713FA08
S32D0000DF2000BF80BD80B500AFFEF70DFA00BF80BD80B500AFFEF707FA00BF80BD80B500AFFEF701FA00BF80BD55
S32D0000DF4880B500AFFEF7FBF900BF80BD80B500AFFEF7F5F900BF80BD80B500AFFEF7EFF900BF80BD80B500AF7E
S32D0000DF70FEF7E9F900BF80BD80B500AFFEF7E3F900BF80BD80B500AFFEF7DDF900BF80BD80B500AFFEF7D7F9AB
S32D0000DF9800BF80BD80B500AFFEF7D1F900BF80BD80B500AFFEF7CBF900BF80BD80B500AFFEF7C5F900BF80BD94
S32D0000DFC080B500AFFEF7BFF900BF80BD80B500AFFEF7B9F900BF80BD80B500AFFEF7B3F900BF80BD80B500AFBA
S32D0000DFE8FEF7ADF900BF80BD80B500AFFEF7A7F900BF80BD80B500AFFEF7A1F900BF80BD80B500AFFEF79BF923
S32D0000E01000BF80BD80B500AFFEF795F900BF80BD80B500AFFEF78FF900BF80BD80B500AFFEF789F900BF80BDCF
S32D0000E03880B500AFFEF783F900BF80BD80B500AFFEF77DF900BF80BD80B500AFFEF777F900BF80BD80B500AFF5
S32D0000E060FEF771F900BF80BD80B500AFFEF76BF900BF80BD80B500AFFEF765F900BF80BD80B500AFFEF75FF99A
S32D0000E08800BF80BD80B500AFFEF759F900BF80BD80B500AFFEF753F900BF80BD80B500AFFEF74DF900BF80BD0B
S32D0000E0B080B500AFFEF747F900BF80BD80B500AFFEF741F900BF80BD80B500AFFEF73BF900BF80BD80B500AF31
S32D0000E0D8FEF735F900BF80BD80B500AFFEF72FF900BF80BD80B500AFFEF729F900BF80BD80B500AFFEF723F912
S32D0000E10000BF80BD80B500AFFEF71DF900BF80BD80B500AFFEF717F900BF80BD80B500AFFEF711F900BF80BD46
S32D0000E12880B500AFFEF70BF900BF80BD80B500AFFEF705F900BF80BD80B500AFFEF7FFF800BF80BD80B500AF6D
S32D0000E150FEF7F9F800BF80BD80B500AFFEF7F3F800BF80BD80B500AFFEF7EDF800BF80BD80B500AFFEF7E7F88D
S32D0000E17800BF80BD80B500AFFEF7E1F800BF80BD80B500AFFEF7DBF800BF80BD80B500AFFEF7D5F800BF80BD85
S32D0000E1A080B500AFFEF7CFF800BF80BD80B500AFFEF7C9F800BF80BD80B500AFFEF7C3F800BF80BD80B500AFAB
S32D0000E1C8FEF7BDF800BF80BD80B500AFFEF7B7F800BF80BD80B500AFFEF7B1F800BF80BD80B500AFFEF7ABF805
S32D0000E1F000BF80BD80B500AFFEF7A5F800BF80BD80B500AFFEF79FF800BF80BD80B500AFFEF799F800BF80BDC1
S32D0000E21880B500AFFEF793F800BF80BD80B500AFFEF78DF800BF80BD80B500AFFEF787F800BF80BD80B500AFE6
S32D0000E240FEF781F800BF80BD80B500AFFEF77BF800BF80BD80B500AFFEF775F800BF80BD80B500AFFEF76FF87C
S32D0000E26800BF80BD80B500AFFEF769F800BF80BD80B500AFFEF763F800BF80BD80B500AFFEF75DF800BF80BDFC
S32D0000E29080B500AFFEF757F800BF80BD80B500AFFEF751F800BF80BD80B500AFFEF74BF800BF80BD80B500AF22
S32D0000E2B8FEF745F800BF80BD80B500AFFEF73FF800BF80BD80B500AFFEF739F800BF80BD80B500AFFEF733F8F4
S32D0000E2E000BF80BD80B500AFFEF72DF800BF80BD80B500AFFEF727F800BF80BD80B500AFFEF721F800BF80BD38
S32D0000E30880B500AFFEF71BF800BF80BD80B500AFFEF715F800BF80BD80B500AFFEF70FF800BF80BD0000000041
S32D0000E33080B584B000AFF8600B467A60FB72FB68FA7A1A71FB6800225A71174978680EF0BFF80346002B02D0CA
S32D0000E358134B7B600AE04FF07E5178680EF0A0F80346002B02D04FF07E537B6078680DF057FA09A3D3E9002306
S32D0000E3800DF0AAFA02460B46104619460DF086FD0246FB681A60FB6818461037BD4680BDABAAAAAAAAAA204036
S32D0000E3A80000404180B582B000AF78607B685B79002B09D07B6800225A717B6819791E230022034801F064FED7
S32D0000E3D000BF0837BD4680BDEC19002080B584B000AF786039603B687F2B02DD7F23FB7308E03B6813F1800FD9
S32D0000E3F802DA8023FB7301E03B68FB737B685B79FA7B9A4209D07B68FA7B5A717B681979FA7B1E23034801F0AD
S32D0000E4203BFE00BF1037BD4680BD00BFEC190020B0B584B000AF78603960374938680EF029F80346002B02D02D
S32D0000E448334B3B6008E0334938680EF03DF80346002B01D02F4B3B6038680DF0E1F904460D467B681B68184624
S32D0000E4700DF0DAF94FF00002294B0DF057FB02460B46204629460DF027FA02460B46104619460DF003FD03468A
S32D0000E4983B604FF0000138680EF00CF80346002B10D038680DF0BCF917A3D3E900230DF00FFA02460B461046A5
S32D0000E4C019460DF0A3FC0346FB6018E038680DF0ABF94FF00002134B0DF0FEF902460B46104619464FF0000234
S32D0000E4E80D4B0DF01FFB02460B46104619460DF089FC0346FB60F9687868FFF76BFF00BF1037BD46B0BD00BF4D
S32D0000E51052B81E85EB51F43F0000C8C20000C842000059400000604080B483B000AF03460A46FB711346BB7154
S32D0000E538BB79002B03D1134B00221A7002E0114B01221A703823FB710E4B1A78FB791343FB710D4B9B78DBB2AD
S32D0000E5600B4A43F01003DBB29370094B9B78DBB2074A43F02003DBB29370054AFB79137100BF0C37BD4680BCAF
S32D0000E588704700BFC81700200060064080B483B000AF01237B607B68312B04DC00BF7B6801337B60F7E700BFC8
S32D0000E5B00C37BD4680BC704780B582B000AF03460A46FB711346BB71134B1B7800211846FFF7AAFF00F024F849
S32D0000E5D8104AFB79137100F01FF80E4ABB79137100F01AF80B4B9B78DBB20A4A23F02003DBB29370074B9B7835
S32D0000E600DBB2064A23F01003DBB29370FFF7C2FF00BF0837BD4680BDC91700200060064080B483B000AF174B46
S32D0000E6281B78002B24D100237B60154BDB78DBB203F00203002B0CBF01230023DBB2002B0DD07B6842F2107270
S32D0000E650934203DD0B4B01221A7004E07B6801337B6000BFE5E7084BDB78DBB2064A43F00203DBB2D37000E018
S32D0000E67800BF0C37BD4680BC704700BFCA1700200060064080B582B000AF0346FB71FB79184600F05FF800BF73
S32D0000E6A00837BD4680BD80B582B000AF03460A46FB711346BB7100F035F8FB795B00DBB21846FFF7E3FFBB794A
S32D0000E6C81846FFF7DFFF00F037F800BF0837BD4680BD80B500AFFF2000F03CF80346184680BD80B584B000AF72
S32D0000E6F00346FB7100F016F8FB795B005BB243F001035BB2DBB21846FFF7C0FFFFF7E5FF0346FB7300F014F8FC
S32D0000E718FB7B18461037BD4680BD000080B400AF044B9B68034A43F48013936000BFBD4680BC704740F00F4005
S32D0000E74080B400AF044B5B68034A43F48013536000BFBD4680BC704740F00F4080B485B000AF0346FB710023C8
S32D0000E768BB73164BDB6A03F00043012B0CBF01230023DBB2002B03D0FB7B0133FB73F0E70E4BDB6A0D4A43F099
S32D0000E7900043D3620B4AFB7953630A4BDB6A03F40033002B0CBF01230023DBB2002B00D0F3E7044B9B6BBB737E
S32D0000E7B8BB7B18461437BD4680BC704700C00A4080B582B000AF204B03F580531B6B1E4A43F4805302F5805247
S32D0000E7E013631C4B4FF480721A651B4B5B691A4A43F480135361FFF7A3FF164B4FF400725A65144B4FF40072ED
S32D0000E8089A65124B4FF40072DA65124B124A1A60104B124ADA6000237B607B68092B06DCFF20FFF72FFF7B6851
S32D0000E83001337B60F5E704A1D1E9000101F0BAFC00BF0837BD4680BD9A9999999999B93F0070044000A0044063
S32D0000E85840F00F4000C00A40000C00800500003E90B486B000AFF860B9607A60FB68534A93420AD1524B03F581
S32D0000E88080535B6B504A43F4806302F58052536345E0FB684D4A93420AD14B4B03F580535B6B494A43F400637B
S32D0000E8A802F58052536336E0FB68474A93420AD1434B03F580535B6B414A43F4805302F58052536327E0FB686C
S32D0000E8D0404A93420AD13C4B03F580535B6B3A4A43F4005302F58052536318E0FB683A4A93420AD1344B03F535
S32D0000E8F880539B6A324A43F4806302F58052936209E02F4B03F580539B6A2D4A43F4006302F580529362FB6861
S32D0000E920DB78DBB223F00C03DAB2FB68DA70FB6800229A70BB684FF47A7203FB02F27B681B0192FBF3F39CB2FB
S32D0000E948FB681B78DBB223F01F03FB75230A9BB2DBB203F01F03DAB2FB7D1343DAB2FB681A70E2B2FB685A70C9
S32D0000E970BB684FF4FA4203FB02F27B681B0192FBF3F39AB263019BB2D31A9CB2FB689B7ADBB223F01F03FB7591
S32D0000E998E3B203F01F03DAB2FB7D1343DAB2FB689A72FB68DB78DBB243F00C03DAB2FB68DA7000BF1837BD4683
S32D0000E9C090BC704700A006400070044000B0064000C0064000D0064000A00E4080B483B000AF78607B681B7927
S32D0000E9E8DBB203F02003002B0CBF01230023DBB2002B00D0F2E77B68DB79DBB218460C37BD4680BC704780B431
S32D0000EA1083B000AF78600B46FB707B681B79DBB25BB2DB43DBB2DB09DBB2002B00D0F4E77B68FA78DA7100BF00
S32D0000EA380C37BD4680BC704780B487B000AFF860B9607A60FB687B617B685A1E7A60002B14BF01230023DBB2CC
S32D0000EA60002B06D07B695A1C7A61BA68D2B21A70EEE700BF1C37BD4680BC704780B584B000AF786039607B68D9
S32D0000EA881B6BFB60FA683B689A4252D07B681B79002B35D07B6858787B6803F134010123FA6801F0F7F8034667
S32D0000EAB0002B14BF01230023DBB2002B01D001233CE07B6800221A717B685A6A7B681B6A1344FA689A4217D20D
S32D0000EAD87B68DB78FB72FB7A012B11D97B681B6AFA681344FB607B6858787B6803F134010123FA6801F0CEF86A
S32D0000EB00FB7A013BFB72EAE73B68002B15D07B6858787B6803F1340101233A6800F0DAFF0346002B14BF01238C
S32D0000EB280023DBB2002B01D0012303E07B683A681A63002318461037BD4680BD80B584B000AF78600021786811
S32D0000EB50FFF794FF0346FB73FB7B002B40F093807B681B78032B7DD17B685B79002B79D07B6800221A637B68F1
S32D0000EB7834334FF4007200211846FFF75DFF7B68552283F832227B68AA2283F833227B68522283F834207B68D1
S32D0000EBA0522283F835207B68612283F836207B68412283F837207B68722283F818227B68722283F819227B6878
S32D0000EBC8412283F81A227B68612283F81B227B681B69DAB27B6883F81C227B681B699BB21B0A9BB2DAB27B68C3
S32D0000EBF083F81D227B681B691B0CDAB27B6883F81E227B681B691B0EDAB27B6883F81F227B68DB68DAB27B6835
S32D0000EC1883F820227B68DB689BB21B0A9BB2DAB27B6883F821227B68DB681B0CDAB27B6883F822227B68DB685E
S32D0000EC401B0EDAB27B6883F823227B6858787B6803F134017B685A69012301F01FF87B6800225A717B685B7837
S32D0000EC6800220021184601F0E1F80346002B14BF01230023DBB2002B01D00123FB73FB7B18461037BD4680BD0F
S32D0000EC9080B582B000AF78600B467B807B68002B08D07B681B78002B04D07B68DB887A889A4201D0092311E0AF
S32D0000ECB87B685B78184601F03BF9034603F00103002B14BF01230023DBB2002B01D0032300E000231846083721
S32D0000ECE0BD4680BD80B586B000AF78607B681A687B689B8819461046FFF7CAFF0346FB75FB7D002B40F0AC803D
S32D0000ED087B689B7903F02003002B00F0A5807B689B7903F04003002B1BD07B681B6858787B6803F128017B6834
S32D0000ED309A69012300F0B2FF0346002B14BF01230023DBB2002B01D001238AE07B689B7923F04003DAB27B688C
S32D0000ED589A717B681A687B68DB6919461046FFF789FE0346FB75FB7D002B75D17B681B6A3B613B690B331A78AA
S32D0000ED803B690B3342F02002D2B21A707B68DA683B691C33D2B21A707B68DB689BB21B0A9AB23B691D33D2B29F
S32D0000EDA81A707B68DB681A0C3B691E33D2B21A707B68DB681A0E3B691F33D2B21A707B681A693B691A33D2B237
S32D0000EDD01A707B681B699BB21B0A9AB23B691B33D2B21A707B681B691A0C3B691433D2B21A707B681B691B0C52
S32D0000EDF89BB21B0A9AB23B691533D2B21A700023FB603B691633FA68D2B21A70FB689BB21B0A9AB23B6917334B
S32D0000EE20D2B21A70FB681A0C3B691833D2B21A70FB681A0E3B691933D2B21A707B689B7923F02003DAB27B680B
S32D0000EE489A717B681B6801221A717B681B681846FFF774FE0346FB75FB7D18461837BD4680BD80B584B000AF1B
S32D0000EE7078607868FFF736FF0346FB73FB7B002B02D17B6800221A60FB7B18461037BD4680BD000080B588B01F
S32D0000EE9800AF7860396080233B610F23FB604FF0FF337B610223FB61FB69B3F5807F23D80123BB61BB69102BED
S32D0000EEC01AD8FB69BA6902FB03F33A6803FB02F27B68D31ABB60BB68002B09DBBB687A699A4205D9BB687B6148
S32D0000EEE8FB693B61BB69FB60BB690133BB61E1E7FB695B00FB61D7E71D4BDB6A1C4A23F00803D3621A4BDB6A58
S32D0000EF1023F47F2323F47F63BB613B695B081B029AB2FB68013B1B01DBB21A43BB691343114A43F46023D3622C
S32D0000EF380F4B5B6A03F00803002B0CBF01230023DBB2002B03D00A2001F01AF9F0E7084BDB6A074A43F008039A
S32D0000EF60D362054B1B6B044A43F48013136300BF2037BD4680BD00BF00100B4080B582B000AF786039607B6810
S32D0000EF8800221A60414B424ADA62404BDB6A03F08073002B14BF01230023DBB2002B00D0F3E73A4B0022C3F8AC
S32D0000EFB0C020384B4FF481325A60364B28229A62344B4FF001125A643B689B6833491846FFF760FF2F4B5B6AB6
S32D0000EFD803F00303002B14BF01230023DBB2002B00D0F3E72C4B40F243421A602A4B40F243425A60284B4FF427
S32D0000F00088629A60264B40F24342DA60244B40F243421A61224B40F243425A61214B03F580531B6B1F4A43F4BF
S32D0000F028003302F580521363184B4FF6FF721A63164B1B4A5A63154BDB6A144A43F00063D362124BDB6A03F0CC
S32D0000F0500063002B14BF01230023DBB2002B00D0F3E70C4B5B6A03F48033002B14BF01230023DBB2002B02D0F3
S32D0000F0787B6801221A60054B1B6B044A43F080031363002318460837BD4680BD00100B400080000160CC05008D
S32D0000F0A000D0044000700440B3007F0080B400AF064B5A6A40F207331340002B14BF01230023DBB21846BD465E
S32D0000F0C880BC704700100B4080B485B000AF7860074B1B6B7A681340FB60FB68002B00D1F6E7FB68184614372C
S32D0000F0F0BD4680BC704700BF00100B4080B584B000AF78607B681B7803F03F03764A52F82330FB60FB68002B01
S32D0000F11805D17B681B78002B01D00123DCE0714B1B6B704A43F0800313636E4B5B6A03F00103002B14BF0123E2
S32D0000F1400023DBB2002B00D0F3E7684A7B685B689360FB6823F44003FB607B685B789B0503F44003FA68134371
S32D0000F168FB607B685B78022B03D1FB6843F40013FB607B685B78042B16D1FB6803F44033B3F5003F08D1FB68A3
S32D0000F19023F44033FB60FB6843F44033FB6007E0FB6823F44033FB60FB6843F40033FB604E4B5B684D4A9BB26D
S32D0000F1B853607B68DB68002B2AD0FB6803F44033B3F5403F03D0FB6843F40013FB607B681B7A002B03D0FB6883
S32D0000F1E043F01003FB607B68DB68012B03D9FB6843F02003FB607B68DB68B3F1FF3F0BD03A4B5A687B68DB68CE
S32D0000F2081B04384913434B60FB6843F00203FB60344B00221A60334AFB68D3603248FFF753FF0346012B14BF09
S32D0000F23001230023DBB2002B09D02C4B1B6B2B4A43F4702343F001031363012348E0274B1B6B03F08003002B0A
S32D0000F25814BF01230023DBB2002B07D0214B1B6B204A43F001131363012335E01D4B1B6B03F48033002B14BFF7
S32D0000F28001230023DBB2002B08D0184B1B6B174A43F0011313634FF0FF3321E0FB6803F44033002B15D0114BD7
S32D0000F2A81A697B681A61FB6803F44033B3F5803F0BD10C4B5A697B685A610A4B9A697B689A61084BDA697B68E0
S32D0000F2D0DA61064B1B6B054A43F001031363002318461037BD4680BD9C41020000100B4001000E0080B592B03A
S32D0000F2F800AF7860396000237B643B68BB63994B7B637B6B002B02D140F601235FE3964B3B633B6B002B02D1A0
S32D0000F32040F60B2357E33B6B1B68FB62FB6A002B02D140F60B234EE37B6841F20932934200F23F837B68B3F53E
S32D0000F348985F08D87B68032B00F01A837B68092B00F0098331E37B68A3F59853013B082B00F22B8301A252F819
S32D0000F37023F000BF99F3000085F60000E1F800009BF60000D9F60000FFF7000047F8000089F70000A3F700000E
S32D0000F3987649786BFFF7EEFD78647B6C002B40F01083002387F84330002387F82B30002387F82A30002387F863
S32D0000F3C02930002387F84230002387F8283000233B7200237B720023FB6000233B7400237B6107F10803184628
S32D0000F3E8FFF788FE0346002B14BF01230023DBB2002B02D001237B64E8E240F24C4000F0BFFE08233B72002330
S32D0000F4107B724FF4D573FB6000233B7400237B6107F108031846FFF769FEF863FB6B002B09D1BA69FB689A4244
S32D0000F43802D001237B64C9E2012387F84230012387F8283097F82830002B00F0A58037233B7200237B720023B5
S32D0000F460FB6000233B7400237B6107F108031846FFF744FEF863FB6B002B02D001237B64A8E269233B72002312
S32D0000F4887B720023FB6000233B7400237B6107F108031846FFF72EFE0346002B14BF01230023DBB2002B02D07F
S32D0000F4B001237B648EE2BB6903F44013002B6FD00023FB630A2000F05FFEFB6B0133FB6337233B7200237B72DC
S32D0000F4D80023FB6000233B7400237B6107F108031846FFF707FE0346002B14BF01230023DBB2002B02D001231F
S32D0000F5007B6428E069233B7200237B7297F84230002B02D0184BFB6002E04FF44013FB6000233B7400237B614D
S32D0000F52807F108031846FFF7E5FD0346002B14BF01230023DBB2002B02D001237B6406E0BB69002B03DBFB6BE8
S32D0000F550632B00D8B6E77B6C002B40F03882FB6B632B0BD9002387F8423019E0E0170020E419002090410200A2
S32D0000F57800003040012387F8433097F84230002B0AD0002387F84230BB6903F08043002B02D0012387F84230D9
S32D0000F5A097F82A30002B02D07B6B07221A6097F82930002B02D07B6B08221A6097F82B30002B02D07B6B04226C
S32D0000F5C81A6097F84330002B09D07B6B02221A6097F84230002B02D07B6B03221A6097F82B30002B0DD097F80D
S32D0000F5F04330002B09D07B6B05221A6097F84230002B02D07B6B06221A60924B00221A60904B00225A608F4B5F
S32D0000F61800229A608D4B0022DA608C4B00221A618A4B00225A61FB6A9A68FB6A5B6819461046FFF72BFC854B1D
S32D0000F64040F243421A60834B40F243425A60814B4FF488629A607F4B40F24342DA607D4B40F243421A617B4BBE
S32D0000F66840F243425A617A4B03F580531B6B784A43F4003302F580521363A7E1B86BFFF739FDF863FB6B002BBE
S32D0000F69000F09F8102237B649BE1BB6B002B02D10C237B6496E16D4BDB6A1B0A5B0003F4FF73FB63694BDB6AD6
S32D0000F6B81B0903F00F035A1CFB6B02FB03F3FB63FB6A9A68FB6BB2FBF3F2BB6B1A607DE1BB6B002B02D10C231E
S32D0000F6E07B6477E1BB6B1B68002B02D10C237B6470E1FFF7DBFC0346002B0CBF01230023DBB2002B3CD0534B0A
S32D0000F70800221A60514B00225A60504B00229A604E4B0022DA604D4B00221A614B4B00225A61FB6A9A68BB6BDE
S32D0000F7301B6819461046FFF7ADFB464B40F243421A60444B40F243425A60424B4FF488629A60404B40F243421D
S32D0000F758DA603E4B40F243421A613C4B40F243425A613B4B03F580531B6B394A43F4003302F58052136329E188
S32D0000F78040F60A237B6425E1BB6B002B02D10C237B641FE1314B5B68C3F30C02BB6B1A6018E1BB6B002B02D121
S32D0000F7A80C237B6412E1FFF77DFC0346002B0CBF01230023DBB2002B19D0BB6B1B68B3F5805F02D30C237B6489
S32D0000F7D000E1224B5B68214A23F4FF5323F01F0353601E4B5A68BB6B1B68C3F30C031B4913434B60EEE040F63C
S32D0000F7F80A237B64EAE0BB6B002B02D10C237B64E4E0144B9B6A5B0803F00303FB63FB6B002B03D1BB6B00224C
S32D0000F8201A60D7E0FB6B012B03D1BB6B01221A60D0E0FB6B102B03D1BB6B02221A60C9E005237B64C6E0BB6BFB
S32D0000F848002B09D10C237B64C0E000BF00D004400070044000100B40FFF724FC0346002B0CBF01230023DBB2D4
S32D0000F870002B31D0BB6B1B68002B0AD1584B9B6A574A23F006039362554B554A9B6A9362A0E0BB6B1B68012BA7
S32D0000F8980CD1514B9B6A504A23F0060393624E4B9B6A4D4A43F0020393628FE0BB6B1B68022B0AD1484B9B6AFF
S32D0000F8C0474A23F006039362454B454A9B6A936280E005237B647DE040F60A237B6479E0BB6B002B02D10C23AD
S32D0000F8E87B6473E03C4BDB6A3B4A43F00063D362394BDB6A03F00063002B14BF01230023DBB2002B00D0F3E7DE
S32D0000F910334B1B6B03F08003002B14BF01230023DBB2002B08D02E4B1B6B2D4A43F0800313637B6B00221A6056
S32D0000F938294B5B6A03F48033002B14BF01230023DBB2002B07D07B6B1B68002B06D17B6B01221A6002E07B6B34
S32D0000F96000221A607B6B1A68BB6B1A6032E0BB6B1C221A60BB6B043304221A60BB6B08334FF41E721A6025E035
S32D0000F9880220FFF7A1FB144B1B6B03F4E003002B14BF01230023DBB2002B07D00E4B1B6B0D4A43F4E003136344
S32D0000F9B004237B640A4B1B6B094A43F03203136308E040F609237B6404E000BF02E000BF00E000BF7B6C1846C6
S32D0000F9D84837BD4680BD00BF00100B4080B489B000AF786039607B687B61364B3B613B69002B01D100235FE0BC
S32D0000FA003B691B68022B0BD03B691B68032B07D03B691B68072B03D03B691B68082B0BD12B4B5B6A03F00403E6
S32D0000FA28002B14BF01230023DBB2002B00D0F3E73B68FB61FB69002B3DD0FB69B3F5007F28BF4FF40073FB60EB
S32D0000FA50FB6803339B08BB61BB69002B2AD01C4B1B6B03F4E003002B14BF01230023DBB2002B09D0164B1B6B63
S32D0000FA78154A43F4E00343F02003136300231BE0114B5B6A03F40063002B0CBF01230023DBB2002B00D0F3E7E3
S32D0000FAA00B497B691A1D7A610A6A1A60BB69013BBB61D1E7FA69FB68D31AFB61BEE7012318462437BD4680BCFC
S32D0000FAC8704700BFE017002000100B4080B58EB000AFB9607A601A460346FB731346BB73414B7B63FB7B002B6A
S32D0000FAF002D1BB7B002B01D1042375E03D4B1B78DBB203F00103002B14BF01230023DBB2002B01D0032367E08C
S32D0000FB18BB68002B01D1002362E07B6B1B7B002B02D17B685B027B60BB7B012B28D111233B7500237B757B6870
S32D0000FB40BB6101233B77BB7B3B6207F11403194641F20230FFF7CEFB0346002B0CBF01230023DBB2002B38D0FA
S32D0000FB684FF40071B868FFF739FF0346002B14BF01230023DBB2002B2BD00023BB7328E012233B7500237B75DB
S32D0000FB907B68BB6101233B77BB7B3B6207F11403194641F20230FFF7A5FB0346002B0CBF01230023DBB2002BF8
S32D0000FBB80FD0BB7B5B021946B868FFF70FFF0346002B14BF01230023DBB2002B01D00023BB73BB7B002B01D090
S32D0000FBE0012300E0002300BF18463837BD4680BDCC1700201000002080B487B000AF786039607B68FB603B6865
S32D0000FC087B617B69002B3DD07B69B3F5007F28BF4FF400733B617A693B69D31A7B613B6903339B083B613B6985
S32D0000FC30002BEAD0184B1B6B03F4E003002B14BF01230023DBB2002B0AD0134B1B6B124A43F4E00343F0100387
S32D0000FC5813634FF0FF3316E00D4B5B6A03F48063002B0CBF01230023DBB2002B00D0F3E7FB681A1DFA60064AC7
S32D0000FC801B6813623B69013B3B61D0E7012318461C37BD4680BC704700100B4080B58EB000AFB9607A601A4690
S32D0000FCA80346FB731346BB735D4B7B63FB7B002B02D1BB7B002B01D10423ADE0594B1B78DBB203F00103002B29
S32D0000FCD014BF01230023DBB2002B01D003239FE0524B1B78DBB203F00403002B14BF01230023DBB2002B01D039
S32D0000FCF8022391E0BB68002B01D100238CE07B6B1B7B002B02D17B685B027B60BB7B012B28D118233B7500239B
S32D0000FD207B757B68BB6100233B77BB7B3B6207F11403194641F20230FFF7DCFA0346002B0CBF01230023DBB26C
S32D0000FD48002B38D04FF40071B868FFF751FF0346002B14BF01230023DBB2002B2BD00023BB7328E019233B75BA
S32D0000FD7000237B757B68BB6100233B77BB7B3B6207F11403194641F20230FFF7B3FA0346002B0CBF01230023AF
S32D0000FD98DBB2002B0FD0BB7B5B021946B868FFF727FF0346002B14BF01230023DBB2002B01D00023BB730D23E0
S32D0000FDC03B7500237B757B6B1B69BB6100233B7700233B6207F11403194641F20230FFF789FA0346002B14BFA4
S32D0000FDE801230023DBB2002B01D0012314E07A6A0D4B1340002B01D001230DE07B6A03F4F853B3F5106F00D04B
S32D0000FE10D5E7BB7B002B01D0012300E0002300BF18463837BD4680BDCC170020100000200880D9FF80B58CB0DF
S32D0000FE3800AF03463A60FB710B46BB713A4BBB62FB79002B01D0042369E0012387F82F30364B1B78DBB203F009
S32D0000FE600103002B14BF01230023DBB2002B01D0032358E0BB79032B50D801A252F823F091FE000099FE000094
S32D0000FE88A9FE0000B9FE0000002387F82F3044E0BB6A9A683B681A60002387F82F303CE03B684FF400721A8076
S32D0000FEB0002387F82F3034E009233B7200237B72BB6A1B69FB6000233B7400237B6107F10803194641F202308A
S32D0000FED8FFF70CFA0346002B14BF01230023DBB2002B01D001231AE07B6A03F44003002B0CD13B6A9B0C03F065
S32D0000FF007F035A1C7B6A1B0A03F00303013B9A403B681A60002387F82F3002E0042387F82F3097F82F30184671
S32D0000FF283037BD4680BD00BFCC1700201000002080B483B000AF0346FB71FB79002B01D0012302E0034B1B78F0
S32D0000FF50DBB218460C37BD4680BC70471000002080B483B000AF7860164B03F580539B6B144A43F0010302F583
S32D0000FF7880529363124A7B689360114B05225A600F4B1B680E4A43F0010313600C4B1B6803F08003002B0CBFFF
S32D0000FFA001230023DBB2002B00D0F3E7064B1B68054A23F00103136000BF0C37BD4680BC704700BF0070044072
S32D0000FFC80000044080B582B000AF786039607B68012B07D13B684FF6FF72934202D1034800F00EF800BF083719
S32D0000FFF0BD4680BDEC19002080B500AF4FF6FF710120FFF7E3FF80BD80B483B000AF78607B6800221A707B684F
S32D0001001818460C37BD4680BC7047000080B582B000AF78607B681B7883F00103DBB2002B21D0134B03F5805375
S32D000100401A464FF400639362104B4FF440721A620E4B4FF440725A620D4B1B68DA0F13445B104FF461421946F5
S32D000100680A48FEF7FDFB642000F08AF87B6801221A70012300E0002318460837BD4680BD0070044000D00440D8
S32D00010090F019002000B00E4080B582B000AF7860084611461A460346FB700B46BB7013467B707F210E48FEF7C8
S32D000100B8AAFC08210C48FEF7A6FCFB7819460A48FEF7A1FCBB7819460748FEF79CFC7B7819460548FEF797FC14
S32D000100E0FF210348FEF793FC00BF0837BD4680BD00B00E4080B487B000AFF860B9607A60FB681F4AA2FB0323D2
S32D000101089B09BA6813447B61FB681B4AA2FB031292094FF47A7101FB02F29B1AFB60FB68DB03154AA2FB032329
S32D000101309B097A6813443B613B69DB0B7A6913447B613B69C3F30E033B610E4B1B687A699A4209D80B4B1B682B
S32D000101587A699A4206D1094B5B683A699A4201D9012300E00023002B00D0EAE700BF1C37BD4680BC704700BFB8
S32D00010180D34D621000D0034080B584B000AF7860074B1B68FB60064B5B68BB607B68BA68F9681846FFF7A6FFFD
S32D000101A800BF1037BD4680BD00D0034080B584B000AFC7E900010E4B1B68FB600C4B5B68BB604FF000020B4B03
S32D000101D0D7E900010BF080FB02460B46104619460BF03CFE0346BA68F9681846FFF782FF00BF1037BD4680BD5F
S32D000101F800D0034000408F4080B584B000AF134B1B68FB60114B5B68BB60F8680BF0E6FA02460B46C7E9002381
S32D00010220B8680BF0DFFA4FF000020B4B0BF07EFC02460B46D7E900010BF098F902460B46C7E90023D7E900237A
S32D00010248104619461037BD4680BD00BF00D003400000E04080B483B000AF0B4B1B684FF47A7202FB03F37B606D
S32D00010270074B5B684FF47A7202FB03F3DB0B7A6813447B607B6818460C37BD4680BC704700D0034080B582B03A
S32D0001029800AF78600B46FB70FB781946786800F005F87B6818460837BD4680BD80B483B000AF78600B46FB70EB
S32D000102C07B68FA781A707B681B781A46534B9B5C042B00F29E8001A252F823F0F10201002B03010065030100FA
S32D000102E89F030100D90301004B4A7B681B7819464A4B53F8213040F2031142F82310484B5A697B681B781946EE
S32D00010310444B53F8213003F01F03012101FA03F3DB43414913404B6173E0404A7B681B7819463C4B53F82130EF
S32D0001033840F2031142F823103B4B5A697B681B781946364B53F8213003F01F03012101FA03F3DB433449134092
S32D000103604B6156E0334A7B681B7819462D4B53F8213040F2031142F823102F4B5A697B681B781946274B53F8A4
S32D00010388213003F01F03012101FA03F3DB43284913404B6139E0274A7B681B7819461F4B53F8213040F2031194
S32D000103B042F82310224B5A697B681B781946194B53F8213003F01F03012101FA03F3DB431B4913404B611CE007
S32D000103D81A4A7B681B781946104B53F8213040F2031142F82310164B5A697B681B7819460A4B53F8213003F036
S32D000104001F03012101FA03F3DB430F4913404B6100BF00BF0C37BD4680BC70479C42020000900440E042020094
S32D0001042800F00F4000A0044040F00F4000B0044080F00F4000C00440C0F00F4000D0044000F10F4080B485B090
S32D0001045000AF78600023FB607B681B781A46364B9B5C042B5CD801A252F823F081040100A1040100C1040100D5
S32D00010478E1040100010501002E4B1B697A68127811462D4A52F8212002F01F02012101FA02F21340FB603FE0B5
S32D000104A0284B1B697A6812781146254A52F8212002F01F02012101FA02F21340FB602FE0214B1B697A6812783C
S32D000104C811461D4A52F8212002F01F02012101FA02F21340FB601FE01A4B1B697A6812781146154A52F8212055
S32D000104F002F01F02012101FA02F21340FB600FE0134B1B697A68127811460D4A52F8212002F01F02012101FA65
S32D0001051802F21340FB6000BFFB68002B14BF01230023DBB218461437BD4680BC704700BF9C42020000F00F40A1
S32D00010540E042020040F00F4080F00F40C0F00F4000F10F40B0B48BB000AF224B3C1D1D460FCD0FC495E80F0039
S32D0001056884E80F0000237B627B6A072B30DC1C4BD3F8A0207B6A9B0028333B4453F8243C012101FA03F3134069
S32D00010590002B14BF01230023DBB2002B18D0134A7B6A52F823305A1C10497B6A41F823200D4BD3F8A0207B6A80
S32D000105B89B0028333B4453F8243C012101FA03F307491340C1F8A0307B6A01337B62CBE700BF2C37BD46B0BC7C
S32D000105E0704700BFE443020000A004401C1A0020B0B489B000AF224B3C1D1D460FCD0FC495E8030084E8030000
S32D000106080023FB61FB69052B30DC1C4BD3F8A020FB699B0020333B4453F81C3C012101FA03F31340002B14BFDA
S32D0001063001230023DBB2002B18D0FB690833124A52F823200132104941F823200D4BD3F8A020FB699B002033EF
S32D000106583B4453F81C3C012101FA03F307491340C1F8A030FB690133FB61CBE700BF2437BD46B0BC704700BF6D
S32D000106800444020000B004401C1A0020B0B48DB000AF234B3C461D460FCD0FC40FCD0FC495E8070084E80700BF
S32D000106A80023FB62FB6A0A2B30DC1C4BD3F8A020FB6A9B0030333B4453F8303C012101FA03F31340002B14BF0E
S32D000106D001230023DBB2002B18D0FB6A0E33124A52F823200132104941F823200D4BD3F8A020FB6A9B00303337
S32D000106F83B4453F8303C012101FA03F307491340C1F8A030FB6A0133FB62CBE700BF3437BD46B0BC704700BFA7
S32D000107201C440200009004401C1A0020B0B487B000AF214B3C461D460FCD0FC42B68236000237B617B69042BAC
S32D0001074830DC1C4BD3F8A0207B699B0018333B4453F8183C012101FA03F31340002B14BF01230023DBB2002B39
S32D0001077018D07B691933124A52F823200132104941F823200D4BD3F8A0207B699B0018333B4453F8183C012164
S32D0001079801FA03F307491340C1F8A0307B6901337B61CBE700BF1C37BD46B0BC704700BF4844020000D00440D6
S32D000107C01C1A002080B483B000AF78600B46FB707B68FA781A707B6818460C37BD4680BC7047000000000000B1
S32D000107E880B586B000AF78607B681B781A463E4B53F822303B617B681B781A463B4B9B5CFB733B69DBB203F073
S32D000108101F03DAB2384B1A723B69DBB203F01F03DAB2354B5A72354B1022C3F88820FB7B002B13D13049324851
S32D0001083800F0BBFB304B1B6803F08003802B14BF01230023DBB2002B00D0F3E72A4B1B697B6112E026492948A9
S32D0001086000F0A7FB274B1B6803F08003802B14BF01230023DBB2002B00D0F3E7214B1B697B611E4BD3F888318C
S32D000108881C4A43F01003C2F888311A4B9B68194A43F0100393607B699BB218460AF09EFF0DA3D3E900230BF06E
S32D000108B013F802460B46104619460BA3D3E900230BF034F902460B46104619460BF0E6FA0346BB60BB681846FD
S32D000108D81837BD4680BD00BFA4703D0AD7A30A4000000000E0FFEF4060430200BC420200FC19002000E100E0DB
S32D0001090000B0034000B00B4080B586B000AF78607B681B781A46234B53F822303B617B681B781A46204B9B5C33
S32D00010928FB733B69DBB203F01F03DAB21D4B1A723B69DBB203F01F03DAB21A4B5A72FB7B002B13D11749184824
S32D0001095000F02FFB164B1B6803F08003802B14BF01230023DBB2002B00D0F3E7104B1B697B6112E00D490F4883
S32D0001097800F01BFB0D4B1B6803F08003802B14BF01230023DBB2002B00D0F3E7074B1B697B617B69184618378F
S32D000109A0BD4680BD60430200BC4202000C1A002000B0034000B00B4098B500AF204B5C221A701F4B10225A703A
S32D000109C81D4B41F234225A801B4B45F278629A80194B10229A71184B0722DA71164B4FF4C022DA60144B1F22CC
S32D000109F01A72134B1F225A721149124800F0D9FA0F49114800F0D5FA0F4800F033FA0D4800F030FA0A490C4870
S32D00010A1800F0CBFA0849094800F0C7FA094A064B14460FCB84E80F00064B5C221A70054B0422DA7100BF98BD26
S32D00010A40FC19002000B0034000B00B400C1A002080B500AF064B1B680133054A136000F087F9044B0122C3F8D3
S32D00010A680C2100BF80BD00BFA01A00200070034080B500AF0C4B01221A600C4800F01AF8094B0322C3F808215F
S32D00010A90094BD3F88831084A43F01003C2F88831054B9B68044A43F01003936000BF80BD00700340A0860100A4
S32D00010AB800E100E080B483B000AF7860044A7B68C2F8003100BF0C37BD4680BC704700BF0070034080B584B071
S32D00010AE000AF78600B46FB707B68FA7811461846FFF768FE4C4B1B68002B29D17B6800221A617B6800225A61BF
S32D00010B08142003F0A7FC03461A467B689A617B689B697A689A607B689B6901225A607B689B69FA781A707B6820
S32D00010B309B690022DA607B689B6900221A617B689B6900225A707B689B69374A13605BE0354B1B68FB60FB6808
S32D00010B581B78FA789A4207D0FB68DB68002B03D0FB68DB68FB60F2E7FB681B78FA789A421DD17B68FA689A61C6
S32D00010B807B689B699B68BB60BB681B69002B03D0BB681B69BB60F7E7BB687A681A617B68BA685A617B680022B7
S32D00010BA81A617B689B695A6801325A6028E07B6800221A617B6800225A61142003F04AFC03461A467B689A61D1
S32D00010BD07B689B697A689A607B689B6901225A607B689B69FA781A707B689B690022DA607B689B6900225A7076
S32D00010BF87B689B69FA681A617B689A69FB68DA60786800F027F97B684FF48C429A607B684FF45242DA607B68D2
S32D00010C2018461037BD4680BD9C1A00200000000080B584B000AFF860B9607A60B8680AF0F3FD1BA3D3E90023E0
S32D00010C480AF070FF02460B46104619464FF00002174B0AF03DFE02460B46104619460BF0D1F80246FB689A6037
S32D00010C7078680AF0D9FD0EA3D3E900230AF056FF02460B46104619464FF000020A4B0AF023FE02460B461046D8
S32D00010C9819460BF0B7F80246FB68DA6000BF1037BD4680BDAFF300806666666666660A400000F04080B586B08E
S32D00010CC000AF78607B685B697B617B681B693B617B69002B2DD13B69002B2AD17B689B691B69FB607B689B6974
S32D00010CE8DB68BB60FB68002B06D1BB68002B03D11C4B00221A600FE0FB68002B03D0FB68BA68DA6002E0174AA3
S32D00010D10BB681360BB68002B02D0BB68FA681A617B689B69002B1BD01421184603F094FB16E07B69002B03D014
S32D00010D387B693A691A6103E07B689B693A699A603B69002B02D03B697A695A617B689B695A68013A5A6000E0C2
S32D00010D6000BF7B6818461837BD4680BD9C1A002080B584B000AF174B1B68FB60FB68002B24D0FB685B78FB7183
S32D00010D88FB689B68184600F023F80346BB71BB79002B13D0FB685B68012B0FDDFB689B681B69BB60BB68002B25
S32D00010DB008D0BB685B685A1CBB685A60BB681B69BB60F3E7FB68DB68FB60D7E700BF1037BD4680BD9C1A00208C
S32D00010DD880B584B000AF78607868FFF791FDF8607B689B695B78FB72FB7A002B0FD17B68DB68FA689A420ADD4E
S32D00010E007B689B6901225A707B685B685A1C7B685A60012313E0FB7A012B0FD17B689B68FA689A420ADA7B68B3
S32D00010E289B6900225A707B685B685A1C7B685A60012300E0002318461037BD4680BD80B483B000AF78607B6815
S32D00010E505B6818460C37BD4680BC704780B483B000AF78607B6800225A6000BF0C37BD4680BC704780B485B00B
S32D00010E7800AF78607B681B6A23F040027B681A627B685B6A23F00B027B685A627B685B6A43F007027B685A62BE
S32D00010EA07B685B6A43F080027B685A627B681B6803F08003002B0CBF01230023DBB2002B00D0F3E77B685B6A04
S32D00010EC803F04003402B0CBF01230023DBB2002B01D0012364E00023FB817B68DB6CFB817B689B6C9AB2FB8958
S32D00010EF01344FB817B685B6C9AB2FB891344FB817B681B6C9AB2FB891344FB817B68DB6B9AB2FB891344FB81DA
S32D00010F187B689B6B9AB2FB891344FB81FB895B08FB81FB896FEA43436FEA5343FB81FA897B68DA620023FB81AC
S32D00010F407B68DB6EFB817B689B6E9AB2FB891344FB817B685B6E9AB2FB891344FB817B681B6E9AB2FB89134469
S32D00010F68FB817B68DB6D9AB2FB891344FB817B689B6D9AB2FB891344FB81FB895B08FB81FB896FEA43436FEA63
S32D00010F905343FB81FA897B681A637B685B6A23F080027B685A62002318461437BD4680BC704780B483B000AF89
S32D00010FB8786039603B681B781A467B689A603B685B781A467B68DA603B685B881A467B689A613B689B881A4649
S32D00010FE07B68DA613B689B791A467B681A623B68DB791A467B685A623B68DA687B681A653B681B7A1A467B6896
S32D000110081A603B685B7A1A467B685A6000BF0C37BD4680BC704780B483B000AF78607B6818460C37BD4680BC21
S32D000110307047000080B582B000AF786039607B68012B07D13B684FF6FF72934202D10348FFF7E5FF00BF083748
S32D00011058BD4680BDA41A002080B500AF4FF6FF710120FFF7E3FF80BD80B582B000AF7860B84B4FF48072DA601C
S32D00011080B74B4FF480729A64B54B4FF480721A64B34B4FF480725A64B14B4FF48072DA60B04B5B69AF4A43F012
S32D000110A808035361AE4B5B69AD4A43F480235361AB4B5B69AA4A43F480335361A84B5B69A74A43F40033536106
S32D000110D0A54B1B68A44A43F008031360A24B5B69A14A43F0080353619E4B1B689D4A43F0080313609A4B4FF425
S32D000110F880725A62984B4FF480721A62954B4FF480721A61934B4FF480725A61914B4FF480729A618F4B4FF400
S32D000111208072DA618D4B4FF480721A638B4B4FF480725A63894B4FF480729A63874B4FF48072DA63854B4FF4C4
S32D0001114880721A64834B4FF480725A64814B4FF480729A647F4B4FF48072DA64814B4FF480721A607F4B4FF483
S32D0001117080729A607D4B4FF48072DA607B4B4FF480721A61784B5B69774A43F440735361744B5B69734A43F45A
S32D000111987F2343F0F0035361734B5B69724A43F01D035361E221786800F0A8FD1D21786800F04AFE0221786896
S32D000111C000F046FE0421786800F042FEE021786800F098FD0121786800F03AFE6420FEF7D3FFE021786800F0EB
S32D000111E88DFD0321786800F02FFE0121786800F085FD0120FEF7C4FFE621786800F07EFD0121786800F020FE7E
S32D00011210A021786800F01CFEFF21786800F018FEB021786800F06EFD1C21786800F010FE0F21786800F00CFECD
S32D000112380121786800F008FE3F21786800F004FE0021786800F000FEEF21786800F0FCFD0021786800F0F8FDAF
S32D00011260B421786800F04EFD0121786800F0F0FD9921786800F0ECFD0021786800F0E8FD4521786800F0E4FD30
S32D000112880221786800F0E0FD0021786800F0DCFD0021786800F0D8FD0021786800F0D4FDB621786800F02AFD47
S32D000112B00121786800F0CCFD0921786800F0C8FD0021786800F0C4FD0E21786800F0C0FD0221786800F0BCFD7B
S32D000112D80021786800F0B8FD0021786800F0B4FDBA21786800F00AFD0F21786800F0ACFD6420FEF745FF3A212C
S32D00011300786800F0FFFC6021786800F0A1FD2A21786800F0F7FC0021786800F099FD0021786800F095FD0121CA
S32D00011328786800F091FD3F21786800F08DFD2B21786800F0E3FC0021786800F085FD0021786800F081FD002180
S32D00011350786800F07DFDEF2178680BE000B0044000A0044080F00F4040F00F4000C00440C0F00F4000F06CFDD7
S32D000113783621786800F0C2FC0021786800F064FDF021786800F0BAFC0421786800F05CFDB821786800F0B2FCD3
S32D000113A00F21786800F054FD0121786800F050FD314B1B68304A43F0080313606420FEF7E3FE3621786800F0E3
S32D000113C89DFC0021786800F03FFDF021786800F095FC0421786800F037FD0121786800F0BCF91E226F2178683E
S32D000113F000F082F8AF225621786800F0DBF80021786800F00AFA012301221C49786800F02BFA2921786800F0C9
S32D0001141875FC6420FEF7B4FEBE21786800F06EFC0E21786800F010FDF021786800F00CFD0121786800F008FD03
S32D000114400021786800F004FD0021786800F000FD0F21786800F0FCFC786800F028FA0121786800F0DAF90021CD
S32D00011468786800F0AFF900BF0837BD4680BD00BF40F00F405C44020080B582B000AF78607B680022DA617B68AE
S32D0001149001221A627B680E225A607B681A229A607B6800225A617B6800229A617B684FF4A072DA607B68F02281
S32D000114B81A617B6800221A70786801F0F9F97B6818460837BD4680BD80B582B000AF7860064B1B78002B05D1A5
S32D000114E0044B01221A707868FFF7C2FD00BF0837BD4680BDEC1A002080B58AB002AFF860B9607A607E23009349
S32D0001150862237A68B968F86800F08DFE40F24E733B610023FB61FA693B699A4240DA0023BB61214AFB691344E1
S32D000115301B781A46BB69934232DAFB6901331C4AD35C002B06D1FF23FB75FF23BB75FF237B7512E0FB690133E5
S32D00011558154AD35C012B06D1D423FB750023BB7526237B7505E0B523FB75BA23BB75B0237B757B7DBA7DF97D3E
S32D00011580F86800F0C9F80246FB68DA61F86801F093F9F86801F0CCF8BB690133BB61C4E7FB690233FB61BAE79E
S32D000115A800BF2037BD4680BD1400002080B58AB002AFF860B9607A602723009395237A68B968F86800F02FFE0A
S32D000115D040F2E6333B610023FB61FA693B699A4240DA0023BB61214AFB6913441B781A46BB69934232DAFB69C8
S32D000115F801331C4AD35C002B06D1FF23FB75FF23BB75FF237B7512E0FB690133154AD35C012B06D10023FB7555
S32D000116200023BB7500237B7505E0D423FB750023BB7526237B757B7DBA7DF97DF86800F06BF80246FB68DA611F
S32D00011648F86801F035F9F86801F06EF8BB690133BB61C4E7FB690233FB61BAE700BF2037BD4680BD64070020A7
S32D0001167080B485B000AF78600B46FB70FB78062B29D801A252F823F0AD160100A5160100B3160100BB160100DE
S32D00011698C3160100C9160100D11601006FF07F43FB6014E00023FB6011E04FF47F03FB600DE04FF47F43FB6035
S32D000116C009E0FF23FB6006E04FF41903FB6002E0044BFB6000BFFB6818461437BD4680BC704700BF999999001E
S32D000116E880B584B000AF786039603B681B0CFB733B681B0ABB733B687B737B7BBA7BF97B786800F005F80346D6
S32D0001171018461037BD4680BD80B487B000AF7860084611461A460346FB700B46BB7013467B70FB789B08DBB2B7
S32D000117387B61BB789B08DBB23B617B789B08DBB2FB607B691A033B699B011A43FB68134318461C37BD4680BCE2
S32D00011760704780B582B000AF78600B46FB70FB7819467868FFF77CFF03461946786800F004F800BF0837BD4661
S32D0001178880BD80B582B000AF7860396039687868FFF7A6FF02467B681A62786801F088F8786800F0E9FB00BFE7
S32D000117B00837BD4680BD80B582B000AF7860786800F0DEFB00BF0837BD4680BD80B582B000AF78600B46FB700C
S32D000117D8FB7819467868FFF747FF03461946786800F004F800BF0837BD4680BD80B582B000AF7860396039681A
S32D000118007868FFF771FF02467B681A62786801F053F800BF0837BD4680BD80B582B000AF78600B46FB70FB7855
S32D0001182819467868FFF720FF03461946786800F004F800BF0837BD4680BD80B582B000AF786039603968786883
S32D00011850FFF74AFF02467B68DA61786801F02CF800BF0837BD4680BD80B586B000AFF860B9607A603B6000236E
S32D000118787B617B69BA6813441B78002B0FD07B69BA6813441B783A687968F86800F00AFE7B680C337B607B69BF
S32D000118A001337B61E9E700BF1837BD4680BD80B582B000AF7860FCF787FF67210120FCF7F2FE00210220FCF7C2
S32D000118C8EEFEA0210320FCF7EAFE50210420FCF7E6FE20210520FCF7E2FE20210620FCF7DEFE77210720FCF7B9
S32D000118F0DAFE00210820FCF7D6FE00210920FCF7D2FE00210A20FCF7CEFE04210B20FCF7CAFE7B684FF0FF326C
S32D00011918DA637B684FF0FF321A6400BF0837BD4680BD00000000000080B586B000AFF860B9607A600020FCF7DC
S32D00011940D4FE0346FB75FB7D03F00203002B00F0CE80FCF7E7FEE020FCF798FE0220FEF713FCFCF7EDFE01208E
S32D00011968FEF70EFCFCF7DAFEA520FCF78BFE0120FEF706FCFCF7ADFE03469BB21B02BB82FCF7A7FE03469AB272
S32D00011990BB8A1343BB82FCF7A0FE03469BB21B027B82FCF79AFE03469AB27B8A13437B82BB8A1B09BB827B8AEC
S32D000119B81B097B82FCF7C0FEFB68DB6BB3F1FF3F34D1FB681B6CB3F1FF3F2FD1BA8AFB68DA637A8AFB681A6409
S32D000119E07B8AC3F57F630F337B82BB8A184609F009FF49A3D3E9002309F06EFF02460B46104619460AF04AFA99
S32D00011A080246BB681A607B8A184609F0F7FE42A3D3E9002309F05CFF02460B46104619460AF038FA02467B68BC
S32D00011A301A605AE0FB68DA6BBB8AD31A1946F86800F074F80346632B0CDCFB681A6C7B8AD31A1946F86800F095
S32D00011A5869F80346632B01DC012300E00023002B2FD0BA8AFB68DA637A8AFB681A647B8AC3F57F630F337B8252
S32D00011A80BB8A184609F0BEFE23A3D3E9002309F023FF02460B46104619460AF0FFF90246BB681A607B8A184697
S32D00011AA809F0ACFE1CA3D3E9002309F011FF02460B46104619460AF0EDF902467B681A600FE0BB68164A1A6006
S32D00011AD07B68154A1A60FB684FF0FF32DA63FB684FF0FF321A64002310E001230EE0BB680D4A1A607B680C4A78
S32D00011AF81A60FB684FF0FF32DA63FB684FF0FF321A64002318461837BD4680BDAFF30080144001144001B43F15
S32D00011B201EE0011EE001AE3F000080BF80B483B000AF786039603B68002B02DA3B685B423B603B6818460C371C
S32D00011B48BD4680BC704780B584B000AF786039600023FB60786800F0D2FAFB683A6813441B78002B12D07B68F6
S32D00011B7059697B689869FB683A6813441B780246786800F079FC786800F0D1FAFB680133FB60E6E700BF1037C4
S32D00011B98BD4680BD80B592B000AF786039604FF0000138680AF086FC0346002B1FD038680AF094FC03467B6436
S32D00011BC0786C0AF075FA0346194638680AF0BAF903461F4918460AF0BFFA034618460AF081FC03463B6407F1F4
S32D00011BE80C003B6C7A6C19490CF0E0FD22E03B6883F000433B6038680AF070FC03467B64786C0AF051FA034664
S32D00011C10194638680AF096F903460D4918460AF09BFA034618460AF05DFC03463B6407F10C003B6C7A6C0849CD
S32D00011C380CF0BCFD07F10C0319467868FFF783FF00BF4837BD4680BD00007A44784402006C44020080B582B0F7
S32D00011C6000AF78600B46FB70786800F04CFA7B6859697B689A69FB78786800F0FDFB786800F055FA00BF083719
S32D00011C88BD4680BD80B582B000AF78603960786800F035FA39687868FFF755FF786800F019FA00BF0837BD46B8
S32D00011CB080BD80B582B000AF78603960786800F022FA39687868FFF769FF786800F006FA00BF0837BD4680BD68
S32D00011CD880B582B000AF78600B46FB70786800F00EFAFB7819467868FFF7B4FF786800F0F1F900BF0837BD4645
S32D00011D0080BD000080B483B000AF78600B46FB704D4B1B684C4A23F0080313604B4B1B684A4A23F480231360B1
S32D00011D28484B1B68474A43F480331360454B1B68444A23F440731360414B1B68404A23F4435323F030031360AB
S32D00011D503E4B1A68FB785B0203F400733B4913430B603A4B1A68FB785B101B0203F48073364913430B60344B2F
S32D00011D781A68FB789B101B0103F01003304913430B602F4B1A68FB78DB105B0103F020032B4913430B602A4BCA
S32D00011DA01A68FB781B119B0103F04003264913430B60254B1A68FB785B11DB01DBB2224913430B60204B1A689E
S32D00011DC8FB789B111B0303F480531D4913430B601B4B1A6897F90330DB115BB25B0303F40053174913430B6051
S32D00011DF0164B1B68154A23F400331360134B1B68124A43F4003313600F4B1B680E4A43F0080313600D4B1B68E9
S32D00011E180C4A43F440731360094B1B68084A43F4435343F030031360064B1B68054A43F48023136000BF0C37A7
S32D00011E40BD4680BC704700BF80F00F4040F00F4080B483B000AF78600B46FB70464B1B68454A23F008031360A2
S32D00011E68444B1B68434A43F480331360414B1B68404A43F4802313603E4B1B683D4A23F4407313603A4B1B6891
S32D00011E90394A23F4435323F030031360374B1A68FB785B0203F40073344913430B60334B1A68FB785B101B02C3
S32D00011EB803F480732F4913430B602D4B1A68FB789B101B0103F01003294913430B60284B1A68FB78DB105B01BC
S32D00011EE003F02003244913430B60234B1A68FB781B119B0103F040031F4913430B601E4B1A68FB785B11DB015F
S32D00011F08DBB21B4913430B60194B1A68FB789B111B0303F48053164913430B60144B1A6897F90330DB115BB24E
S32D00011F305B0303F40053104913430B600F4B1B680E4A23F4003313600C4B1B680B4A43F400331360084B1B68EC
S32D00011F58074A43F008031360064B1B68054A23F48023136000BF0C37BD4680BC704700BF80F00F4040F00F4013
S32D00011F8080B586B000AF78607B6800225A617B6800229A617B681B6AFB60FB68FB72FB681B0ABB72FB681B0CAE
S32D00011FA8DBB203F003037B722A217868FFF7A6FE00217868FFF748FF00217868FFF744FF01217868FFF740FF23
S32D00011FD03F217868FFF73CFF2B217868FFF792FE00217868FFF734FF00217868FFF730FF00217868FFF72CFF4D
S32D00011FF8EF217868FFF728FF2C217868FFF77EFE314B1B68304A23F4407313602F4B1B682E4A23F47F2323F017
S32D00012020F00313602C4B1B682B4A23F01D031360274B1A687B681B6B254913430B60254B1A687B685B6B234983
S32D0001204813430B60224B1A687B689B6B204913430B601E4B1B681D4A23F0080313601A4B1B68194A43F480239D
S32D00012070136000237B617B69EF2B19D800233B613B69B3F5A07F0FD2114B1B68104A23F4003313600E4B1B6803
S32D000120980D4A43F4003313603B6901333B61EBE77B6901337B61E2E7084B1B68074A43F008031360044B1B6838
S32D000120C0034A23F48023136000BF1837BD4680BD40F00F4080F00F40C0F00F4080B483B000AF78607B689B6917
S32D000120E8002B07DD7B685B695A1C7B685A617B6800229A6100BF0C37BD4680BC704780B582B000AF78607B6836
S32D000121105A697B685B689A4205DB7B6800225A617868FFF72DFF00BF0837BD4680BD80B582B000AF78607B68AA
S32D000121389B695A1C7B689A617B689A697B689B689A4205D17868FFF7C5FF7868FFF7D7FF00BF0837BD4680BD1E
S32D0001216080B586B002AFF860B9607A600123009301237A68B968F86800F059F8F86800F0D7FA00BF1037BD4640
S32D0001218880BD80B485B000AF786039607B681B68FB603B681A687B681A603B68FA681A6000BF1437BD4680BC57
S32D000121B0704780B586B002AFF860B9607A603B60BA683B681A447B68009313467A68B968F86800F0ABF8BA683D
S32D000121D83B68D118BA683B68D0187A68BB691344009303467A68F86800F09CF8BA683B68D1187A68BB69D01804
S32D000122007A68BB6913440093BB680246F86800F08DF87A68BB691A447B680093BB68B968F86800F083F800BFD7
S32D000122281037BD4680BD80B588B000AFF860B9607A603B60FB681B78022B03D0FB681B78032B11D17B68FB61C3
S32D00012250BA6AFB691344013BBB61FB68DA68BB68D31A3B613B683A69D31A01337B610DE0BB68FB613A68FB6922
S32D000122781344013BBB617B687B61BA6A7B691344013B3B612A21F868FFF738FDFB691B0ADBB203F00F03DBB214
S32D000122A01946F868FFF7D4FDFB69DBB21946F868FFF7CEFDBB691B0ADBB203F00F03DBB21946F868FFF7C4FD3A
S32D000122C8BB69DBB21946F868FFF7BEFD2B21F868FFF714FD7B691B0ADBB203F00F03DBB21946F868FFF7B0FD89
S32D000122F07B69DBB21946F868FFF7AAFD3B691B0ADBB203F00F03DBB21946F868FFF7A0FD3B69DBB21946F868C8
S32D00012318FFF79AFD2C21F868FFF7F0FC00BF2037BD4680BD90B58BB000AFF860B9607A603B603A68BB68D31A5D
S32D000123401946F868FFF7F2FBF861BA6B7B68D31A1946F868FFF7EAFBB861BA69FB699A42CCBF01230023FB7526
S32D00012368FB7D002B0CD03A1D07F1080311461846FFF707FF3B4607F138011846FFF701FFBA683B689A420CDD2C
S32D000123903A4607F1080311461846FFF7F6FE3B1D07F138011846FFF7F0FE3A68BB689A4206D1BB687A68194655
S32D000123B8F868FFF7D1FE55E0BA6B7B68D31A184609F072FE04463A68BB68D31A184609F06BFE03461946204616
S32D000123E009F06EFF03463B617B68184609F060FE03467B62BB683B623B683A6A9A4235DCFB7D002B14D0786A68
S32D0001240809F00EFA4FF00002184B09F0ABF802460B461046194609F0F5FC03463A6A1946F868FFF799FE13E000
S32D00012430786A09F0F9F94FF000020E4B09F096F802460B461046194609F0E0FC03461A46396AF868FFF784FE48
S32D000124583969786A09F074FD03467B623B6A01333B62C5E72C37BD4690BD00BF0000E03F80B584B000AFF8601E
S32D00012480B9607A60FB707A6813465B0013449B00991CBA6813461B011344DA1CFB78F86800F004F800BF1037E9
S32D000124A8BD4680BD80B58EB002AFF860B9607A60FB70FB780A2B06D1F868FFF720FEF868FFF708FEF2E0FB7857
S32D000124D07D2B02D8FB781F2B01D82023FB70FB78203BFB70112300930C237A68B968F868FFF79DFEFA78134629
S32D000124F89B0013446F4AD35C3B75FA7813469B00134401336B4AD35C7B75FA7813469B0013440233674AD35C94
S32D00012520BB75FA7813469B0013440333634AD35CFB75FA7813469B00134404335F4AD35C3B760023BB62BB6A3B
S32D00012548062B00F3A180F86800F050F9F86800F0B3F8002387F82F3000237B627B6A042B35DC07F114027B6A72
S32D0001257013441B7803F00103002B14BF01230023FB76FB7E002B11D097F82F3083F00103DBB2002B03D0F868D0
S32D0001259800F0CAF802E0F86800F08EF8F86800F08BF80DE097F82F30002B03D0F86800F01DF902E0F86800F066
S32D000125C07FF8F86800F07CF8FB7E87F82F307B6A01337B62C6E797F82F30002B03D0F86800F008F902E0F86838
S32D000125E800F06AF8F86800F067F8002387F82F3000233B623B6A042B42DC07F114023B6A13441B7803F001037C
S32D00012610002B14BF01230023BB76BB7E002B11D097F82F3083F00103DBB2002B03D0F86800F07EF802E0F868E8
S32D0001263800F042F8F86800F03FF80DE097F82F30002B03D0F86800F0D1F802E0F86800F033F8F86800F030F8FB
S32D00012660BB7E87F82F3007F114023B6A13441B785B08D9B207F114023B6A13440A461A703B6A01333B62B9E7AF
S32D00012688BB6A0133BB625AE7F86800F0AFF8002387F82F300123FB61FB69232B06DCF86800F00AF8FB69013376
S32D000126B0FB61F5E73037BD4680BD00BF4C0B002080B483B000AF7860174B1B68164A43F480331360154B1B6873
S32D000126D8144A23F008031360114B1B68104A43F4802313600E4B1B680D4A23F4003313600B4B1B680A4A43F40A
S32D0001270000331360094B1B68084A43F008031360054B1B68044A23F48023136000BF0C37BD4680BC704700BF25
S32D0001272840F00F4080F00F4080B483B000AF78602B4B1B682A4A43F480331360294B1B68284A23F00803136092
S32D00012750254B1B68244A43F480231360224B1B68214A23F440731360204B1B681F4A23F47F2323F0F00313608B
S32D000127781D4B1B681C4A23F01D031360184B1A687B685B6A164913430B60164B1A687B689B6A144913430B60A5
S32D000127A0134B1A687B68DB6A114913430B600E4B1B680D4A23F4003313600B4B1B680A4A43F400331360094B99
S32D000127C81B68084A43F008031360054B1B68044A23F48023136000BF0C37BD4680BC704740F00F4080F00F40D8
S32D000127F0C0F00F4080B483B000AF78602B4B1B682A4A43F480331360294B1B68284A23F008031360254B1B6816
S32D00012818244A43F480231360224B1B68214A23F440731360204B1B681F4A23F47F2323F0F00313601D4B1B68CA
S32D000128401C4A23F01D031360184B1A687B681B6B164913430B60164B1A687B685B6B144913430B60134B1A6865
S32D000128687B689B6B114913430B600E4B1B680D4A23F4003313600B4B1B680A4A43F400331360094B1B68084A1A
S32D0001289043F008031360054B1B68044A23F48023136000BF0C37BD4680BC704740F00F4080F00F40C0F00F40E5
S32D000128B880B485B000AF78607B681B6AFB60FB68FB72FB681B0ABB72FB681B0CDBB203F003037B727B680022B7
S32D000128E05A627B6800229A627B680022DA627B6800221A637B6800225A637B6800229A637B681A6BFB7A5B024B
S32D0001290803F400731A437B681A637B681A6BFB7A5B101B0203F480731A437B681A637B685A6BFB7A9B101B0189
S32D0001293003F010031A437B685A637B685A6BFB7ADB105B0103F020031A437B685A637B685A6BFB7A1B119B0119
